:020000040800F2
:100000000080022011620008495500084B55000885
:100010004D5500084F5500085155000800000000DC
:100020000000000000000000000000005355000820
:1000300055550008000000005755000859550008A4
:100040006162000861620008616200086162000884
:100050006162000861620008616200086162000874
:100060006162000861620008616200086162000864
:100070006162000861620008616200086162000854
:100080006162000861620008616200086162000844
:100090006162000861620008616200086162000834
:1000A0006955000885550008AD550008A1550008A0
:1000B000B1550008BD55000800000000616200084D
:1000C0006162000861620008616200086162000804
:1000D00061620008AD050008B9050008616200080A
:1000E000616200086162000800000000000000007A
:1000F0000000000000000000000000000000000000
:100100000000000061620008000000006162000859
:10011000C90A000800000000C955000800000000DE
:1001200061620008616200086162000861620008A3
:10013000616200086162000861620008000000005E
:1001400061620008D5550008E1550008ED5500082A
:100150006162000861620008616200086162000873
:10016000616200086162000861620008000000002E
:1001700000000000616200080000000000000000B4
:100180006162000861620008616200086162000843
:0401900061620008A0
:1001940010B5054C237833B9044B13B10448AFF3BD
:1001A40000800123237010BDC4050020000000005E
:1001B400BC62000808B5034B1BB103490348AFF305
:1001C400008008BD00000000C8050020BC620008D3
:1001D40053B94AB9002908BF00281CBF4FF0FF31AA
:1001E4004FF0FF3000F07AB9ADF1080C6DE904CEA0
:1001F40000F006F8DDF804E0DDE9022304B07047FE
:100204002DE9F0478C460D460446089E002B51D13B
:100214008A4217466DD9B2FA82FEBEF1000F0BD0A6
:10022400CEF1200C01FA0EF520FA0CFC02FA0EF7BE
:100234004CEA050C00FA0EF44FEA174A250CBCFBF5
:10024400FAF81FFA87F90AFB18CC45EA0C4508FBB3
:1002540009F3AB420AD9ED1908F1FF3280F023818A
:10026400AB4240F22081A8F102083D44ED1AA4B249
:10027400B5FBFAF00AFB105544EA054400FB09F902
:10028400A14509D9E41900F1FF3380F00A81A145A1
:1002940040F2078102383C44A4EB090440EA0840D8
:1002A4000021002E61D024FA0EF400233460736020
:1002B400BDE8F0878B4207D9002E54D0002186E890
:1002C40021000846BDE8F087B3FA83F1002940F025
:1002D4008E80AB4202D3824200F2FA80841A65EB2C
:1002E40003050120AC46002E3FD086E81010BDE87F
:1002F400F08712B90127B7FBF2F7B7FA87FEBEF110
:10030400000F34D1EB1B3A0C1FFA87FC0121B3FB1D
:10031400F2F8250C02FB183345EA03450CFB08F3FD
:10032400AB4207D9ED1908F1FF3002D2AB4200F21B
:10033400D1808046ED1AA3B2B5FBF2F002FB105552
:1003440043EA05440CFB00FCA44507D9E41900F179
:10035400FF3302D2A44500F2B8801846A4EB0C0483
:1003640040EA08409DE731463046BDE8F087CEF1CB
:10037400200405FA0EF307FA0EF720FA04F83A0CF3
:1003840025FA04F448EA0308B4FBF2F14FEA1845ED
:1003940002FB11441FFA87FC45EA044501FB0CF3F8
:1003A400AB4200FA0EF409D9ED1901F1FF3080F0E7
:1003B4008A80AB4240F2878002393D44EB1A1FFA2F
:1003C40088F5B3FBF2F002FB103345EA034500FB6A
:1003D4000CF3AB4207D9ED1900F1FF386FD2AB42F1
:1003E4006DD902383D44EB1A40EA01418FE7C1F16F
:1003F400200722FA07F88B4005FA01F448EA0303C0
:1004040020FA07FE4FEA134CFD404EEA040EB5FBFA
:10041400FCF94FEA1E440CFB19551FFA83F844EA11
:10042400054509FB08F4AC4202FA01F200FA01FAAC
:1004340008D9ED1809F1FF3043D2AC4241D9A9F1F2
:1004440002091D442D1B1FFA8EFEB5FBFCF00CFBAC
:1004540010554EEA054400FB08F8A04507D9E418F6
:1004640000F1FF3529D2A04527D902381C4440EABF
:100474000940A4EB0804A0FB02894C45C6464D463E
:1004840015D312D056B1BAEB0E0364EB050404FA8B
:1004940007F7CB401F43CC40376074600021BDE8B0
:1004A400F0871846F8E69046E0E6C245EAD2B8EB93
:1004B400020E69EB03050138E4E72846D7E7404616
:1004C40091E78146BEE7014678E702383C4445E7B8
:1004D400084608E7A8F102083D442BE7704700BF2F
:1004E400012070470120704710B5124C1249204674
:1004F40003F0E6FE204603F0E5FE20460F4C03F031
:1005040052FF0F49204603F0DBFE204603F0DAFEDB
:1005140020460C4C03F04CFF204600224FF480513F
:1005240000F042FC204601220421BDE8104000F006
:100534003BBC00BF10030020E90400086C0300204A
:10054400E504000800080048037810B553B1064CD0
:1005540023783BB1054803F007FF054803F004FF87
:100564000023237010BD00BFE00900201003002009
:100574006C030020014B01221A707047E00900202F
:1005840010B50B79442B0C460AD1084604F08BF8BD
:1005940030B12388034A6188D26CC3F30E03D1546B
:1005A40010BD00BF10030020014803F07FBF00BF4F
:1005B4006C030020014803F03DBF00BF100300207E
:1005C400044B0168DA68914202D1184603F0FBBE7D
:1005D400704700BF10030020F0B5C4230D46404C03
:1005E400511C6B4303EB011727441646D7F804C08C
:1005F400FA7885B004EB030EBCF1000F3AD193B244
:10060400DEF808200132CEF80820622202FB0562DF
:1006140004EB4202022782F8B170622202FB0562F7
:10062400583204F812304769B7B1C4226A4302EB66
:100634000112ADF80A30A25A44236FEA42426FEA2B
:1006440052428DF80C300023ADF808208DF80D309F
:10065400ADF80E3002A9B847622202FB0565583591
:1006640004EB45035B78022B04BF002304F8153028
:1006740005B0F0BDBF7806EE902A07EE907AB8EE8A
:10068400666AF8EE677A06EE90CA36EE676AF8EEA6
:10069400666A03EB0613C6EE265A2344DEF804709A
:1006A4009B69FF1A92B207EE107AB8EE477AE7EE2A
:1006B400257AFCEEE77ACDED017ABDF80430934259
:1006C400ABD3DEF808300133CEF80830622303FBE5
:1006D400056304EB4303022783F8B17013469CE7D8
:1006E4000000002070B50E4C002504F54476142259
:1006F400002104F1B00065602570A560E56005F097
:10070400D3FD002304EB0312527F12B1E2680132DD
:10071400E26001330A2BF5D1C434B442E7D170BD91
:100724000000002003782DE9F74F8046002B3BD0D2
:10073400254B01931A78BAB30025244CA946237893
:1007440053B36368013363602746A34600265FFA08
:1007540085FA9BF81D2042B197F8B120012A26D1D1
:10076400F2B251464046FFF737FF01360A2E0BF12D
:10077400100B07F10207ECD1A268E3689A420BD38D
:100784001422002104F1B000C4F8089084F8009009
:10079400C4F8049005F088FD0135042D04F1C40467
:1007A400CDD1019A0023137003B0BDE8F08F6068C7
:1007B400DBF818108842D8D3002AD6D14FF00103B1
:1007C40087F8B130CCE700BFE10900200000002029
:1007D400014B01221A707047E10900202DE9F34111
:1007E4000F79502F06460C462DD1084603F05BFFC7
:1007F40048B32588C5F30E05042D24D8B4F9028026
:100804001E4847F6FF73984520D1C4236B43C21892
:10081400C45CDCB90121C154B03354609460184401
:100824001422214605F040FD736963B1ADF8005010
:10083400ADF802808DF804708DF80540ADF80640DF
:1008440069463046984702B0BDE8F081C4236B4343
:10085400C2180024C454B033546094601844142261
:10086400214605F021FD7369002BECD05022ADF830
:100874000050ADF802408DF80420DDE700000020B0
:1008840037B5C3699BB2ADF80630BDF806300446EF
:100894009806154603D5A08CC0B203F007FFBDF837
:1008A40006301A060ED5E36923F08003E361294676
:1008B4000DF1050003F016FF02280DD1236823F083
:1008C40080032360BDF806301B0742BF236A43F050
:1008D4000803236203B030BD0028F3D09DF805302F
:1008E4002385EFE710B5054803690C46984704488B
:1008F40021460369BDE81040184700BF04040020E6
:10090400EC03002010B508460C4603F0CCFE064963
:1009140020B12046BDE8104003F06ABE2046BDE881
:10092400104003F05FBE00BF1C04002013B5002379
:100934000649009304466846019303F061FE0146AC
:1009440010B123692046984702B010BD1C04002052
:1009540010B50B490B4803F0E8FD0A4803F0E7FD26
:1009640009484268012303701C4602B190470748B6
:100974004368047013B1BDE81040184710BD00BFB0
:1009840095090008C803002004040020EC0300209B
:1009940030B5837A85B00446002B31D16423028BB1
:1009A40001780293838A0193C36900931548022353
:1009B40000F024FCB0FA80F56D09A37A012B0ED166
:1009C4000A230293A38A0193236A0093228B21783A
:1009D4000C48022300F0CAFC002818BF0025A37AA3
:1009E400042B0AD101220092A38A2178226A0548A5
:1009F40000F070FB002818BF0025284605B030BD64
:100A04000125DAE70C160020144C154D154E012370
:100A140083B523702046636898472746A368384601
:100A240098470F48AB6898470E48B36898474FF407
:100A340080614FF0904000F0B1F90028EED10A4BEC
:100A44001A78002AEAD10949086849686B4603C341
:100A540069461046FFF756FFE0E700BF2C0400206C
:100A640004040020EC03002000000020D4620008ED
:100A740008B50F4803F04CFC0E48C3680BB10121C4
:100A840098470D48C3680BB1012198470B4A138856
:100A940001339BB2632B88BF00231380084A138859
:100AA40001339BB2B3F5FA7F28BF0023138008BD3E
:100AB4001003002004040020EC030020E20B0020BB
:100AC400E40B0020024B034A03491868FFF7D8BE21
:100AD400C0180020500400204404002038B50A4BFC
:100AE400054618684FF47A73B0FBF3F000F07EF813
:100AF400044638B9024629464FF0FF3000F036F874
:100B0400204638BD012038BD6C05002010B50320F7
:100B140000F01AF80020FFF7E1FF044618B904F0CA
:100B2400F9FC204610BD0124FBE70000024A1368CB
:100B340001331360704700BF08160020014B18688A
:100B4400704700BF08160020074AD36823F4E06307
:100B54001B041B0C43F0BF63000243F4003300F496
:100B6400E0600343D360704700ED00E0174B30B5FD
:100B7400DC68C4F30224C4F10703251D042B28BF39
:100B84000423062D4FF0010505FA03F303F1FF33A7
:100B94008CBF033C00241940A14005FA04F4013C35
:100BA4002240002842EA01024FEA0212AFBF00F1DC
:100BB400604000F00F00064BD2B2A5BF00F56140C3
:100BC400D2B21A5480F8002330BD00BF00ED00E01B
:100BD40014ED00E04209012300F01F0003FA00F0C5
:100BE400014B43F82200704700E100E00138B0F106
:100BF400807F0AD2064B074A5860F02182F82310FE
:100C04000020072298601A6070470120704700BFD7
:100C140010E000E000ED00E02DE9F74FD1F800808E
:100C2400DFF874915A4A002338FA03F402D103B06E
:100C3400BDE8F08F012404FA03FA18EA0A0500F06B
:100C44009C804C6824F0100BBBF1020F14D14FEAC6
:100C5400D30E00EB8E0E03F0070CDEF820604FEA93
:100C64008C0C0F2707FA0CF726EA07070E6906FA19
:100C74000CF63E43CEF820604FEA430C0327066887
:100C840007FA0CF7FF4304F0030E3E400EFA0CFE85
:100C94000BF1FF3B4EEA0606BBF1010F066011D8CB
:100CA400866806EA070BCE6806FA0CFE4EEA0B06C7
:100CB4008660466826EA0A0AC4F300169E4046EA9D
:100CC4000A064660C66837408E6806FA0CF6374353
:100CD400E600C76051D5D9F8606046F00106C9F84E
:100CE4006060D9F8606023F0030707F1804706F0DD
:100CF400010607F58037019603F0030C019EBE68D8
:100D04004FEA8C0C4FF00F0E0EFA0CFEB0F1904F20
:100D140026EA0E0E33D01F4EB04232D006F580665E
:100D2400B04230D006F58066B0422ED006F580661B
:100D3400B04214BF0726042606FA0CF646EA0E064D
:100D4400BE601668EF4314F4803F0CBF3E402E4350
:100D54001660566814F4003F0CBF3E402E435660A4
:100D6400966814F4801F0CBF3E402E439660D668EC
:100D7400A40254BF3E402E43D660013354E70026FC
:100D8400DAE70126D8E70226D6E70326D4E700BF30
:100D940000040140000400480010024003691942A5
:100DA40014BF0120002070470AB18161704781623D
:100DB400704703689A69910744BF00229A629A694E
:100DC400D2075EBF9A6942F001029A61704730B55A
:100DD400039C05682343640D04F4806444F07F7429
:100DE40044F458346868C1F3090144F47F74194326
:100DF40044F0030441EA024120EA04042143696007
:100E040030BD2DE9F041069F0446884616461D462E
:100E14002268936938EA03030CBF01230023B34219
:100E240002D00020BDE8F0816B1CF2D0FFF786FEF3
:100E3400C01B854201D3002DEAD1636C43F020032B
:100E44006364202384F84130002384F8423084F81A
:100E540040300120BDE8F081036870B5044698690C
:100E640010F010000D46164616D170BD691C14D042
:100E7400FFF764FE801B854200D36DB9636C43F0B9
:100E840020036364202384F84130002384F8423033
:100E940084F84030012070BD236899698A06E5D53D
:100EA40010222025DA612046DD61FFF782FF2268E7
:100EB400536823F0FF7323F48B3323F4FF7323F07D
:100EC40001035360636C43F00403636484F841508A
:100ED400DBE770B504460D46164623689B699B07FD
:100EE40001D5002070BD324629462046FFF7B4FFE5
:100EF400A0B96A1CF1D0FFF721FE801B854201D303
:100F0400002DEAD1636C43F020036364202384F84A
:100F14004130002384F8423084F84030012070BD11
:100F2400F7B5099E1F46164B0093054614464FF02D
:100F34008073FAB2FFF74BFF324608992846FFF751
:100F4400C8FF10B1012003B0F0BD012F2B680CD1F4
:100F5400E4B29C62089B0096002280212846FFF799
:100F640050FF003018BF0120EDE7220A9A62089969
:100F740032462846FFF7ADFF0028E3D12B68E7E7A8
:100F840000200080F7B5099E1F46164B00930546C6
:100F940014460023FAB2FFF71AFF3246089928468E
:100FA400FFF797FF10B1012003B0F0BD012F2B68AC
:100FB4000CD1E4B29C62089B009600224021284692
:100FC400FFF71FFF003018BF0120EDE7220A9A62E5
:100FD400089932462846FFF77CFF0028E3D12B68A6
:100FE400E7E700BF0020008070B504460D461646B2
:100FF40023689B699B0601D5002070BD32462946B3
:101004002046FFF729FF90B9FFF798FD801B854222
:1010140001D3002DECD1636C43F0200363642023DF
:1010240084F84130002384F8423084F840300120B1
:1010340070BD10B5044600284AD090F8413003F042
:10104400FF021BB980F8402004F038F9242384F807
:1010540041302368E1681A6822F001021A6062686C
:1010640022F070621A619A68012922F400429A609F
:10107400A26824D142F400429A605A68616942F03D
:10108400007242F400425A60DA6822F40042DA60E4
:1010940022690A43A16942EA0122DA60216AE2690B
:1010A4000A431A601A6842F001021A6000202023E1
:1010B400606484F84130206384F8420010BD42F437
:1010C400044202299A6004BF4FF400625A60D4E7D4
:1010D400012010BD2DE9F743984690F84130202BAC
:1010E40004460E46914640F0848090F84030012B2F
:1010F4007FD0012780F84070FFF720FD19230546B3
:1011040000903A464FF400412046FFF77AFE18B1AA
:10111400012003B0BDE8F083212384F8413010237B
:1011240084F842306064A4F82A80638DC4F8249063
:101134009BB2FF2B6063304B26D9FF22228500939C
:101144004FF0807331462046FFF741FE638D0A99C4
:101154009BB22A462046FBB9FFF746FF0028D7D1A9
:1011640023682021D9615A6822F0FF7222F48B325D
:1011740022F4FF7222F001025A6084F8411084F8CC
:10118400400084F84200C4E7628D009392B2228545
:101194004FF00073D2B2D5E7FFF79BFE0028B7D11A
:1011A400636A226813F8011B91626362638D228D66
:1011B400013B9BB26385638D013A92B29BB2228557
:1011C400002BC3D0002AC1D100950A9B8021204660
:1011D400FFF717FE00289BD1638D9BB2FF2B03D929
:1011E400FF2222850090ABE7628D009092B22285A7
:1011F400CEE702208DE700BF002000802DE9F04FEC
:101204009B4690F8413085B0202B04460F4603924C
:10121400BDF83CA0DDF8408040F0A5800E9B13B1E2
:10122400BAF1000F06D14FF400736364012005B0D6
:10123400BDE8F08F90F84030012B00F09480012538
:1012440080F84050FFF77AFC1923009006462A469E
:101254004FF400412046FFF7D4FD81460028E5D134
:10126400212384F84130402384F842300E9B60648B
:1012740063626063A4F82AA00196CDF800805B46FF
:10128400039A39462046FFF74BFE10B184F840908C
:10129400CCE7638D9BB2FF2B55D9FF2222850090AA
:1012A4004FF0807339462046FFF791FD32464146A0
:1012B4002046FFF70EFE0028B8D1636A226813F8AF
:1012C400011B91626362638D228D013B9BB2638536
:1012D400638D013A92B29BB22285ABB1A2B900965A
:1012E400434680212046FFF78CFD00289ED1638D64
:1012F4009BB2FF2B2FD9FF22228500904FF08073E1
:1013040039462046FFF763FD638D9BB2002BCDD198
:10131400324641462046FFF767FE002886D12368FF
:101324002021D9615A6822F0FF7222F48B3222F410
:10133400FF7222F001025A6084F8411084F84000E0
:1013440084F8420073E7628D009092B222854FF0D8
:101354000073D2B2A6E7628D009092B222854FF05C
:101364000073D2B2CCE7022061E700002DE9F04F10
:101374009B4690F8413085B0202B04460F460392DB
:10138400BDF83CA0DDF8408040F0A9800E9B13B16D
:10139400BAF1000F06D14FF400736364012005B065
:1013A400BDE8F08F90F84030012B00F098800125C3
:1013B40080F84050FFF7C2FB1923009006462A46E6
:1013C4004FF400412046FFF71CFD81460028E5D17B
:1013D400222384F84130402384F842300E9B606419
:1013E40063626063A4F82AA00196CDF800805B468E
:1013F400039A39462046FFF7C5FD10B184F84090A2
:10140400CCE7638D9BB2FF2B364B58D9FF22009358
:1014140022854FF0807339462046FFF7D8FC0096AA
:101424004346002204212046FFF7EBFC0028B5D1F7
:101434002268636A526A1A70636A228D0133636296
:10144400638D013B9BB26385638D013A92B29BB27B
:101454002285ABB1A2B90096434680212046FFF70E
:10146400D0FC00289AD1638D9BB2FF2B2FD9FF2289
:10147400228500904FF0807339462046FFF7A7FC81
:10148400638D9BB2002BCAD1324641462046FFF7FA
:10149400ABFD002882D123682021D9615A6822F04B
:1014A400FF7222F48B3222F4FF7222F001025A609E
:1014B40084F8411084F8400084F842006FE7628D9C
:1014C400009392B222854FF00073D2B2A3E7628DEB
:1014D400009092B222854FF00073D2B2CCE7022082
:1014E4005DE700BF0024008090F84120D2B2202A9A
:1014F40010B51DD190F84030012B19D0242380F869
:10150400413003681C6824F001041C601C6824F446
:1015140080541C601C6821431960196841F0010162
:101524001960002380F8412080F84030184610BD2F
:10153400022010BD10B590F84140E4B2202C1CD11B
:1015440090F84030012B18D0242380F841300368F0
:101554001A6822F001021A601A6822F4706242EAE0
:10156400012119601A6842F001021A60002380F810
:10157400414080F84030184610BD022010BD0000E4
:1015840070B50446002847D090F8363003F0FF02C7
:101594001BB980F8352003F0FFFE0223206865683C
:1015A40084F83630C26861691C4E012D4FF6FF7312
:1015B40008BF22F01E0299421CBF22F4604222F0AE
:1015C400C0021640A26845EA0203226A1343626A13
:1015D4001343A26A012D43EA020304BF2569E268AA
:1015E40043EA060304BF2A4313434FF6FF729142B2
:1015F40004D0A2691143E26911430B43C360084B51
:10160400984208BF226BE36A08BF134303620123B5
:1016140084F83630002070BD012070BDFEF119FF42
:10162400007C0040704770477047704770477047B0
:10163400704703681A68D10710B5044606D59A683E
:10164400D20703D501225A60FFF7ECFF23681A681A
:10165400900707D59A68910704D502225A6020465C
:10166400FFF7E1FF23681A68520707D59A68500705
:1016740004D504225A602046FFF7D6FF23681A686F
:10168400110707D59A68120704D508225A60204624
:10169400FFF7CBFF23681A68D00607D59A68D106EE
:1016A40004D510225A602046FFF7C0FF23681A6849
:1016B400920607D59A68900604D520225A602046DF
:1016C400FFF7B5FF23681A68510607D59A685206D2
:1016D40004D540225A602046FFF7AAFF10BD2DE929
:1016E400F041044686B000286BD090F8293403F00A
:1016F400FF021BB980F8282404F0B8FB2546032315
:1017040055F8100B84F8293402F0BFF90FCD6E465A
:101714000FC62B68336004F1040898E80E002068B3
:1017240002F0A1F90021206802F0B9F90021224653
:10173400234604F110050126084683F82810D986AB
:1017440001310F2983F8296083F82B009863D8634B
:10175400186403F12003F0D100231F4682F82832D5
:1017640001330F2B82F8297282F82B72C2F8387277
:10177400C2F83C72C2F8407202F12002EED10FCDE1
:101784006E460FC62B68336098E80E00206802F09E
:1017940088F9012384F8247084F82934E369012B3F
:1017A40002D1204600F0B0FB236A012B02D120466F
:1017B40000F096FB206802F060FC002006B0BDE853
:1017C400F0810120FAE790F82834012B10B5044683
:1017D4000CD0012380F82834006802F043FC206810
:1017E40002F048F9002084F8280410BD022010BD3E
:1017F40090F82824012A10B504460BD0012280F861
:10180400282484F82410006802F026FC002084F8C0
:10181400280410BD022010BD70B5044601F00F006D
:1018240011F0800FC5B24FF0200101FB054115BF37
:1018340004EB451504EB4515283101F50A7115BF74
:101844000126002685F8296085F829620A614A780C
:10185400CB70C0B2087002B1C881022B04BF002350
:101864000B7194F82834012B09D0012384F828340F
:10187400206802F033F9002084F8280470BD0220A7
:1018840070BD01F00F0311F0800FDAB24FF02001A8
:1018940001FB020110B5044619BF00EB42122831C6
:1018A40001F50A7104EB421215BF0120002082F8F1
:1018B400290082F829020B7094F82834012B09D0EE
:1018C400012384F82834206802F07EFA002084F88A
:1018D400280410BD022010BD70B501F00F0100EB0B
:1018E40041164C01002586F8281204F50A710144BA
:1018F400C6F83C22C6F84032C6F8445286F829524B
:10190400006802F0DBFB284670BD01F00F0100EB1C
:101914004111B1F84402704770B501F00F0100EBBA
:1019240041154C012B640026012385F8281004F18D
:1019340028010144EA636E6485F82930006802F0E6
:10194400BDFB304670BD00002DE9F84F0446006829
:1019540002F09BFB000400F13082206802F095FB4A
:1019640041050FD52268B2F8443023F480631B0488
:101974001B0C2046A2F8443004F0BFFA0021204694
:10198400FFF736FF206802F080FB430408D5226885
:10199400B2F8443023F480431B041B0CA2F84430F7
:1019A400206802F072FB870408D52268B2F844303C
:1019B40023F400531B041B0CA2F84430206802F0EB
:1019C40064FBC60426D52268B2F8403023F0040331
:1019D4001B041B0CA2F84030B2F8403023F008037B
:1019E4001B041B0CA2F8403094F86034012B05D181
:1019F400002184F86014204604F07EFB204604F0A5
:101A040099FA2268B2F8443023F480531B041B0C67
:101A1400A2F84430206802F038FB05051DD5206883
:101A2400B0F840309BB243F00803A0F84030B0F85F
:101A3400443023F400631B041B0CA0F84430B0F8BA
:101A440040309BB243F00403A0F8403002F01DFB89
:101A5400C00402D4204604F05DFA206802F015FBAD
:101A6400010629D52368B3F8442022F08002120429
:101A7400120CA3F8442094F86024002A40F0A281B8
:101A8400B3F8402092B242F00402A3F84020B3F825
:101A9400402092B242F00802A3F84020B3F8543038
:101AA400C3F38D03012103F03C0384F86014C4F8EC
:101AB4006434204604F020FB206802F0E6FA820534
:101AC4000BD52268B2F8443023F400731B041B0CBA
:101AD400A2F84430204604F00CFA206802F0D5FA4B
:101AE400C30508D52268B2F8443023F480731B047C
:101AF4001B0CA2F84430BDE8F88FB0F8441089B24A
:101B040011F00F0740F0A580038811F010019BB27B
:101B140029D103EA0A030380B0F8503094F828204E
:101B240000F2024010FA83F030F83230E26BC3F373
:101B3400090363641344E363204604F0D3F994F87F
:101B4400243053B1226C42B994F82430216843F014
:101B54008003A1F84C3084F824202068B0F8443085
:101B64001A04CAD4F9E61A051ED5B0F8503094F810
:101B7400282200F2064111FA83F304F5866133F852
:101B84003230B4F82E22C3F30903C4F8443202F00D
:101B94007DFB2268138823F070031B051B0D138043
:101BA400204604F091F9D8E71F04D6D5038823F022
:101BB40070031B051B0D0380B0F8503094F82822E5
:101BC40000F2064111FA83F333F83230C3F3090308
:101BD400C4F8443263B1B4F82E22D4F83C1202F0B3
:101BE40055FBD4F83C32D4F844221344C4F83C32B4
:101BF4000021204604F06EF92268D4F83832B2F895
:101C0400501002F2064589B253B96B5A23F440636B
:101C14009B049B0C6FEA43436FEA53436B5207E008
:101C24003D2B11D85808DE0748BF013080026852A6
:101C340013889BB203EA0B0383F4405343F4004339
:101C440043F08003138088E760485B0940EA8323FC
:101C5400E4E73EB230F826901FFA89F919F4004FF0
:101C64003ED030F8263023F070031B051B0D4FEADD
:101C7400471820F8263004EB080191F83432002B81
:101C840057D1B0F8503091F8282200F2064515FAE1
:101C940083F333F83250C5F3090535B1B1F82E2278
:101CA400D1F83C122B4602F0F1FA04EB461304EB94
:101CB4000801D3F844222A44C3F84422D1F83C2230
:101CC4002A44C1F83C22D3F840321BB1D1F838027F
:101CD400854269D2A044204698F8281204F0FAF804
:101CE40019F0800F3FF439AF236833F8262092B2FD
:101CF40002EA0A0223F8262004EB4717B3F850201F
:101D040097F8281003F2024313FA82F304EB461601
:101D140033F83120C2F309027264FB6B97F8281080
:101D24001A44FA63336C2046002B43D104F0DAF8EA
:101D340013E791F8282213B230F8233013F4804FBC
:101D4400B0F8503022D000F2024515FA83F333F88C
:101D54003250C5F3090535B1B1F830222B46D1F81C
:101D64003C1202F093FA04EB0803226893F8281259
:101D740032F821309BB223F4E04323F0700343F4A0
:101D8400004343F0C00322F821308EE700F20645F9
:101D940015FA83F333F83250C5F30905002DE2D068
:101DA4002B46B1F83222DAE791F828122046FFF7E1
:101DB40093FD95E7FFF7B0FDCFE6DFF814A0DFF859
:101DC40014B0CAE6204604F0A5F875E60080FFFFCB
:101DD4000F8FFFFF8FBFFFFF38B5436801F00F057A
:101DE4009D4204462DD811F0800F4FF020031ED0E1
:101DF40000EB451203FB05030121283382F8291067
:101E040001229A701D7094F8281491421BD084F812
:101E140028241946206802F0B7F825B904F586612C
:101E2400206802F036F9002084F8280438BD03FB4A
:101E3400010300EB4111002203F50A7381F8292202
:101E4400DEE7012038BD022038BD38B5436801F013
:101E54000F029A42044627D811F0800F4FF0200158
:101E640001FB02014FEA421319BF1B18283101F587
:101E74000A711B1914BF012000204FF0000514BF84
:101E840083F8290083F829028D700A7094F82834A5
:101E9400012B0BD0012384F82834206802F095F834
:101EA40084F82854284638BD012038BD022038BDA6
:101EB40011F0800F1BBF01F00F0100EB411000EB8C
:101EC4004110283008BF00F50A701AB90273C380A4
:101ED40000207047012203811B0C02734381F7E742
:101EE40002680123C0F86C34B2F858309BB243F056
:101EF4000103A2F85830B2F858309BB243F0020301
:101F0400A2F8583000207047026803460121C0F847
:101F14006814002083F86004B2F854309BB20B4379
:101F2400A2F85430B2F854309BB243F00203A2F842
:101F340054307047024B186800F4C060704700BF0B
:101F440000700040174B1A68B0F5007F02F4C062BD
:101F54001CD1B2F5007F15D01A6822F4C06242F495
:101F640000721A60104A116832224A430F49B2FBC8
:101F7400F1F2194601325869400500D522B94B697E
:101F84005B050DD400207047013AF4E7B2F5806F89
:101F94001FBF1A6822F4C06242F480621A60F1E73B
:101FA40003207047007000406C05002040420F0081
:101FB400024A536843F480635360704700700040E2
:101FC40037B51E4DAB6DDA00044618D5FFF7B2FFE6
:101FD400B0F5007F23D1802C29D9A02C8CBF0220FE
:101FE4000120174A136823F007030343136013689F
:101FF40003F00703181A18BF012003B030BDAB6DFE
:1020040043F08053AB65AB6D03F080530193019BA8
:10201400FFF790FFAB6D23F08053AB65D8E7802CBE
:1020240007D808D0A4F1700358425841D9E70020DA
:10203400D7E70320D5E70220D3E700BF0010024012
:1020440000200240254B9A68D96812F00C0205D092
:102054000C2A15D101F00301012918D1196820486F
:10206400090755BFD3F894101968C1F30321C1F3CC
:10207400031150F8210082B30C2A09D000207047C4
:10208400042A29D0082A174818BF002070470020C6
:10209400D968DA6801F00301C2F30212022902F1DD
:1020A400010205D0032912D0D968C1F3062103E047
:1020B400D9680D48C1F30621DB68B0FBF2F0C3F325
:1020C4004163013348435B00B0FBF3F07047D968C8
:1020D4000448C1F30621EFE70348704700100240AB
:1020E4000863000800127A000024F4002DE9F74385
:1020F400054608B9012046E0A84C0368A668E768CD
:10210400DB0606F00C0607F0030772D51EB10C2E91
:1021140051D1012F4FD12368980702D5AB69002B09
:10212400E8D02368286A190756BFD4F89430236886
:102134001B0903F0F003834228D2FFF741FF002874
:10214400D8D1236843F00803236023682A6A23F064
:10215400F003134323606368EA6923F47F4343EA8B
:1021640002236360FFF76EFFA3688D4AC3F3031372
:10217400D35C03F01F03D8408A4B18600020FEF79D
:10218400ADFC002835D003B0BDE8F083236843F0EC
:1021940008032360236823F0F00303432360636888
:1021A400EA6923F47F4343EA02236360FFF708FFED
:1021B4000028D7D09EE7AB69002B3AD0236843F0C0
:1021C40001032360FEF7BAFC804623689A0728D5EA
:1021D400236843F00803236023682A6A23F0F0038A
:1021E400134323606368EA6923F47F4343EA0223C9
:1021F40063602B68D8072DD42B6899076BD42B68A0
:10220400180700F1A0802B68590700F1CD802B68D6
:10221400990600F13681AB6A002B40F05C81002006
:10222400B1E7FEF78BFCA0EB08000228CDD9032010
:10223400A9E7236823F001032360FEF77FFC8046AF
:1022440023689B07D5D5FEF779FCA0EB080002288C
:10225400F6D9ECE7082E03D00C2E08D1032F06D1B3
:1022640023689A03C8D56B68002BC5D142E76B6815
:10227400B3F5803F10D1236843F480332360FEF725
:102284005DFC804623689B03B6D4FEF757FCA0EBA5
:1022940008006428F6D9CAE7B3F5A02F04D123684F
:1022A40043F480232360E6E7226822F4803222602C
:1022B400226822F480222260002BE0D1FEF73EFC4B
:1022C40080462368980397D5FEF738FCA0EB0800F6
:1022D4006428F6D9ABE7042E03D00C2E10D1022FBC
:1022E4000ED12368590503D5EB68002B3FF402AFE8
:1022F40063682A6923F0FE4343EA026363607EE76E
:10230400EB687BB1236843F480732360FEF716FC0B
:10231400074623685A05EBD4FEF710FCC01B0228BD
:10232400F7D984E7236823F480732360FEF706FC5F
:10233400074623685B057FF562AFFEF7FFFBC01B12
:102344000228F6D973E76B699BB1D4F8943043F053
:102354000103C4F89430FEF7F1FB0746D4F8943037
:102364009A073FF550AFFEF7E9FBC01B0228F5D9E9
:102374005DE7D4F8943023F00103C4F89430FEF7F9
:10238400DDFB0746D4F894309B077FF53CAFFEF79E
:10239400D5FBC01B0228F5D949E700BF0010024055
:1023A400ED6200086C050020A36DD80029D4A36D4C
:1023B40043F08053A365A36D03F080530193019B05
:1023C4004FF00108714F3B68D9051DD5AB68012B4F
:1023D4002BD1D4F8903043F00103C4F89030FEF7C9
:1023E400ADFB41F288390746D4F890309B0742D5BB
:1023F400B8F1000F3FF40BAFA36D23F08053A36536
:1024040005E74FF00008DDE73B6843F480733B6069
:10241400FEF794FB81463B68DA05D7D4FEF78EFBC2
:10242400A0EB09000228F6D901E7052B06D1D4F860
:10243400903043F00403C4F89030CAE7D4F89020F5
:1024440022F00102C4F89020D4F8902022F0040273
:10245400C4F89020002BC2D1FEF770FB41F28839FA
:102464000746D4F890309807C2D5FEF767FBC01B27
:102474004845F6D9DBE6FEF761FBC01B4845B3D9F6
:10248400D5E66B6A9BB1D4F8983043F00103C4F8E5
:102494009830FEF753FB0746D4F898309A073FF577
:1024A400BAAEFEF74BFBC01B0228F5D9BFE6D4F841
:1024B400983023F00103C4F89830FEF73FFB074639
:1024C400D4F898309B077FF5A6AEFEF737FBC01B08
:1024D4000228F5D9ABE60C2E3FF40CAE022B236890
:1024E40023F08073236036D1FEF728FB0646236869
:1024F40098012AD4AB6B6A6BDB0643EA0223EA6ACF
:1025040013432A6B013A43EA0213EA6B5208013A75
:1025140043EA42532A6C5208013A43EA4263E360B5
:10252400236843F080732360E36843F08073E360BF
:10253400FEF704FB0546236899013FF570AEFEF7EC
:10254400FDFA401B0228F6D971E6FEF7F7FA801B64
:102554000228CCD96BE623681A015EBFE36823F036
:102564000303E360E36823F0887323F48033E360B8
:10257400FEF7E4FA054623689B017FF550AEFEF7AB
:10258400DDFA401B0228F6D951E600BF0070004076
:102594002DE9F0410E46044610B90120BDE8F08152
:1025A400404A136803F007038B4229D32368D907F1
:1025B40031D421688A075BD43A4A136803F00703CD
:1025C4009E425DD311F0040F374D64D10B0706D53D
:1025D400AB68226923F4605343EAC203AB60FFF79C
:1025E40031FDAB68314AC3F30313BDE8F041D35C5A
:1025F40003F01F03D8402E4B18600020FEF76EBA7C
:10260400136823F007030B431360136803F00703F5
:102614009942C2D1CAE76268234D032A2B681BD1B1
:1026240013F0007FB9D0AB6823F003031343AB600E
:10263400FEF784FA41F288380746AB68626803F013
:102644000C03B3EB820FB4D0FEF778FAC01B4045FD
:10265400F3D90320BDE8F081022A02D113F4003F2C
:10266400E0E712B913F0020FDCE713F4806FD9E747
:102674000D4AA068936823F0F003034393609BE73B
:10268400136823F0070333431360136803F007034D
:102694009E4282D196E7AB68E26823F4E063134379
:1026A400AB6093E70020024000100240ED62000896
:1026B4006C050020054B064A9B68C3F30223D35CD8
:1026C400044A106803F01F03D8407047001002400A
:1026D400FD6200086C050020054B064A9B68C3F3A5
:1026E400C223D35C044A106803F01F03D840704728
:1026F40000100240FD6200086C050020F8B5444B50
:10270400DA6812F0030F05460E461C46006839D0FD
:10271400DA6802F0030282424BD1002A49D0DB6816
:102724006A68C3F302130133934242D1236823F04E
:1027340080632360FEF702FA074623681A0141D436
:10274400AF68002E45D0012E4FD12269286922F4AA
:10275400C002400822F4FE42013842EA072242EA5B
:1027640040522261236843F080632360FEF7E6F958
:10277400064623681B0145D52369AA6913432361CF
:102784000020F8BD022810D0032814D0012810D14D
:102794001B689F07F5D5E3686A6823F07303013A61
:1027A400184340EA0210E060C0E71B6813F4806F2E
:1027B400F1D10120F8BD1A689103ECD41B6813F41D
:1027C400802FF5E7FEF7BAF9C01B0228B5D903201C
:1027D400F8BD2269E96822F07842C90641EA072374
:1027E40022F4FE4213432361BCE72369686923F0A2
:1027F400C063400823F4FE43013843EA072343EA55
:102804004063F0E7FEF79AF9801B0228B1D9DEE7AE
:10281400001002402DE9F743056815F400650446ED
:102824000ED0C16CB1F5000F53D0B1F5400F55D0A7
:1028340000295ED10430FFF761FF054600284DD022
:1028440023689E0363D5B84EB36DD80040F1608110
:102854000027DFF8D882D8F8003043F48073C8F832
:102864000030FEF76BF98146D8F80030D90542D51F
:10287400002D47D1D6F8903013F4407314D0626E13
:10288400934211D0D6F89030D6F8902042F480329A
:10289400C6F89020D6F8902023F4407322F48032B6
:1028A400C6F89020C6F89030DA0709D5FEF746F945
:1028B40041F288398046D6F890309B0740F1FF807A
:1028C400D6F89030626E23F440731343C6F8903008
:1028D40018E0954AD36843F48033D360924AE16C9C
:1028E400D2F8883023F440030B43C2F88830002523
:1028F400A6E70125A4E7FEF721F9A0EB09000228C9
:10290400B2D903251FB1B36D23F08053B365236897
:10291400DF0708D58449206AD1F8882022F0030211
:102924000243C1F888209E0708D57F49606AD1F820
:10293400882022F00C020243C1F88820580708D5E9
:102944007949A06AD1F8882022F030020243C1F804
:102954008820190708D57449E06AD1F8882022F044
:10296400C0020243C1F888209A0608D56E49206B3C
:10297400D1F8882022F440620243C1F888209F05E0
:1029840008D56949606CD1F8882022F440220243BA
:10299400C1F888205E0508D56349A06CD1F8882069
:1029A40022F440120243C1F88820580608D55E4933
:1029B400606BD1F8882022F440520243C1F8882089
:1029C400190608D55849A06BD1F8882022F4404252
:1029D4000243C1F88820DA0508D55349E06BD1F8E1
:1029E400882022F440320243C1F88820DF0208D54F
:1029F4004D49206CD1F89C2022F003020243C1F817
:102A04009C209E040FD5484A216DD2F8883023F0CB
:102A140040630B43B1F1006FC2F8883057D1D368DB
:102A240043F48013D360236818030FD53E4A616DC5
:102A3400D2F8883023F040630B43B1F1006FC2F841
:102A440088304FD1D36843F48013D360236859038B
:102A54000FD5354AA16DD2F8883023F040630B437B
:102A6400B1F1006FC2F8883047D1D36843F48013C2
:102A7400D36023685A0412D52B49E26DD1F888300B
:102A840023F040531343B2F1805FC1F8883006D17C
:102A94000221201DFFF732FE002818BF05462368D7
:102AA400DB0308D5204A216ED2F8883023F0004396
:102AB4000B43C2F88830284603B0BDE8F083FEF724
:102AC4003DF8A0EB080048457FF6F5AE19E7B1F1F3
:102AD400806FA8D10121201DFFF710FE002818BF28
:102AE4000546A0E7B1F1806FB0D10121201DFFF7A9
:102AF40005FE002818BF0546A8E7B1F1806FB8D1DC
:102B04000121201DFFF7FAFD002818BF0546B0E794
:102B1400B36D43F08053B365B36D03F080530193F9
:102B2400019B012795E600BF0010024000700040A1
:102B3400036A23F001030362036A70B5456882697E
:102B44000C6822F4803222F0730222438C6823F052
:102B540002032343124CA04206D0124EB04203D0CB
:102B640006F58066B04214D1CE6823F008033343DF
:102B7400A04223F0040306D00A4CA04203D004F57B
:102B84008064A04205D14C698E6925F440753443B4
:102B94002543456082614A684263036270BD00BF99
:102BA400002C014000400140036A23F48073036257
:102BB400036A426870B5C4690D6824F4803424F053
:102BC40073042C438D6823F4007343EA05230F4DEB
:102BD400A8420ED1CD6823F4006343EA052323F40D
:102BE40080634D698E6922F44052354342EA0512EE
:102BF40005E0074DA842F4D0064DA842F1D042604A
:102C04004A68C461C263036270BD00BF002C014006
:102C14000040014000440140036A23F480530362EE
:102C2400026A30B54468C3690D6823F0807323F4E5
:102C3400E64343EA05238D6822F4005242EA053252
:102C44000A4DA84207D005F5A055A84203D005F5C2
:102C54008065A84204D14D6924F4804444EA851473
:102C64004460C3614B680364026230BD002C0140C0
:102C7400036A23F480330362026A30B54468436D07
:102C84000D6823F4803323F070032B438D6822F402
:102C9400003242EA05420B4DA84207D005F5A05583
:102CA400A84203D005F58065A84204D14D6924F4F7
:102CB400803444EA0524446043654B6883650262BA
:102CC40030BD00BF002C0140036A23F4801303626B
:102CD400026A30B54468436D0D6823F0807323F4B1
:102CE400E04343EA05238D6822F4001242EA0552C8
:102CF4000A4DA84207D005F5A055A84203D005F512
:102D04008065A84204D14D6924F4802444EA8524D2
:102D1400446043654B68C365026230BD002C0140CA
:102D2400704770477047704703681A69910710B578
:102D340004460FD5DA6892070CD56FF002021A61C7
:102D44009B6901229907027700F08580FFF7E9FF6C
:102D54000023237723681A69520710D5DA685007CD
:102D64000DD56FF004021A619B69022213F4407FAF
:102D74002277204675D0FFF7D4FF002323772368FA
:102D84001A6911070FD5DA6812070CD56FF008021B
:102D94001A61DB6904229B072277204667D0FFF77C
:102DA400C0FF0023237723681A69D00610D5DA6898
:102DB400D1060DD56FF010021A61DB69082213F4F5
:102DC400407F2277204658D0FFF7ABFF00232377BC
:102DD40023681A69D20708D5DA68D00705D56FF0D9
:102DE40001021A612046FDF7EBFB23681A691106FC
:102DF40008D5DA68120605D56FF080021A612046FC
:102E040000F0C5FB23681A69D00508D5DA681106F5
:102E140005D56FF480721A61204600F0B9FB23686F
:102E24001A69520608D5DA68500605D56FF04002D3
:102E34001A612046FFF777FF23681A69910622D5A5
:102E4400DA6892061FD56FF0200220461A61BDE8A9
:102E5400104000F09BBBFFF763FF2046FFF762FFC3
:102E640076E7FFF75DFF2046FFF75CFF85E7FFF796
:102E740057FF2046FFF756FF93E7FFF751FF204621
:102E8400FFF750FFA2E710BD1D4A0368904210B53A
:102E940005D0B0F1804F02D01A4CA0420CD14C683E
:102EA40023F07003904243EA04030CD0B0F1804F46
:102EB40009D0144A904206D0134A904203D002F536
:102EC4008062904203D1CA6823F4407313434A6971
:102ED40023F08003134303608B68C3620B6883622F
:102EE400074B984207D003F5A053984203D003F54B
:102EF4008063984201D10B6903630123436110BDD0
:102F0400002C0140000400400040014010B504467C
:102F1400A0B190F83D3003F0FF021BB980F83C20CB
:102F240002F0DEFC022384F83D302068211DFFF707
:102F3400ABFF012384F83D30002010BD012010BDFB
:102F440010B50446A0B190F83D3003F0FF021BB960
:102F540080F83C2002F02CFC022384F83D302068E9
:102F6400211DFFF791FF012384F83D30002010BD9F
:102F7400012010BD10B50446A0B190F83D3003F017
:102F8400FF021BB980F83C2002F048FC022384F8BD
:102F94003D302068211DFFF777FF012384F83D3081
:102FA400002010BD012010BD036A23F0100303624A
:102FB400036A426870B584690D6824F0807424F44F
:102FC400E64444EA05248D6823F0200343EA05130C
:102FD4000E4DA8420ED1CD6823F0800343EA0513B9
:102FE40023F040034D698E6922F44062354342EA7E
:102FF400850205E0064DA842F4D0064DA842F1D062
:1030040042604A6884618263036270BD002C01409F
:10301400004001400044014038B590F83C30012B99
:1030240004464FF0020010D00123082A84F83C30F3
:1030340084F83D0043D009D8FAB1042A2ED00123E4
:10304400002084F83D3084F83C0038BD102A47D075
:10305400142A56D00C2AF2D12068FFF7DDFD23682C
:103064000969DA6942F40062DA61DA6922F4806299
:10307400DA61DA6942EA012230E02068FFF758FD9C
:10308400236809699A6942F008029A619A6922F0F0
:1030940004029A619A690A439A61D0E72068FFF7AB
:1030A40083FF236809699A6942F400629A619A6904
:1030B40022F480629A619A6942EA0122ECE720686C
:1030C400FFF772FD23680969DA6942F00802DA61E0
:1030D400DA6922F00402DA61DA690A43DA61AEE7F6
:1030E4002068FFF7C5FD236809695A6D42F008029C
:1030F4005A655A6D22F004025A655A6D0A435A659C
:103104009DE72068FFF7E0FD236809695A6D42F4E2
:1031140000625A655A6D22F480625A655A6D42EA19
:103124000122ECE770B5046A124E24F00104046233
:10313400B0428469056A0AD0B0F1804F07D0A6F581
:103144009436B04203D006F59E36B0420FD124F037
:10315400030422431B0122F0F002DBB225F00A052E
:1031640001F00A011A4329438261016270BD44F0EF
:103174000102EFE7002C0140F8B590F83C30012B38
:1031840004460D464FF0020019D0012384F83C3068
:1031940084F83D00A2B9CB68206806C9FFF7C2FFD6
:1031A4002368A9689A6922F00C029A619A690A4311
:1031B4009A610123002084F83D3084F83C00F8BD76
:1031C400042A8E682368E86882C91FD11A6A22F02B
:1031D40010021A629A691D6A22F4407242EA0722B6
:1031E400000380B222F470420901024301F0A001FD
:1031F40025F0A00001439A6119629A6922F44062A1
:103204009A619A6942EA06269E61D2E7082A1A6AF6
:103214001CD122F480721A62DA691D6A22F0030258
:103224003A430001C0B222F0F0020902024301F461
:10323400206125F420600143DA611962DA6922F021
:103244000C02DA61DA691643DE61B2E722F48052D5
:103254001A62DA691D6A22F4407242EA0722000304
:1032640022F4704280B20903104301F4204125F492
:1032740020421143D8611962DA6922F44062DA61AA
:10328400DA6942EA0626DFE710B584680A4324F4C3
:103294007F4442EA03232343836010BD90F83C300B
:1032A400012B70B504464FF0020017D084F83D009E
:1032B4002068012384F83C308268484B13408360C3
:1032C4000B68402B72D015D8102B0CD007D853B1F3
:1032D4000123002084F83D3084F83C0070BD202B8D
:1032E40001D0302BF4D1826843F0070322F070023E
:1032F400134333E0702B33D01BD8502B3FD0602BBB
:10330400E6D14D68CE68016A21F01001016282693C
:10331400036A22F4704223F0A00343EA051342EA4D
:10332400063282610362836823F0700343F067030B
:1033340014E0B3F5805F0CD0B3F5005FC8D1CB685F
:103344004A688968FFF7A0FF2268936843F48043C2
:1033540013E0836823F4803323F007038360B7E723
:10336400CB684A688968FFF78FFF2268936823F463
:10337400803323F0770343F077039360A8E74A6828
:10338400CE68016A056A25F001050562836921F0AA
:103394000A0123F0F00343EA06130A43836102623D
:1033A400836823F0700343F05703D7E74A68CE6875
:1033B400016A056A25F001050562836921F00A01A5
:1033C40023F0F00343EA06130A438361026283682D
:1033D40023F0700343F04703C0E700BF8800FEFFFB
:1033E400036A01F01F0110B501248C4023EA040391
:1033F4000362036A8A401A43026210BD10B5044690
:1034040001220068FFF7ECFF2368104A934217D0AB
:1034140002F5A052934213D002F5806293420FD07A
:1034240099680B480140062908D09A680240B2F511
:10343400803F03D01A6842F001021A60002010BDD8
:103444005A6C42F400425A64EAE700BF002C01407F
:103454000700010010B5044600220068FFF7C0FF12
:103464002368164A934207D002F5A052934203D030
:1034740002F5806293420DD1196A41F21112114290
:1034840008D1196A40F24442114202BF5A6C22F434
:1034940000425A64196A41F21112114208D1196AA0
:1034A40040F24442114203D11A6822F001021A6028
:1034B400012384F83D30002010BD00BF002C0140E2
:1034C40090F83C30012B30B54FF002031BD002685A
:1034D4000E4D80F83D3053689468AA4202BF4D688F
:1034E40023F470032B430D68896823F070032B4386
:1034F40024F08004536021430123916080F83D301F
:10350400002380F83C30184630BD00BF002C014039
:1035140090F83C30012B10B534D0CB688A681A4C33
:1035240023F4407313434A6823F4806313430A6803
:1035340023F4006313430A6923F4805313434A6951
:1035440023F4005313438A6A23F4804313438A69A0
:1035540023F4702343EA02430268A2420CD14C6A6A
:1035640023F4700343EA0453CC69096A23F080739B
:10357400234323F000730B435364002380F83C304F
:10358400184610BD022010BD002C01407047704742
:10359400704700000268C169F8B504468368006991
:1035A4001568034360690343AF480B432840034352
:1035B40013605368E06823F4405303435360AB4BF8
:1035C400A0699A421CBF236A1843936823F43063AA
:1035D40003439360A64B9A4218D103F55843A54A76
:1035E400D3F8883003F00303B1F5004FD35C40F007
:1035F4002381082B77D8DFE813F00001B300E20041
:1036040076001C0176007600760036009A4B9A42CA
:1036140007D103F5E633994AD3F8883003F00C0355
:10362400E2E7974B9A4223D103F5E433D3F8883089
:1036340003F03003102B00F0F9800BD8002B00F0BE
:10364400D980B1F5004F4FF001024FF0000300F0B4
:10365400DE8091E0202B00F0AF80302BF1D1B1F56A
:10366400004F40F0A1806068430803F58033ACE06C
:10367400844B9A421CD103F5E233D3F8883003F02B
:10368400C003402B00F0AF8006D8002B00F0A080D0
:10369400764B9A42D5D126E0802B00F08A80C02B4D
:1036A400F6D1724B9A42DAD14FF40040082315E068
:1036B4006E4B9A42C5D103F5C833D3F8883003F46E
:1036C4004063B3F5806F00F08E80DED9B3F5006FF0
:1036D4006FD0B3F5406FE3E76B480223626802EBF7
:1036E4004201814205D90122002323666366104604
:1036F400F8BDB0EB023FF6D8082B2ED8DFE803F074
:10370400052D1C2D242D2D2D2700FEF7D3FF6268D7
:103714004FF4807156080027E1FB00670023304610
:103724003946FCF755FD0022584BA0F540719942EB
:10373400D9D82368D860D7E7554855080023002115
:10374400401941F10001ECE7FEF77CFCDFE750088B
:103754000021002310F50000F3E701220020E3E735
:10376400FEF7BAFF4BE0FEF7A5FF626800EB5203D9
:10377400B3FBF2F39BB20022A3F110004FF6EF71FA
:103784008842B0D82168CB60AEE7FEF7A5FFECE72E
:103794006068430803F5740303F51053B3FBF0F3B7
:1037A400E8E7FEF74FFCE0E76068430803F50043F1
:1037B400F4E72E4B9A428FD0B1F5004FE8D1606800
:1037C400430803F1F47303F59043B3FBF0F31CE0F7
:1037D400264B9A420ED1FEF76DFF002300287FF49A
:1037E4007DAF024680E7214B9A421FD1FEF72AFCA7
:1037F4000423F3E7B1F5004FB5D1FEF75BFF616831
:103804004A0802EB4003B3FBF1F39BB20022A3F19D
:1038140010004FF6EF7188423FF665AF23F00F01B9
:103824002068C3F342030B43C3605DE7B1F5004F67
:10383400B7D1FEF707FCE2E7082B3FF654AF01A22D
:1038440052F823F06B3700088F37000895370008CB
:10385400EB360008A7370008EB360008EB36000803
:10386400EB360008AD370008F369FFEF0080004035
:1038740000380140DC62000800440040E0620008B7
:1038840000480040004C00400024F400FFFC0F00FE
:10389400000024F4436ADA0710B506D50168846A87
:1038A4004A6822F4003222434A609C0706D5016824
:1038B400C46A4A6822F4803222434A60590706D512
:1038C4000168046B4A6822F4802222434A601A0782
:1038D40006D50168446B4A6822F4004222434A60D8
:1038E400DC0606D50168846B8A6822F48052224380
:1038F4008A60990606D50168C46B8A6822F400526E
:1039040022438A605A060FD50168046C4A6822F47F
:1039140080122243B4F5801F4A6005D14A68446C82
:1039240022F4C00222434A601B0606D50268816C59
:10393400536823F400230B43536010BD2DE9F04179
:10394400069D04460F46164698462168CA6937EA1A
:1039540002030CBF01220022B24202D00020BDE8C3
:10396400F0816B1CF2D09DB923681A6822F4D072DE
:103974001A609A6822F001029A60202384F8713058
:1039840084F87230002384F870300320BDE8F0819D
:10399400FDF7D4F8A0EB08008542D6D2E4E773B56E
:1039A400044600264667FDF7C9F823681B681A0712
:1039B400054617D423681B685B070AD56FF07E435E
:1039C400009300222B464FF480012046FFF7B6FFF8
:1039D400A0B92023002084F8713084F8700084F8A2
:1039E40072300CE06FF07E430093324603464FF48E
:1039F40000112046FFF7A2FF0028DBD0032002B00D
:103A040070BD10B5044660B390F8713003F0FF0246
:103A14001BB980F8702002F047F92268242384F847
:103A24007130136823F0010313602046FFF7B2FDE1
:103A3400012816D0636A13B12046FFF72BFF2368D1
:103A44005A6822F490425A609A6822F02A029A60D4
:103A54001A6842F0010220461A60BDE81040FFF7E0
:103A64009EBF012010BD84B001A880E80E0004B000
:103A740000207047B0F840309BB243F43F4343F01A
:103A84008003A0F8403000207047B0F8403023F4A1
:103A94007E535B045B0CA0F840300020704700208C
:103AA400704784B010B503AC84E80E0000220123F3
:103AB400A0F84030A0F84020A0F84420A0F85020FE
:103AC400B0F84030BDE810409BB243F43F4343F0AC
:103AD4008003A0F8403004B010467047F0B50C786D
:103AE40030F8242022F4EC42034622F07002C87815
:103AF4001204120C032850D8DFE800F0024C0449E9
:103B040042F40072002023F824200E78AB4C35B226
:103B140033F8252092B22240324342F4004242F06C
:103B2400800223F825200D7B0A78002D40F0828046
:103B34004F78CE88082597B3B3F8507015FB02323E
:103B440012FA87F226F00106A2F800640D7833F821
:103B54002520560609D533F8252092B2144044F4A2
:103B6400004444F0C00423F82540CA780978944CF2
:103B740009B2012A33F8212092B202EA040201D0E8
:103B840082F0200242F4004242F08002C5E042F496
:103B9400C062B7E742F48062B4E70120B3E7B3F848
:103BA400504015FB023212FA84F226F00106A2F804
:103BB40004640A78B3F850600C6915FB0232B6B29B
:103BC40002F2064254B9945B24F44064A404A40CA5
:103BD4006FEA44446FEA5444945307E03D2C24D8DC
:103BE4006508E40748BF0135AD0295530C7833F8F6
:103BF400242052040DD533F8242022F4E04222F08C
:103C040070021204120C42F4404242F0800223F883
:103C14002420097833F8212022F4804222F0700213
:103C24001204120C82F44052ACE7664D640945EA72
:103C34008424D1E712B233F82250ADB2254045F4C2
:103C4400014545F0800523F822500E78B3F8505012
:103C5400082212FB063616FA85F50E8926F00106AF
:103C6400A5F800640E78B3F8505012FB063212FA2D
:103C740085F24D8925F00105A2F804540A784D789F
:103C840012B2002D4CD133F822506F0409D533F809
:103C94002250ADB22C4044F4404444F0800423F854
:103CA40022400C7833F8242056060DD533F824200E
:103CB40022F4E04222F070021204120C42F4004298
:103CC40042F0C00223F824200C7833F8242022F494
:103CD400E04222F070021204120C42F4004242F05C
:103CE400C00223F824200D7833F8252022F48042E2
:103CF40022F070021204120C48F2800482F4405242
:103D0400224323F82520097833F8212022F4E042C5
:103D140022F040021204120C224323F82120F0BDA9
:103D240033F822506D0409D533F82250ADB22C403B
:103D340044F4404444F0800423F822400C7833F8DF
:103D4400242052060DD533F8242022F4E04222F038
:103D540070021204120C42F4004242F0C00223F832
:103D640024200C78164D33F8242022F4E04222F06B
:103D740070021204120C42F4404242F0800223F812
:103D840024200C78CA7824B2012A33F8242092B271
:103D940002EA050218BF82F0200242F4004242F017
:103DA400800223F82420097833F8212022F4804269
:103DB40022F070021204120CE4E600BF8F8FFFFFA2
:103DC400BF8FFFFF0080FFFF10B50B780C7B4A7894
:103DD4001BB2002C3DD112B330F8232052060DD56E
:103DE40030F8232022F4E04222F070021204120C74
:103DF40042F4004242F0C00220F823200A7830F84E
:103E0400223023F4E04323F040031B041B0C43F44F
:103E1400004343F0800320F82230002010BD30F826
:103E2400232054040DD530F8232022F4E04222F05C
:103E340070021204120C42F4404242F0800220F854
:103E440023200A7830F8223023F4804323F07003CF
:103E5400DBE7002A4ED130F8232052040DD530F888
:103E6400232022F4E04222F070021204120C42F4E5
:103E7400404242F0800220F823200A7830F82230B1
:103E84005C060DD530F8223023F4E04323F07003B0
:103E94001B041B0C43F4004343F0C00320F82230FE
:103EA4000A7830F8223023F4E04323F070031B0433
:103EB4001B0C43F4004343F0C00320F822300C7879
:103EC40030F8243023F4804323F070031B041B0CCC
:103ED40048F28002134320F82430097830F8213066
:103EE40023F4E04323F040031B041B0C134320F88A
:103EF400213092E730F8232052040DD530F82320E6
:103F040022F4E04222F070021204120C42F4404205
:103F140042F0800220F823200A7830F822305B0631
:103F24000DD530F8223023F4E04323F070031B0452
:103F34001B0C43F4004343F0C00320F822300A78FA
:103F440030F8223023F4E04323F070031B041B0CED
:103F540043F4404343F0800320F822300C7830F8D7
:103F6400243023F4E04323F040031B041B0C48F2E9
:103F74008002134320F82430097830F8213023F4E8
:103F8400804323F07003AFE70A784B7812B28BB109
:103F940030F8223023F4E04323F040031B041B0CCD
:103FA40083F0100343F4004343F0800320F82230ED
:103FB4000020704730F8223023F4804323F070034C
:103FC4001B041B0C83F48053ECE70A784B7812B281
:103FD40023B330F822305B060DD530F8223023F4B9
:103FE400E04323F070031B041B0C43F4004343F031
:103FF400C00320F822300A7830F8223023F4E0435A
:1040040023F040031B041B0C83F0300343F40043F0
:1040140043F0800320F822300020704730F822302B
:104024005B040DD530F8223023F4E04323F0700311
:104034001B041B0C43F4404343F0800320F822305C
:104044000A7830F8223023F4804323F070031B04F1
:104054001B0C83F44053D9E711B98023A0F84C30EA
:1040640000207047B0F858306FEA43436FEA534377
:104074009BB2A0F8583000207047B0F85830C3F312
:104084000E03A0F8583000207047B0F8440080B206
:1040940070470020704710B502F580620133104468
:1040A40023F0010302460344141A9A420C4400D13B
:1040B40010BD248822F8024BF6E70000F8B5044648
:1040C40048788A690B690F7B01280D466BD19A42A7
:1040D40097BF0023D21A8B61134688BF8A619EB2B0
:1040E4000FBBCA88496933462046FFF7D4FFB4F8AA
:1040F40050302A7804F2024111FA83F323F8326033
:104104002A7834F8223023F4E04323F040031B04DC
:104114001B0C83F0300343F4004343F0800324F882
:1041240022300020F8BD09780AB234F8222012F0B7
:10413400400FB4F8502015BF04F2064004F20240C8
:1041440010FA82F210FA82F215BF22F8313022F806
:1041540031306A892A89696933462046FFF79BFF13
:104164006B782A787BB912B234F8223023F4E04316
:1041740023F070031B041B0C43F4004343F0C003FF
:1041840024F82230BCE7012BBAD112B234F8223021
:1041940023F4E04323F070031B041B0C43F440435B
:1041A40043F08003ECE79A4295BF0023D21A8B6157
:1041B4008A6198BF13460978A7B9B4F8502004F26D
:1041C400064010FA82F202EBC102002B37D11388A9
:1041D40023F440639B049B0C6FEA43436FEA53430D
:1041E400138034E090B9B4F8502004F2024010FA7D
:1041F40082F202EBC102ABB9118821F44061890457
:10420400890C6FEA41416FEA514111806A7828783C
:1042140072BBB4F8502004F2064111FA82F202EBA8
:10422400C002D2E73D2B05D85908D80748BF013151
:104234008902EAE71448590940EA8121E5E73D2B60
:1042440011D85908DB0748BF0131890211802A7847
:1042540034F8223023F4804323F070031B041B0C36
:1042640083F4405357E75909074B43EA8123B7E7DF
:10427400012A01BFB4F8501004F2064212FA81F187
:1042840021F83030E3E700BF0080FFFF02F58062D1
:10429400F0B510445D080A4607462E46023236B988
:1042A400DB0744BF30F8153001F81530F0BD37F89E
:1042B400024B02F8024C240A02F8014C013EEDE7DD
:1042C4004165704738B505780446C5B90189406829
:1042D40000F09EFF23696269A16965701A44B4F80D
:1042E4004830256201FB03234FF47A7293FBF2F307
:1042F400E2691344E3610023A4F8503038BD012D72
:10430400F9D1002380F82430036343630364F2E7A4
:10431400036A002BC4BF03F1FF33036270470378C1
:1043240010B50446FBB9C36CEBB1C369182BDCBFF1
:104334001923C36103695F2BDCBF602303614369F5
:1043440001690B2BDCBF0C234361002380F853303D
:1043540002234370C06801F01DFC21896068BDE838
:10436400104000F065BF10BD037810B504463BB99A
:104374004378BBB1036A1BB9FFF7D1FFE36923623A
:1043840094F8533073B1002384F8533023783BB945
:1043940084F85830636D2BB12046BDE810401847AF
:1043A4000123F5E710BD03780BB90123437070476F
:1043B40038B50578012D044604D1406C01F00AFD9E
:1043C40084F8245038BD437810B50446002B30D00F
:1043D400022B0AD10189406800F01AFF6169E06884
:1043E40001F0D8FB0323637010BD032B1AD1002303
:1043F400A0F85030436C81691A6822F080021A6078
:1044040090F852201A8541B91A68C06842F08002B7
:104414001A6001F0DDFB0123E5E7C06801F0BAFB97
:104424000523E0E7052B01BF426C136843F08003CA
:10443400136010BD38B5436CDA691206044634D5EE
:10444400DA69417822F08002DA6171B301F0FB0588
:10445400012D2AD1B0F85020B0F84800904217D965
:10446400186820F080001860E06C0529805C1885CD
:1044740002F10102A4F8502005D1A169E068BDE869
:10448400384001F087BB1A6842F080021A6038BDD8
:104494000022A4F850201A68E06822F080021A6012
:1044A400657001F095FB84F8535038BD426C10B52B
:1044B400D469A10638D5230748BF136A90F824109D
:1044C40044BF43F008031362938C9BB261B3A40707
:1044D4000CD5136A43F00203136200230322A0F8ED
:1044E400503080F8242080F8533010BD0329DBB20B
:1044F40005D1042280F8242080F8523010BD04290C
:1045040012D1B0F85020C16C8B54B0F85030B0F8D0
:10451400482001339BB29A42A0F850309EBF012339
:1045240080F8533080F8243010BDC1607047C368F0
:1045340013B14368DB0803617047F8B50D460E8874
:10454400044600284CD0084600F0E4F80746F0B9C9
:10455400A989B5F804E0A8684B1C9BB2734528BF31
:1045640000235A1C92B2964598BF002210F801C04D
:1045740094F804E0E6450BD110F803E0835C22884C
:1045840043EA0E239A4203D12980012700E0002741
:104594002946207900F08AF820882946000A00F08C
:1045A40085F82946207800F081F82946E07800F063
:1045B4007DF82946A07800F079F82946E07900F0E2
:1045C40075F82946A07900F071F82946607900F061
:1045D4006DF8032801D12E80F8BD17B9AE81F8BD5E
:1045E400FCE7F8BD0388C3F30E030380FFF7A5BF00
:1045F40003886FEA43436FEA53430380FFF79DBF89
:1046040073B502AD002305F8013D044628460E4665
:1046140000F068F89DF8073023713146284600F011
:1046240061F89DF80720238843EA0223238031465A
:10463400284600F057F822889DF80730134323805A
:104644003146284600F04EF89DF80720638843EA77
:10465400022363803146284600F044F862889DF8BE
:104664000730134363803146284600F03BF89DF839
:104674000720E38843EA0223E3803146284600F01A
:1046840031F8E2889DF807301343E3803146284629
:1046940000F028F89DF80730637101280CBF20460C
:1046A400002002B070BD0088C00B70478B6830B525
:1046B400A3B10A884D88541CAC4211D015B98D8819
:1046C400AC420DD098540B888A8801339BB29A422D
:1046D4000B8001D800230B80012030BD184630BD6B
:1046E400032030BD8B6810B583B14A880C8894428E
:1046F4000ED09B5C03704B888A8801339BB29A422C
:104704004B8001D800234B80012010BD184610BDFA
:10471400022010BD42880088131A5842584170473D
:10472400D0F8943210B5D0F890425BB194F80002FE
:10473400FF2807D09B6894F8012221469847FF235D
:1047440084F80032002010BD4323038000487047E2
:10475400940400204323038000487047D8040020B9
:104764004323038000487047280500200A23038060
:10477400004870471C05002038B50546D0F8904223
:1047840001F0B4FCD5F89032C4F80C024BB1D5F862
:104794009432D4F80402DB6804F5037198470020CE
:1047A40038BD022038BDF8B5D0F89062CEB11423DC
:1047B40003FB0103DA6982B1D0F8984204EB411497
:1047C400A56BB2FBF5F405FB142434B9DC61224675
:1047D400234601F06FFC2046F8BD0020C6F8140201
:1047E400F8BD0220F8BD2DE9F7430A78D0F890729D
:1047F4004FF0000812F0600405460E468DF805805F
:10480400ADF8068028D0202C47D1CC884B78E4B171
:10481400120611D5D0F894223946D2F808901846D9
:104824002246C847F2883946284600F027FC444609
:10483400204603B0BDE8F08387F8003287F80142D0
:104844002246394600F02FFCF1E7D0F894221846AE
:1048540095682246A847EBE74F780A2F0DD00B2F17
:1048640015D0D7B990F87432032B14D102220DF16C
:10487400060100F003FC3C46DAE790F87432032B9F
:1048840009D101220DF1050100F0F8FBD0E790F801
:104894007432032BCCD03146284600F0C8FB0224E6
:1048A400C6E738B504460025812101F0BBFB012190
:1048B400E562204601F0B6FBC4F858518221204637
:1048C40001F0B0FBD4F8903225644BB1D4F89432A3
:1048D4005B689847D4F8900201F036FCC4F8905213
:1048E400002038BD037C2DE9F0410446CBBB4FF4D6
:1048F400007302228121012501F084FBE5624FF45B
:10490400007329460222204601F07CFBC4F858516A
:104914000823032282212046012501F073FB25642C
:104924004FF4077001F00CFC0646C4F8900258B32B
:10493400D4F894321B68984794F810800027C6F87E
:104944001472C6F81872B8F1000F13D14FF4007343
:10495400D6F804222946204601F0BAFB4046BDE8B9
:10496400F081402302228121012501F04BFBE56205
:104974004023C6E74023D6F804222946204601F006
:10498400A7FB3846BDE8F0812846BDE8F08119B19F
:10499400C0F894120020704702207047D0F890327B
:1049A4000020C3F80812C3F810227047D0F89032E0
:1049B4000020C3F804127047D0F8902210B562B1F9
:1049C400047C44B94FF40073D2F80422012101F0AD
:1049D4007FFB002010BD4023F6E7022010BD08B580
:1049E40080B1D0F88C3213B10023C0F88C3209B1F5
:1049F400C0F88812012380F87432027001F0AEFA14
:104A0400002008BD022008BD19B1C0F88C12002096
:104A140070470220704708B501F0E6FA002008BD8F
:104A240008B5D0F88C320BB9022008BD1B68984732
:104A34000028F9D108BD08B5D0F88C325B689847D6
:104A4400002008BD38B5044600F52075284600F05E
:104A5400DAFA012394F88012C4F86C32B4F886327E
:104A6400C4F8703201F01F03012B0ED007D3022BC0
:104A740010D001F08001204601F0E2FA03E029465B
:104A8400204600F0F1F8002038BD2946204600F009
:104A94000DFAF8E72946204600F02DFAF3E770B541
:104AA4000546164639BBD0F86C32032B1ED1D0F81C
:104AB4004C31D0F8502193420BD99B1A9A42C0F83A
:104AC4004C318CBF9AB292B2314600F0FBFA00200E
:104AD40070BDD0F88C321B6923B190F87422032A7C
:104AE40000D19847284600F0F5FAF0E7052BEED1FF
:104AF40001F0A6FAEBE7D0F88C329B692BB190F861
:104B04007422032A01D19847E1E7022070BD70B5F1
:104B1400134604460E46002948D1D0F86C22022AD6
:104B24003DD1056A426A954214D9AA1A026219460D
:104B340092B200F0B0FA33461A461946204601F004
:104B4400C7FA94F87832012B4FF000003AD184F878
:104B5400780270BDC369B3FBF2F502FB153565B984
:104B64009A420AD8D0F87022934206D22A4600F01C
:104B740092FAC4F870522B46DEE7D4F88C32DB6824
:104B84002BB194F87422032A01D12046984780213E
:104B9400204601F055FA204600F0A7FAD1E732F09A
:104BA4000403CED1802101F04BFACAE7D0F88C324D
:104BB4005B6933B190F87422032A02D1984700202C
:104BC40070BD022070BD70B5002204461146012557
:104BD4004026402301F016FA33468021C4F844519C
:104BE400C4F850610022204601F00CFAD4F8903247
:104BF400A5610021666284F87452C4F86C12616085
:104C0400C4F87C1223B1D4F88C3220465B689847F0
:104C1400002070BD01740020704790F8743280F851
:104C24007532042380F874320020704790F875328E
:104C340080F874320020704708B590F87422032A73
:104C440004D1D0F88C32DB6903B19847002008BD49
:104C540010B58021044601F0F3F920460021BDE897
:104C6400104001F0EDB9000037B50B7803F0600394
:104C7400202B04460D4614D0402B12D0002B40F0BC
:104C840095804B78092B00F29080DFE813F0E70061
:104C940001018E00FA008E00820013008E00D20003
:104CA400A000D4F88C3229469B68204698470020FF
:104CB40003B030BD4B881A0A013A0E2A75D8DFE8D2
:104CC40002F02428357474555E74747474747474A6
:104CD4000800D0F88832DB69207C0DF10601984782
:104CE400BDF8062052B1EB8843B19A4228BF1A4658
:104CF40001462046ADF8062000F0C0F9EB88002BF1
:104D0400D5D1204600F0E6F9D1E7D0F888321B6807
:104D1400E2E7027CD0F88C3232B99B6A0DF10600CE
:104D2400984702234370DBE7DB6AF7E7DBB2052B26
:104D34003BD8DFE803F003070B0F1317D0F88832D2
:104D44005B68C9E7D0F888329B68C5E7D0F8883239
:104D5400DB68C1E7D0F888321B69BDE7D0F8883238
:104D64005B69B9E7D0F888329B69B5E7037CE3B99E
:104D7400D0F88C320DF106005B6B9847B0E7037CEA
:104D84009BB9D0F88C320DF106001B6B98470723B2
:104D9400C8E78B884BB9CB883BB94D887F2D04D8A5
:104DA40090F87432032BE9B203D12046FFF750FF89
:104DB4007DE780F8761201F06FF9204600F08AF959
:104DC4001DB1022384F8743271E70123FAE789786C
:104DD400354D01292970E8D890F87432022B08D097
:104DE400032B14D0FFF734FF29782046FFF723FE66
:104DF4005DE7002985D001210323416080F87432E6
:104E04002046FFF70DFE02287FF47BAFCDE731B9D2
:104E1400022380F874324160FFF70DFE71E74168A8
:104E240001293FF46EAFC9B2FFF705FE297861602E
:104E3400E6E7CA88012AB8D190F87432002BB4D0BE
:104E4400022B03D9032BB0D1011D03E0014600233B
:104E540041F8083F204600F011F928E790F8743231
:104E6400013B022BA1D8CB88022B9ED10123C36026
:104E7400D0F87C320BB10323C360022204F10C018D
:104E8400E8E74B88012B7FF412AFC4F87C3238E793
:104E940090F87432013B022B87D84B88012B7FF4A6
:104EA40006AF0023F1E700BFE613002038B50B7806
:104EB40003F06003202B04460D4602D0402B00D0A3
:104EC400B3B994F87432013B022B10D82B79012B1F
:104ED4000DD8D4F88C3229469B6820469847EB8835
:104EE4001BB910B9204600F0F5F8002038BD204663
:104EF400FFF7AEFEF9E738B50A7802F06002202A1F
:104F040004460B4613D0402A11D06AB95D788A88CA
:104F1400012DD1B21FD035D3032D05D190F87422C1
:104F2400022A26D0032A0AD0FFF792FE05E0D4F81D
:104F34008C221946926820469047002038BD5A8832
:104F44002AB94A0603D0DB880BB901F079F8204668
:104F540000F0C0F8F1E790F87422022A09D0032A7D
:104F6400E2D15B88002BE8D14D06F0D001F076F851
:104F7400EDE74B0617D001F063F88021204601F0DD
:104F84005FF8DAE790F87432022B0ED0032BCBD102
:104F940012F0800F4FF0140301F00F0203FB020222
:104FA40012D09269DAB92046BEE74906FBD113064E
:104FB4004CBF00F1140100F5A07100230B60022224
:104FC400204600F05BF8B8E7D2F84421002AEAD082
:104FD40001F07F0503FB050505F5A07504E001F06C
:104FE4007F0505FB0335054411F07F0303D12B60D6
:104FF40002222946E4E7204601F03EF808B10123E5
:10500400F5E72860F4E70B7803704B784370CA78AF
:105014008B7803EB022343804A790B7903EB022359
:105024008380CA798B7903EB0223C380704710B560
:105034008021044601F004F820460021BDE8104018
:1050440000F0FEBF30B588B105462B1A15F8014BA8
:10505400DBB2002CF9D101335B0013800B70032306
:105064004B700138022310F8015F05B930BD5A1C9A
:10507400D2B2CD540233DBB28C54F4E710B51346EC
:105084000222C0F86C22C3610A460362002101F0C7
:1050940011F8002010BD08B513460A46002101F09E
:1050A40009F8002008BD10B513460322C0F86C228D
:1050B400C0F848310A46C0F84C31002101F008F824
:1050C400002010BD08B513460A46002101F000F87F
:1050D400002008BD08B50423C0F86C3200231A462A
:1050E400194600F0E7FF002008BD08B50523C0F805
:1050F4006C3200231A46194600F0EAFF002008BD6E
:1051040070B514228AB00DEB0200002101F0CCF836
:105114003C4B3D4EDA6C42F08002DA64DA6C02F009
:1051240080020092009ADA6C42F00402DA64DA6CCB
:1051340002F004020192019ADA6C42F00102DA648C
:10514400DA6C02F001020292029ADA6C42F0020274
:10515400DA64DA6C02F002020392039ADA6C42F027
:105164000802DA64DB6C03F008030493304600227F
:1051740041F20401049BFBF717FE00224FF40041A7
:105184004FF09040FBF710FE0024012541F2040388
:1051940005A930460593069507940894FBF73CFD52
:1051A400082305A93046059306940794FBF734FDBC
:1051B4004FF43C7305A94FF090400593069407946F
:1051C400FBF72AFD4FF4806305A94FF09040059347
:1051D40006940795FBF720FD4FF4004305A94FF013
:1051E40090400593069507940894FBF715FD042356
:1051F40005A90648059306940794FBF70DFD0AB02C
:1052040070BD00BF0010024000080048000C0048B8
:1052140030B587B004460D461422002101A801F0E0
:1052240043F801A920460195FBF7F6FC07B030BD11
:1052340030B587B004460D461422002101A801F0C0
:1052440033F80123029301A9032320460493019513
:10525400FBF7E2FC002229462046FBF7A5FD07B038
:1052640030BD000008B51248124B1349012280E8F2
:105274000A0000238360C260036143618361C361E8
:105284000362FBF7D6FE08B100F042F9002108489A
:10529400FCF72AF908B100F03BF900210448FCF7B7
:1052A40049F918B1BDE8084000F032B908BD00BFA3
:1052B4000C160020EC9C90100058004010B50446D9
:1052C40088B01422002103A800F0EEFF2268134BDB
:1052D4009A4221D1124C1348E36C43F00203E36475
:1052E400E36C03F002030193019B4FF440630393C7
:1052F40012230493012305930323069303A9042390
:105304000793FBF789FCA36D43F48003A365A36DA6
:1053140003F480030293029B08B010BD00580040C0
:1053240000100240000400480B4808B50B4B036012
:105334004FF6FF720023436083604261036243625D
:105344008362C3620363FCF71BF918B1BDE808402C
:1053540000F0DEB808BD00BF90160020007C0040BD
:105364000B4808B50B4B03604FF6FF7200234360F4
:1053740083604261036243628362C3620363FCF736
:10538400FFF818B1BDE8084000F0C2B808BD00BF7E
:10539400581600200094004007B50368154A93424C
:1053A40014D1154B9A6D42F000429A659B6D002210
:1053B40003F00043009341201146009BFBF7D6FB0A
:1053C4004120FBF707FC03B05DF804FB0B4A934252
:1053D400F9D1094BDA6D42F02002DA65DB6D002267
:1053E40003F02003019342201146019BFBF7BEFB0F
:1053F4004220E6E7007C0040001002400094004098
:105404002DE9F041B0B014244422002105A800F095
:105414004BFF22460021684600F046FF6822002127
:1054240016A800F041FF0225012603274FF480331C
:105434004FF007080DEB0400069312940596002420
:105444000F9510971196CDF84C8014951595FCF78F
:105454004DFE04210F2368468DE8880002940394CE
:105464000494FDF795F842F28B6316934FF0806332
:105474002A930C23199316A84FF480131D931E949A
:105484001F94219424942794289417971896CDF860
:1054940068801B951C95FDF7BDF94FF40070FCF76F
:1054A40051FD30B0BDE8F08108B5FBF72FFBFFF7E5
:1054B400A7FFFFF725FEFFF7D5FEFFF735FFFFF740
:1054C4004FFF00F09BFA00F0B9F800F0F5F800F097
:1054D40035F900F0EDFA00F053F900F087FB00F025
:1054E400A3FB00F0C1FB00F07BFC00210648FDF7A4
:1054F400B1FF064B0448FF221A640021FDF77EFF2A
:10550400FBF782FAFEE700BFC81600200040014006
:10551400704700000A4B1A6E42F001021A661A6EB6
:1055240082B002F001020092009A9A6D42F0805219
:105534009A659B6D03F080530193019B02B0704701
:10554400001002407047FEE7FEE7FEE7FEE7704703
:105554007047704708B5FBF7E9FABDE80840FBF768
:1055640087BA000008B50448FDF7DEFB0348BDE830
:105574000840FDF7D9BB00BF88170020C8160020DB
:1055840008B50448FDF7D0FB0348BDE80840FDF723
:10559400CBBB00BF88170020081800200148FDF786
:1055A400C3BB00BF88170020FFF7F8BF0148FDF711
:1055B400BBBB00BFC81700200148FDF7B5BB00BF47
:1055C400081700200148FDF7AFBB00BF48170020B3
:1055D4000148FCF72EB800BF901600200148FCF7E4
:1055E40028B800BF581600200148FCF7ADB900BF29
:1055F4004C2C00200F49D1F8883043F47003C1F8D3
:1056040088300D4B1A68002042F001021A6098603D
:105614001A6822F0A85222F410221A604FF4805221
:10562400DA601A6822F480221A6098614FF00063ED
:105634008B60704700ED00E00010024010B51022AE
:10564400002488B021460DEB0200019402940394D7
:1056540000F02AFE17484FF0804380E81800846069
:10566400C46004618461FDF785FC08B1FFF750FF55
:1056740001A9104801940394FDF722FF08B1FFF734
:1056840047FF0022012304A90A48049205930692C5
:105694000792FDF771FD08B1FFF73AFF02230422D8
:1056A40004A904480493FDF767FD08B1FFF730FF30
:1056B40008B010BDC817002010B51022002488B00F
:1056C4000DEB0200214601940294039400F0ECFDDA
:1056D4001848194A8460502380E80C004FF6FF7381
:1056E400C36004618461FDF745FC08B1FFF710FF56
:1056F40001A9104801940394FDF7E2FE08B1FFF7F5
:1057040007FF00220224012304A90A4804940593F4
:1057140006920792FDF730FD08B1FFF7F9FE042267
:1057240004A904480494FDF727FD08B1FFF7F0FE2F
:1057340008B010BD08170020000400401FB50E4833
:105744000E4A5023002480E80C005C230194029448
:1057540003948460C3608461FDF7D8FB08B1FFF74C
:10576400D7FE01A9044801940394FDF7A9FE08B1EA
:10577400FFF7CEFE04B010BD481700200010004013
:10578400094808B5094B0360002343608360C36084
:10579400036143618361FDF7B9FB18B1BDE80840BB
:1057A400FFF7B6BE08BD00BF081800200044014042
:1057B40007B5194B02689A422AD103F564431820AD
:1057C4001A6E42F400621A661B6E002203F4006330
:1057D40011460193019BFBF7C9F91820FBF7FAF96D
:1057E400002211461920FBF7C1F91920FBF7F2F941
:1057F400002211461A20FBF7B9F91A20FBF7EAF93F
:1058040000221B201146FBF7B1F91B20FBF7E2F93C
:1058140003B05DF804FB00BF002C014010B5142256
:105824008AB0044600210DEB020000F03DFD236820
:10583400B3F1804F28D103F5043305A99A6D42F0E2
:1058440001029A659A6D02F001020192019ADA6CE2
:1058540042F00102DA64DB6C03F001030293029B61
:1058640003230593022306934FF0904001230993E9
:10587400FBF7D2F900221C201146FBF777F91C2014
:10588400FBF7A8F90AB010BD124A9342FAD1124BA1
:1058940012489A6D42F002029A659A6D02F0020271
:1058A4000392039ADA6C42F00202DA64DB6C03F0CE
:1058B40002030493049B3023059305A90223069352
:1058C4000993FBF7A9F900221D201146FBF74EF9B5
:1058D4001D20D5E7000400400010024000040048E9
:1058E4001FB503681F4A934214D11F4B9A6D42F0AF
:1058F40010029A659B6D002203F010030193362079
:105904001146019BFBF732F93620FBF763F905B02A
:105914005DF804FB154A934210D1134B1A6E42F4FE
:1059240080321A661B6E002203F48033029318201F
:105934001146029BFBF71AF91820E6E70C4A93423A
:10594400E5D1094B1A6E42F400321A661B6E00222E
:1059540003F40033039319201146039BFBF706F964
:105964001920D2E70010004000100240004001401E
:105974000044014010B5044688B01422002103A855
:1059840000F092FC2368194A934217D1184BDA6C41
:1059940042F00102DA64DB6C03F001030193019B22
:1059A4004FF480730393022304930123079303A901
:1059B4004FF09040FBF730F908B010BD0D4A934208
:1059C400FAD10B4B0C48DA6C42F00202DA64DB6C5D
:1059D40003F002030293029B4FF440430393022318
:1059E40004930E23079303A9E4E700BF002C0140AE
:1059F40000100240004001400004004810B500249B
:105A040096B01C22214604A801940294039400F049
:105A14004BFC2C2221460DEB020000F045FC2248F1
:105A2400224B846080E81800C4600461446184618E
:105A3400FDF786FA08B1FFF76BFD01A91A48019436
:105A440002940394FDF73CFD08B1FFF761FD0024C7
:105A54006023224604A914480493059406940794E9
:105A6400089409940A94FDF7D7FA08B1FFF750FD9A
:105A74004FF4005310930BA94FF000730A480B9492
:105A84000C940D940E940F941194129413931494F3
:105A94001594FDF73DFD08B1FFF73AFD0248FFF705
:105AA40069FF16B010BD00BF88170020002C01400C
:105AB40010B510229AB0002400210DEB020000F072
:105AC400F3FB1C22214608A801940294039400F0DD
