:020000040800F2
:100000000080022045C60008B1B20008BFB2000857
:10001000C5B20008CBB20008D1B200080000000051
:10002000000000000000000000000000D7B200083F
:10003000E5B2000800000000F3B2000801B30008B8
:1000400095C6000895C6000895C6000895C6000824
:1000500095C6000895C6000895C6000895C6000814
:1000600095C6000895C6000895C6000895C6000804
:1000700095C6000895C6000895C6000895C60008F4
:1000800095C6000895C6000895C6000895C60008E4
:1000900095C6000895C6000895C6000811B300086B
:1000A00021B300087D2E00083DB3000851B30008BD
:1000B00065B3000879B300080000000095C6000889
:1000C00095C6000895C6000895C6000895C60008A4
:1000D00095C60008C10C0008D50C000895C600089C
:1000E00095C6000895C6000800000000000000004A
:1000F0000000000000000000000000000000000000
:100100000000000095C600080000000095C6000829
:1001100081270008000000008DB3000800000000E7
:1001200095C6000895C6000895C6000895C6000843
:1001300095C6000895C6000895C600080000000096
:1001400095C60008A1B30008B5B30008C9B30008FC
:1001500095C6000895C6000895C6000895C6000813
:1001600095C6000895C6000895C600080000000066
:100170000000000095C6000800000000000000001C
:1001800095C6000895C6000895C6000895C60008E3
:0401900095C6000808
:1001A00010B5054C237833B9044B13B10448AFF3B1
:1001B00000800123237010BDA41400200000000063
:1001C00004D1000808B5034B1BB103490348AFF342
:1001D000008008BD00000000A814002004D1000821
:1001E000034613F8012B002AFBD1181A0138704777
:1001F00001F0FF01102A2BDB10F0070F08D010F8D8
:10020000013B013A8B422DD010F0070F42B3F6D1DB
:10021000F0B441EA012141EA014122F007047FF0F4
:1002200000070023F0E80256083C85EA010586EA4B
:10023000010685FA47F5A3FA87F586FA47F6A5FA87
:1002400087F68EB9EED1F0BC01F0FF0102F0070293
:1002500032B110F8013B013A83EA010313B1F8D13E
:100260000020704701387047002D06BF354603381F
:10027000073815F0010F07D1013015F4807F02BF58
:10028000013015F4C03F0130F0BC0138704700BFA9
:1002900053B94AB9002908BF00281CBF4FF0FF31ED
:1002A0004FF0FF3000F07AB9ADF1080C6DE904CEE3
:1002B00000F006F8DDF804E0DDE9022304B0704741
:1002C0002DE9F0478C460D460446089E002B51D17F
:1002D0008A4217466DD9B2FA82FEBEF1000F0BD0EA
:1002E000CEF1200C01FA0EF520FA0CFC02FA0EF702
:1002F0004CEA050C00FA0EF44FEA174A250CBCFB39
:10030000FAF81FFA87F90AFB18CC45EA0C4508FBF6
:1003100009F3AB420AD9ED1908F1FF3280F02381CD
:10032000AB4240F22081A8F102083D44ED1AA4B28C
:10033000B5FBFAF00AFB105544EA054400FB09F945
:10034000A14509D9E41900F1FF3380F00A81A145E4
:1003500040F2078102383C44A4EB090440EA08401B
:100360000021002E61D024FA0EF400233460736063
:10037000BDE8F0878B4207D9002E54D0002186E8D3
:1003800021000846BDE8F087B3FA83F1002940F068
:100390008E80AB4202D3824200F2FA80841A65EB6F
:1003A00003050120AC46002E3FD086E81010BDE8C2
:1003B000F08712B90127B7FBF2F7B7FA87FEBEF153
:1003C000000F34D1EB1B3A0C1FFA87FC0121B3FB61
:1003D000F2F8250C02FB183345EA03450CFB08F341
:1003E000AB4207D9ED1908F1FF3002D2AB4200F25F
:1003F000D1808046ED1AA3B2B5FBF2F002FB105596
:1004000043EA05440CFB00FCA44507D9E41900F1BC
:10041000FF3302D2A44500F2B8801846A4EB0C04C6
:1004200040EA08409DE731463046BDE8F087CEF10E
:10043000200405FA0EF307FA0EF720FA04F83A0C36
:1004400025FA04F448EA0308B4FBF2F14FEA184530
:1004500002FB11441FFA87FC45EA044501FB0CF33B
:10046000AB4200FA0EF409D9ED1901F1FF3080F02A
:100470008A80AB4240F2878002393D44EB1A1FFA72
:1004800088F5B3FBF2F002FB103345EA034500FBAD
:100490000CF3AB4207D9ED1900F1FF386FD2AB4234
:1004A0006DD902383D44EB1A40EA01418FE7C1F1B2
:1004B000200722FA07F88B4005FA01F448EA030303
:1004C00020FA07FE4FEA134CFD404EEA040EB5FB3E
:1004D000FCF94FEA1E440CFB19551FFA83F844EA55
:1004E000054509FB08F4AC4202FA01F200FA01FAF0
:1004F00008D9ED1809F1FF3043D2AC4241D9A9F136
:1005000002091D442D1B1FFA8EFEB5FBFCF00CFBEF
:1005100010554EEA054400FB08F8A04507D9E41839
:1005200000F1FF3529D2A04527D902381C4440EA02
:100530000940A4EB0804A0FB02894C45C6464D4681
:1005400015D312D056B1BAEB0E0364EB050404FACE
:1005500007F7CB401F43CC40376074600021BDE8F3
:10056000F0871846F8E69046E0E6C245EAD2B8EBD6
:10057000020E69EB03050138E4E72846D7E7404659
:1005800091E78146BEE7014678E702383C4445E7FB
:10059000084608E7A8F102083D442BE7704700BF72
:1005A00080B582B000AF7860052200210D480CF0C4
:1005B000A2F8052200210C480CF09DF80A22002127
:1005C0000A480CF098F80A22002109480CF093F828
:1005D0000A22002107480CF08EF800BF0837BD46FC
:1005E00080BD00BFC0140020C8140020D01400201B
:1005F000DC140020E814002080B582B000AF7860E1
:100600007B681B7883F00103DBB2002B11D10C4B0C
:100610001B78DBB283F00103DBB2002B0BD17868CF
:1006200000F03EF8786800F0B9F8054B00221A7027
:1006300002E000BF00E000BF0837BD4680BD00BF3C
:10064000F214002080B483B000AF78600B46FB70DA
:100650000B4B01221A700B4B1B881BB2002B08DDC1
:10066000084B1B881BB29BB2013B9BB21AB2054BD5
:100670001A8000BF0C37BD465DF8047B704700BF91
:10068000F2140020F414002080B483B000AF78602E
:10069000396000BF0C37BD465DF8047B7047000031
:1006A00080B582B000AF78604FF480614FF0904029
:1006B00002F0F6FE0346002B07D1374B1B7843F0C0
:1006C0000103DAB2344B1A7006E0334B1B7823F087
:1006D0000103DAB2304B1A7010214FF0904002F053
:1006E000DFFE0346002B07D12B4B1B7843F00203A0
:1006F000DAB2294B1A7006E0274B1B7823F002036D
:10070000DAB2254B1A7020214FF0904002F0C8FE5B
:100710000346002B07D1204B1B7843F00403DAB2C9
:100720001D4B1A7006E01C4B1B7823F00403DAB251
:10073000194B1A7040214FF0904002F0B1FE034671
:10074000002B07D1144B1B7843F00803DAB2124B8D
:100750001A7006E0104B1B7823F00803DAB20E4B38
:100760001A7080214FF0904002F09AFE0346002B51
:1007700007D1094B1B7843F01003DAB2064B1A700D
:1007800006E0054B1B7823F01003DAB2024B1A7017
:1007900000BF0837BD4680BDC814002080B58CB0AE
:1007A00000AF7860A34B1B781A46A34B9B5CFF2BD2
:1007B00000F02F819F4B1B781A469F4B9B5C03F0E8
:1007C0000F03012202FA03F3FB859A4B1B781A46AA
:1007D000994B9B5C1B0987F82D3097F82D30974A71
:1007E000D35C1A46FB8D1340002B5DD1914B1B78D7
:1007F0001A46934B33F81230002B00F0A4808D4B37
:100800001B788F4A32F81320013A91B28C4A22F8B1
:100810001310884B1B781A46894B33F81230002B83
:1008200040F0918097F82D30864AD35C1A46FB8DB4
:100830001340002B00F087807B685B69002B14D08D
:100840007C4B1B789BB2BB840023FB84422387F83C
:100850002830002387F8293000237B857B685B697B
:1008600007F1240211467868984797F82D3097F8D9
:100870002D2074498A5C51B2FA8D52B2D24352B2E1
:100880000A4052B2D1B26F4AD1546A4B1B781A4611
:100890006D4B002123F81210664B1B781A466B4BE8
:1008A000002123F812104EE0624B1B781A46644B6D
:1008B00033F81230032B46D85E4B1B78604A32F86F
:1008C0001320013291B25E4A22F81310594B1B7863
:1008D0001A465B4B33F81230032B34D97B685B69C3
:1008E000002B14D0534B1B789BB2BB830123FB839B
:1008F000422387F82030002387F8213000237B84AF
:100900007B685B6907F11C0211467868984797F885
:100910002D3097F82D204B49895CFA8DD2B20A43CD
:10092000D1B2484AD154434B1B781A46464B4FF438
:10093000C87123F812103F4B1B781A46434B4FF4F3
:10094000487123F812103B4B1B781A463E4B33F983
:100950001230002B2ADD374B1B783B4A32F913202B
:1009600092B2013A92B211B2374A22F81310314BC7
:100970001B781A46344B33F91230002B16D17B68A2
:100980005B69002B12D02B4B1B789BB2BB820223DE
:10099000FB8242233B7600237B7600237B837B68AC
:1009A0005B6907F11402114678689847214B1B7860
:1009B0001A46264B33F91230002B2ADD1D4B1B78CB
:1009C000224A32F9132092B2013A92B211B21F4A6E
:1009D00022F81310174B1B781A461C4B33F91230B0
:1009E000002B16D17B685B69002B12D0114B1B7852
:1009F0009BB2BB810323FB8142233B7400237B74A6
:100A000000237B827B685B6907F10C0211467868E2
:100A10009847084B1B780133DAB2064B1A70054B26
:100A20001B78042B02D9034B00221A7000BF303709
:100A3000BD4680BDF61400209CD10008C8140020DB
:100A4000D0140020C0140020DC140020E814002082
:100A500080B582B000AF78601A4B00221A701A4B32
:100A600000221A7019491A4808F02BF8184808F0A3
:100A700037F8174808F00AF91649174808F021F81E
:100A8000104B1B78002B05D1134808F029F81248A9
:100A900008F00EF900224FF48051104802F018FDC2
:100AA000012204210D4802F013FD4FF400720021D1
:100AB0000B480BF020FE0B4B00221A7000BF0837CA
:100AC000BD4680BDFD1A0020FE1A0020810C0008E2
:100AD00000000020A50C00085C0000200008004871
:100AE000FC180020FC1A002080B582B000AF7860AE
:100AF0007B681B7883F00103DBB2002B1ED1124B05
:100B00001B78DBB283F00103DBB2002B18D10F4856
:100B100008F030F80E4B1B78002B02D10D4808F07E
:100B200029F80D4B1B78002B04D000F04BF80A4B32
:100B300000221A70044B00221A7002E000BF00E08D
:100B400000BF0837BD4680BDF81800200000002017
:100B5000FD1A00205C000020FC1A002080B483B045
:100B600000AF78600B46FB70044B01221A7000BF87
:100B70000C37BD465DF8047B704700BFF8180020B5
:100B800080B584B000AF786039603B681B79442B36
:100B900011D1386808F0C3FC0346002B0BD03B682A
:100BA0001B88C3F30E03FB81FB893A68B2F902206C
:100BB000D1B2034AD15400BF1037BD4680BD00BF3B
:100BC000FC18002080B582B000AF284B1B78002BAA
:100BD0003FD100237B6034E0254BDA6C7B68134403
:100BE0001B78FB70234A7B6813441B78BB70224B35
:100BF0001B78002B11D1FA78BB789A4206D91F4B8B
:100C0000DA6C7B681344FA781A7017E01B4BDA6CC5
:100C10007B681344BA781A7010E0FA78BB789A426D
:100C200006D2164BDA6C7B681344FA781A7005E02A
:100C3000124BDA6C7B681344BA781A707B68013304
:100C40007B600E4BB3F848301A467B689A42C3DC8F
:100C500008E00A4BD86C094BB3F848301A460549EE
:100C60000BF03EFD00BF0837BD4680BDFD1A0020D9
:100C70005C000020FC180020FE1A0020000000206C
:100C800080B485B000AF78600123FB73044B012270
:100C90001A70FB7B18461437BD465DF8047B70471D
:100CA000FC1A002080B485B000AF78600123FB738C
:100CB000FB7B18461437BD465DF8047B7047000087
:100CC00080B500AF024808F0E7F800BF80BD00BF64
:100CD0005C00002080B500AF024808F068F800BF53
:100CE00080BD00BF0000002080B485B000AF7860F8
:100CF0000023FB6020E0154B5A68FB684FF4C47179
:100D000001FB03F3134400225A61104B5A68FB683D
:100D10004FF4C47101FB03F313440022DA740B4B4C
:100D20005A68FB684FF4C47101FB03F313440022BB
:100D30009A61FB680133FB60FB68092BDBDD00BFB8
:100D40001437BD465DF8047B704700BFA01000203B
:100D500080B584B000AF78607B681B7883F00103B6
:100D6000DBB2002B40F0DC80704B1B78DBB283F0F1
:100D70000103DBB2002B40F0D5800023FB60C7E00D
:100D80006B4B5A68FB684FF4C47101FB03F31344C7
:100D9000DB7C002B00F0B980654B5A68FB684FF490
:100DA000C47101FB03F313445A6901325A610023F1
:100DB000BB6066E05E4B5A68FB684FF4C47101FB90
:100DC00003F31A44BB681B0113442D331B78002B1B
:100DD00054D0574B5A68FB684FF4C47101FB03F3BE
:100DE0001A44BB68B0335B0013445B78012B08D115
:100DF000FB68DBB2BA68D2B21946786800F06EF9C7
:100E00003CE04B4B5A68FB684FF4C47101FB03F3A1
:100E100013445A69464B5968FB684FF4C47000FB91
:100E200003F31944BB681B010B4428331B689A4227
:100E300024D33F4B5A68FB684FF4C47101FB03F3A2
:100E40001A44BB68B0335B0013445B78002B15D1A8
:100E5000374B5A68FB684FF4C47101FB03F31A4423
:100E6000BB68B0335B00134401225A70FB68DBB2ED
:100E7000BA68D2B21946786800F030F9BB6801331D
:100E8000BB60BB68132B95DD294B5A68FB684FF498
:100E9000C47101FB03F313449A69254B5968FB683D
:100EA0004FF4C47000FB03F30B44DB699A422CD36C
:100EB0001F4B5A68FB684FF4C47101FB03F31344E2
:100EC00000229A611A4B5A68FB684FF4C47101FB07
:100ED00003F313440022DA74154B5A68FB684FF48D
:100EE000C47101FB03F3134400225A61104B5A688A
:100EF000FB684FF4C47101FB03F3134403F5B073B3
:100F00002822002118460BF0F6FBFB680133FB603A
:100F1000FB68092B7FF734AF044B00221A7002E004
:100F200000BF00E000BF1037BD4680BDFF1A0020A3
:100F3000A010002080B483B000AF78600B46FB7037
:100F4000044B01221A7000BF0C37BD465DF8047BCC
:100F5000704700BFFF1A002080B588B000AF7860EE
:100F600039603B681B79502B40F0B280386808F03C
:100F7000D6FA0346002B00F0AB803B681B88C3F316
:100F80000E03FB83FB8B092B00F2A2803B68B3F9B5
:100F9000023047F6FF72934254D14F4B5A68FB8B95
:100FA0004FF4C47101FB03F31344DB7C83F00103B2
:100FB000DBB2002B46D0484B5A68FB8B4FF4C47110
:100FC00001FB03F313440122DA74434B5A68FB8B91
:100FD0004FF4C47101FB03F3134400225A613E4BEA
:100FE0005A68FB8B4FF4C47101FB03F313440022D6
:100FF0009A61394B5A68FB8B4FF4C47101FB03F3C0
:10100000134403F5B0732822002118460BF073FB3C
:101010007B685B69002B5BD0FB8BC3F30E039BB239
:10102000BB8247F6FF73FB8250233B7600237B761F
:1010300000237B837B685B6907F1140211467868A3
:10104000984745E0244B5A68FB8B4FF4C47101FB71
:1010500003F313440022DA741F4B5A68FB8B4FF4DE
:10106000C47101FB03F3134400225A611A4B5A68FE
:10107000FB8B4FF4C47101FB03F3134400229A610C
:10108000154B5A68FB8B4FF4C47101FB03F31344F7
:1010900003F5B0732822002118460BF02CFB7B6867
:1010A0005B69002B14D0FB8BC3F30E039BB2BB8197
:1010B0000023FB8150233B7400237B7400237B823D
:1010C0007B685B6907F10C02114678689847FFE777
:1010D00000BF2037BD4680BDA010002080B58AB07B
:1010E00000AFF8600B46FB721346BB72A84B5A6800
:1010F000FB7A4FF4C47101FB03F313445A69A44B08
:101100005968FB7A4FF4C47000FB03F31944BB7AAF
:101110001B010B4428331B68D31A07EE903AF8EEF4
:10112000677AC7ED087A0023FB84994B5A68FB7AEB
:101130004FF4C47101FB03F31A44BB7A02331B0161
:10114000134404331B68002B28D1914B5A68FB7A57
:101150004FF4C47101FB03F31A44BB7A02331B0141
:10116000134403331B78FB84894B5A68FB7A4FF492
:10117000C47101FB03F313449A6901329A61844BF1
:101180005A68FB7A4FF4C47101FB03F31A44BB7A2B
:10119000B0335B00134402225A7099E07C4B5A68CA
:1011A000FB7A4FF4C47101FB03F31A44BB7A023398
:1011B0001B01134403331B7807EE903AB8EE677AAD
:1011C000734B5A68FB7A4FF4C47101FB03F31A4462
:1011D000BB7A02331B01134402331B7807EE903AAB
:1011E000F8EE677A77EE677AC7ED077A684B5A6848
:1011F000FB7A4FF4C47101FB03F31A44BB7A023348
:101200001B01134404331B6807EE903AF8EE677A2B
:10121000D7ED076A86EEA77AD7ED087A27EE277A08
:101220005B4B5A68FB7A4FF4C47101FB03F31A4419
:10123000BB7A02331B01134402331B7807EE903A4A
:10124000F8EE677A77EE277AC7ED067AD7ED067A59
:10125000FCEEE77AC7ED017ABB88FB844C4B5A68F9
:10126000FB7A4FF4C47101FB03F31A44BB7A0233D7
:101270001B01134403331B789BB2FA8C9A4227D389
:10128000434B5A68FB7A4FF4C47101FB03F31A44D1
:10129000BB7A02331B01134403331B78FB843C4BA2
:1012A0005A68FB7A4FF4C47101FB03F313449A6943
:1012B00001329A61364B5A68FB7A4FF4C47101FBD4
:1012C00003F31A44BB7AB0335B00134402225A7012
:1012D0002F4B5A68FB7A4FF4C47101FB03F313449C
:1012E000BA7AF98CC9B2B03203F81210FB685B69A4
:1012F000002B2DD0264B5A68FB7A4FF4C47101FBAA
:1013000003F31A44BB7A02331B0113441B886FEAB0
:1013100043436FEA53439BB23B821D4B5A68FB7AAF
:101320004FF4C47101FB03F31344BA7AB03213F8DB
:1013300012301BB27B8244233B7500237B75002354
:10134000FB82FB685B6907F110021146F868984759
:101350000F4B5A68FB7A4FF4C47101FB03F31A4434
:10136000BB7AB0335B0013445B78022B0CD1084B83
:101370005A68FB7A4FF4C47101FB03F31344BA7A41
:10138000B032002103F8121000BF2837BD4680BDDF
:10139000A010002080B582B000AF78600F491048DF
:1013A00007F0F2FD0E4807F0FDFD0E4B00221A80FB
:1013B00000F0B0F8024640F203139A4207D000F062
:1013C000D1F840F2031000F079F800F015F900F0C0
:1013D00059F900BF0837BD4680BD00BF191A000883
:1013E000B8000020041B002080B582B000AF7860F8
:1013F0007B681B7883F00103DBB2002B23D1154BF4
:101400001B78DBB283F00103DBB2002B1DD1124B42
:10141000B3F900309BB201339BB21AB20E4B1A8063
:101420000D4BB3F90030B3F57A7F08D10A4B002297
:101430001A800A4B1B7C002B01D000F0DDF8054B15
:1014400000221A7002E000BF00E000BF0837BD466E
:1014500080BD00BF001B0020041B0020A010002046
:1014600080B483B000AF78600B46FB700B4B012259
:101470001A700B4B1B881BB2002B08DD084B1B8816
:101480001BB29BB2013B9BB21AB2054B1A8000BF44
:101490000C37BD465DF8047B704700BF001B002081
:1014A000021B002080B483B000AF7860396000BFB9
:1014B0000C37BD465DF8047B7047000080B584B0F2
:1014C00000AF78600023FB607B681B0EDBB23B73D0
:1014D0007B681B0CDBB27B737B681B0ADBB2BB73C4
:1014E0007B68DBB2FB7300F075FA034683F00103FF
:1014F000DBB2002B07D107F10C02042300210448C2
:1015000007F063FD00E000BF1037BD4680BD00BF9F
:10151000B800002080B582B000AF00233B6000F02F
:1015200059FA034683F00103DBB2002B01D00023FC
:1015300011E03A4604230021094807F068FD3B7892
:101540001A067B781B041A43BB781B021343FA78F4
:1015500013437B607B6818460837BD4680BD00BFDB
:10156000B800002080B5C4B000AF002387F8073171
:101570000023C7F80C310BE03A1DD7F80C311344A7
:1015800097F807211A70D7F80C310133C7F80C31DE
:10159000D7F80C31FF2BEFDD0023C7F808311DE031
:1015A00000F018FA034683F00103DBB2002B1BD1D5
:1015B000D7F808319BB21B029AB23B1DA3F8002159
:1015C0003B1DB3F800113A1D4FF48073094807F032
:1015D000FCFCD7F808310133C7F80831D7F80831D7
:1015E000B3F5FA7FDCDB00E000BF07F58877BD4686
:1015F00080BD00BFB800002080B582B000AF4FF4BE
:101600008073FB8000233B601BE000F0E3F903469E
:1016100083F00103DBB2002B2CD1194B5A683B68D5
:101620004FF4C47101FB03F31A44FB8811461846BA
:1016300000F06CF8FB8803F50073FB803B68013316
:101640003B603B68092BE0DD4FF4A853FB8000F0C2
:10165000C1F9034683F00103DBB2002B0CD1084B28
:10166000DA68FB881146184600F034F9044B002272
:101670001A7402E000BF00E000BF0837BD4680BD1D
:10168000A010002080B582B000AF4FF48073FB80C3
:1016900000233B601BE000F09DF9034683F001034B
:1016A000DBB2002B29D1184B5A683B684FF4C47148
:1016B00001FB03F31A44FB881146184600F098F822
:1016C000FB8803F50073FB803B6801333B603B689C
:1016D000092BE0DD4FF4A853FB8000F07BF90346B3
:1016E00083F00103DBB2002B09D1074BDA68FB88DA
:1016F0001146184600F02CF902E000BF00E000BFE0
:101700000837BD4680BD00BFA010002080B5ADF5F4
:10171000667D00AF02463B461960BB1D1A8007F587
:10172000047318464FF4C4731A4600210AF0E3FF0D
:101730003B4607F504704FF4C47219680AF0D0FFF5
:1017400007F10C034FF48072002118460AF0D3FF12
:1017500007F10C0303F581734FF4807200211846E2
:101760000AF0C9FF07F10C03BA1D1288A3F8002183
:10177000BB1D1B8803F580739AB207F10C03A3F815
:10178000022207F10C0207F50473104619464FF4C4
:1017900080731A460AF0A4FF07F5047303F58071FD
:1017A00007F10C0303F58173882218460AF098FFAD
:1017B00007F10C03B3F8001107F10C024FF480732A
:1017C0000A4807F002FC07F10C03B3F8021207F114
:1017D0000C0303F581724FF48073044807F0F5FBA6
:1017E00000BF07F56677BD4680BD00BFB80000208A
:1017F00080B5ADF5667D00AF02463B461960BB1D66
:101800001A8007F5CA734FF48072002118460AF057
:1018100072FF07F5CA7303F581734FF480720021DC
:1018200018460AF068FF07F5CA73BA1D1288A3F8B4
:101830000021BB1D1B8803F580739AB207F5CA739C
:10184000A3F8022207F5CA73B3F8001107F5CA72AC
:101850004FF480731E4807F0DAFB07F5CA73B3F83C
:10186000021207F5CA7303F581724FF480731848AA
:1018700007F0CDFB07F10C0318464FF4C4731A466A
:1018800000210AF038FF07F10C0207F5CA73104671
:1018900019464FF480731A460AF022FF07F5CA73FF
:1018A00003F5817107F10C0303F580738822184654
:1018B0000AF016FF07F10C013B464FF4C47218689A
:1018C0000AF00EFF00BF07F56677BD4680BD00BF7A
:1018D000B800002080B5DAB000AF02463B46196080
:1018E000BB1D1A8007F586735A22002118460AF09C
:1018F00002FF3B4607F586705A2219680AF0F0FE8F
:1019000007F108034FF48072002118460AF0F3FE35
:1019100007F10803BA1D1288A3F8002107F58671A4
:1019200007F108035A2218460AF0DAFE07F1080305
:10193000B3F8001107F108024FF48073034807F071
:1019400044FB00BF07F5B477BD4680BDB80000205A
:1019500080B5DAB000AF02463B461960BB1D1A8065
:1019600007F164034FF48072002118460AF0C3FEA9
:1019700007F16403BA1D1288A3F8002107F164037C
:10198000B3F8001107F164024FF48073104807F0B8
:101990003EFB07F1080318465A231A4600210AF0B5
:1019A000AAFE07F1080207F16403104619465A23FC
:1019B0001A460AF095FE07F108013B465A221868BC
:1019C0000AF08EFE00BF07F5B477BD4680BD00BFAC
:1019D000B800002080B500AF0D4B4FF47A721A802A
:1019E00006E00B4B1B881BB2002B01DC00230CE034
:1019F000084807F02EFB034683F00103DBB2002BFF
:101A0000EFD1034B00221A800123184680BD00BF8E
:101A1000021B0020B800002090B589B004AF7860A8
:101A20000123FB737B689B7A002B19D17B681B78A1
:101A300098B27B689B699CB27B68DB697A68526963
:101A400092B2642102910192009302232246014640
:101A5000204801F0EFFE0346002B01D00023FB736A
:101A60007B689B7A012B19D17B681B7898B27B68C5
:101A70009B699CB27B681B6A7A68526992B2642146
:101A8000029101920093022322460146114801F07F
:101A9000E5FF0346002B01D00023FB737B689B7A94
:101AA000042B12D17B681B7899B27B681A6A7B6819
:101AB0005B6998B2642300930346064801F0C6FDB3
:101AC0000346002B01D00023FB73FB7B1846143721
:101AD000BD4690BD9C77002080B483B000AF786095
:101AE000044B00221A7000BF0C37BD465DF8047B22
:101AF000704700BF061B002080B483B000AF786041
:101B00007B681B7883F00103DBB2002B0BD10A4BFF
:101B10001B78DBB283F00103DBB2002B05D1064B4F
:101B200000221A7002E000BF00E000BF0C37BD4683
:101B30005DF8047B704700BF071B002080B584B0B0
:101B400000AF786039604D4B1B78002B40F09280DD
:101B50003B681B79422B40F08E80386807F0DFFC31
:101B60000346002B40F087803B681B88FB81444B79
:101B7000D968FA891346DB0013445B000B441B78D9
:101B8000002B78D13B68B3F90230002B18D13C4BC5
:101B9000D968FA891346DB0013445B000B449B7938
:101BA000092B0DD8364BD968FA891346DB0013444C
:101BB0005B000B4406331946786800F063F85AE07E
:101BC0003B68B3F90230012B18D12D4BD968FA8943
:101BD0001346DB0013445B000B449B78092B0DD8A4
:101BE000274BD968FA891346DB0013445B000B448A
:101BF00002331946786800F045F83CE03B68B3F9D9
:101C00000230022B18D11E4BD968FA891346DB002B
:101C100013445B000B449B7A092B0DD8184BD968F1
:101C2000FA891346DB0013445B000B440A33194660
:101C3000786800F027F81EE03B68B3F90230032B08
:101C400019D10F4BD968FA891346DB0013445B00A6
:101C50000B449B7B092B0ED8094BD968FA89134694
:101C6000DB0013445B000B440E331946786800F028
:101C700009F800E000BF1037BD4680BD061B0020FC
:101C8000A010002080B584B000AF786039607B6818
:101C90005B69002B1ED03B681B789BB2013B9BB25B
:101CA0001BB26FEA43436FEA53431BB29BB23B81C3
:101CB0003B68B3F902307B8150233B7300237B7375
:101CC0000023FB817B685B6907F108021146786895
:101CD000984700E000BF1037BD4680BD80B582B098
:101CE00000AF786000F05EFD4FF480610E4800F0B8
:101CF0006DFD4FF420510D4800F082FD4FF420524D
:101D00000B490C4800F072FE4FF480620A490B4800
:101D100000F06CFE0A4B1B68184600F080FE00BF06
:101D20000837BD4680BD00BF086F0020084700206F
:101D3000081B0020DC00002008430020E8000020F1
:101D4000507A002080B582B000AF78607B681B7845
:101D500083F00103DBB2002B22D1786800F058F841
:101D6000124B1B78DBB283F00103DBB2002B19D1DD
:101D70000F4BB3F900309BB201339BB21AB20C4B3C
:101D80001A800B4BB3F90030092B05DD786800F0A1
:101D90004DFC074B00221A80044B00221A7002E00F
:101DA00000BF00E000BF0837BD4680BD347300208F
:101DB0003873002080B483B000AF78600B46FB70AE
:101DC0000B4B01221A700B4B1B881BB2002B08DD3A
:101DD000084B1B881BB29BB2013B9BB21AB2054B4E
:101DE0001A8000BF0C37BD465DF8047B704700BF0A
:101DF000347300203673002080B483B000AF786065
:101E0000396000BF0C37BD465DF8047B70470000A9
:101E100080B584B000AF786000F00CFD07F10F03CF
:101E2000184600F06FFD0346012B05D1FB7B1A46D7
:101E30000B49786800F01AF807F10F0309491846B2
:101E400000F0FDFD0346012B05D1FB7B1A46064938
:101E5000786800F00BF800BF1037BD4680BD00BFAA
:101E60001C730020E80000200873002080B584B0B7
:101E700000AFF860B9601346FB71FB79232B09D1E1
:101E8000BB6801225A80BB6801221A70BB68FA79CC
:101E90001A712BE0BB681B78012B27D1BB685B88CC
:101EA0001A46BB681344FA791A71BB685B88013320
:101EB0009AB2BB685A80BB685B880D2B16D9BB6889
:101EC00000221A70BB6804331946F86800F014F851
:101ED0000346002B0AD0074ABB681360054B1968FC
:101EE000BB6804331A46F86800F0FEFB00BF1037E9
:101EF000BD4680BD3073002080B584B000AF7860EF
:101F000039603B685B78FB73FB7B542B05D13968E8
:101F1000786800F023F803461BE0FB7B462B05D1D5
:101F20003968786800F096F9034612E0FB7B502B85
:101F300005D13968786800F075FA034609E0FB7B43
:101F40004C2B05D13968786800F054FB034600E05B
:101F5000012318461037BD4680BD000080B598B0FB
:101F600000AF786039603B689B7887F85B303B68EE
:101F7000DB7887F830303B681B7987F831303B6875
:101F80005B7987F82C303B689B7987F82D3007F117
:101F900030031022002118460AF080FC786507F112
:101FA0002C031022002118460AF078FC386597F8B7
:101FB0005B30302B51D1A54B1B7887F8283007F1C7
:101FC000290300221A80A14B1B7887F8243007F1DF
:101FD000250300221A803B68DB7987F828303B68AC
:101FE0001B7A87F829303B685B7A87F824303B6896
:101FF0009B7A87F8253007F1280310220021184624
:102000000AF04CFCF86407F1240310220021184662
:102010000AF044FCB8648E4B5A687B6D4FF4C4716F
:1020200001FB03F31A44FB6C99B23B6D02331B01B5
:1020300013440A461A80864B5A687B6D4FF4C4716C
:1020400001FB03F31A44BB6CD9B23B6D02331B0195
:10205000134402330A461A70F3E097F85B30312BD1
:1020600050D17A4B1B7887F8203007F121030022EA
:102070001A800023BB6100233B773B68DB7987F83C
:1020800020303B681B7A87F821303B685B7A3B76CF
:102090003B689B7A7B763B68DB7ABB763B681B7B35
:1020A000FB7607F120031022002118460AF0F6FB08
:1020B000786407F118031022002118460AF0EEFB9D
:1020C0003864634B5A687B6D4FF4C47101FB03F3B2
:1020D0001A447B6CD9B23B6D02331B0113440333AA
:1020E0000A461A705A4B5A687B6D4FF4C47101FB53
:1020F00003F3D1183A6C3B6D02331B010B440433DC
:102100001A609EE097F85B30322B40F09A800023F3
:102110003B6100233B754D4B1B783B7307F10D036F
:1021200000221A803B68DB793B743B681B7A7B7426
:102130003B685B7ABB743B689B7AFB743B68DB7AD9
:102140003B733B681B7B7B733B685B7BFB7207F1DC
:1021500010031022002118460AF0A0FBF86307F1D3
:102160000C031022002118460AF098FBB86307F10F
:102170000B031022002118460AF090FB7863344BC1
:102180005A687B6D4FF4C47101FB03F3D118FA6BED
:102190003B6D1B010B4428331A602D4B5A687B6D35
:1021A0004FF4C47101FB03F31A44BB6BD9B23B6D0E
:1021B0001B0113442C330A461A70254B5A687B6D59
:1021C0004FF4C47101FB03F31A447B6B002B14BF63
:1021D00001230023D9B23B6D1B0113442D330A4662
:1021E0001A701B4B5A687B6D4FF4C47101FB03F3EB
:1021F00013440022DA610023FB651CE0144B5A688B
:102200007B6D4FF4C47101FB03F31A44FB6D1B019A
:1022100013442D331B78002B0AD00D4B5A687B6D6D
:102220004FF4C47101FB03F31344DA690132DA613C
:10223000FB6D0133FB65FB6D132BDFDD044B0122CE
:102240001A74012318466037BD4680BD1CD10008B2
:10225000A010002080B58EB000AF786039603B6878
:102260009B7887F837303B68DB783B773B681B7996
:102270007B7707F11C031022002118460AF00EFBA1
:10228000386397F83730302B66D13B685B793B7603
:102290003B689B797B763B68DB793B753B681B7AB7
:1022A0007B753B685B7A3B743B689B7A7B743B68CD
:1022B000DB7A3B733B681B7B7B7307F118031022AF
:1022C000002118460AF0EAFAF86207F11403102216
:1022D000002118460AF0E2FAB86207F11003102252
:1022E000002118460AF0DAFA786207F10C0310228E
:1022F000002118460AF0D2FA38621A4BD9683A6BB4
:102300001346DB0013445B000B44FA6AD2B29A70A6
:10231000144BD9683A6B1346DB0013445B000B4443
:10232000BA6AD2B29A710F4BD9683A6B1346DB0086
:1023300013445B000B447A6AD2B29A72094BD96893
:102340003A6B1346DB0013445B000B443A6AD2B28B
:102350009A73044B01221A74012318463837BD467C
:1023600080BD00BFA0100020B0B58CB004AF786075
:102370000B46FB700023FB6007F1100300221A607C
:102380005A60C3F80720244BD968FA781346DB005B
:1023900013445B000B449B78FB771F4BD968FA789A
:1023A0001346DB0013445B000B449B79BB771A4B4D
:1023B000D968FA781346DB0013445B000B449B7A20
:1023C0007B77154BD968FA781346DB0013445B0022
:1023D0000B449B7B3B77FD78FB7FBA7F797F387F0F
:1023E00007F10C0403900291019200932B460B4AD3
:1023F0000F2120460AF088F90D23BB76084B1B6895
:1024000007F10C021946786800F06EF901231846AE
:102410002037BD46B0BD00BFA010002020D100086D
:102420003073002080B586B000AF786039603B68BB
:102430009B78FB753B68DB783B733B681B797B7350
:1024400007F10C031022002118460AF027FA386120
:10245000FB7D302B0FD11A4B5A683B694FF4C47186
:1024600001FB03F3134418463B6805330922194660
:102470000AF07EF91FE0FB7D312B13D1104B5A6817
:102480003B694FF4C47101FB03F3134403F10900EA
:102490003B680533092219460AF06AF9084B012204
:1024A0001A7408E0FB7D542B05D13B69DBB2194659
:1024B000786800F03DF9012318461837BD4680BD05
:1024C000A010002080B586B000AF78600B46FB708E
:1024D00007F1080300221A605A609A60C3F80B20C3
:1024E00020233B7207F108030F22202118460AF02F
:1024F00002F9FB7807F108003A4A06210AF004F9CC
:1025000020237B73384B5A68FB784FF4C47101FB6E
:1025100003F313441846FDF763FE0346FB75FB7D8A
:10252000092B01D90923FB752F4B5A68FB784FF40F
:10253000C47101FB03F313441946FA7D07F1080344
:10254000053318460AF014F90D23BB75274B1B6899
:1025500007F108021946786800F0C6F807F1080389
:102560000F22202118460AF0C6F8FB7807F1080070
:102570001F4A06210AF0C8F820237B731A4B5A68B9
:10258000FB784FF4C47101FB03F31344093318467D
:10259000FDF726FE0346FB75FB7D092B01D90923B8
:1025A000FB75114B5A68FB784FF4C47101FB03F3C0
:1025B000134403F10901FA7D07F1080305331846B6
:1025C0000AF0D6F80D23BB75084B1B6807F108020B
:1025D0001946786800F088F8012318461837BD4678
:1025E00080BD00BF3CD10008A01000203073002047
:1025F00044D1000880B485B000AF786039603B6892
:102600009B78FB73FB7B302B05D1064B00221A8095
:10261000054B01221A70012318461437BD465DF898
:10262000047B70473C7300203A73002080B582B071
:1026300000AF78602A4B1B78002B4CD0284B1B78BE
:10264000012B17D1274B1B88DBB219467868FFF79F
:1026500039FF244B1B8801339AB2224B1A80214B3D
:102660001B88092B38D91F4B00221A801C4B0222D1
:102670001A7031E01A4B1B78022B10D1194B1B88B2
:1026800001339AB2174B1A80164B1B88C72B23D9DC
:10269000144B00221A80124B03221A701CE0104BBC
:1026A0001B78032B18D10F4B1B88DBB219467868B7
:1026B000FFF75AFE0B4B1B8801339AB2094B1A8065
:1026C000084B1B88032B07D9064B00221A80044BAA
:1026D00000221A7000E000BF0837BD4680BD00BF71
:1026E0003A7300203C73002080B584B000AFF860DE
:1026F000B9607A60BB680A4A934202D1786800F0F8
:1027000025F9BB68074A934206D1074B1B681A4656
:102710000649786800F0A3F900BF1037BD4680BDB8
:102720001C73002008730020507A0020DC00002079
:1027300080B584B000AF78600B46FB707B685B6946
:10274000002B18D0FB789BB26FEA43436FEA5343E8
:102750009BB23B8147F6FF737B8150233B73002381
:102760007B730023FB817B685B6907F108021146DC
:102770007868984700E000BF1037BD4680BD000074
:1027800080B500AF044B1B68044A0549184600F0A9
:102790009FF900BF80BD00BF507A0020DC00002000
:1027A000E800002080B500AF054809F0D5FA054BD8
:1027B00000221A70044B00221A6000BF80BD00BFC7
:1027C000AD290008587300205C73002080B483B0EA
:1027D00000AF78600B467B80084B00221A80074BC5
:1027E00000225A80054A7B889380044A7B68936064
:1027F00000BF0C37BD465DF8047B70474C7300206A
:1028000080B483B000AF78600B467B80084B002219
:102810001A80074B00225A80054A7B889380044A1D
:102820007B68936000BF0C37BD465DF8047B704742
:102830004073002080B586B000AF3B1D00221A60B7
:102840005A609A60DA6000237B614FF400714FF0A8
:10285000904000F025FE0346002B03D01E4B0122C2
:102860001A7002E01C4B00221A7000237B610FE0FB
:10287000FB1C184600F058F80346012B0CD1F978E0
:102880003A1D7B6913440A461A707B6901337B61E8
:102890007B690F2BECDD00E000BF7B69002B18DDAE
:1028A0000D4B1B78012B14D10C4B4FF47A721A602C
:1028B00009E07B699AB23B1D1146184609F026FAD9
:1028C0000346002B04D0054B1B68002BF1D100E020
:1028D00000BF1837BD4680BD587300205C730020D0
:1028E00080B400AF064B1B68002B04DD044B1B6853
:1028F000013B034A136000BFBD465DF8047B70478F
:102900005C73002080B584B000AF786005497868BA
:1029100006F054FE0346FB73FB7B18461037BD469A
:1029200080BD00BF4C73002080B584B000AF7860DC
:102930000549786806F042FE0346FB73FB7B1846A8
:102940001037BD4680BD00BF4073002080B584B005
:1029500000AF78607868FDF743FC03467B81012374
:10296000FB73114B1B883B810023BB8113E0BB89A8
:102970007A6813441B780C49184606F0E2FD0346BA
:10298000FB73FB7B032B03D1074A3B89138006E0D3
:10299000BB890133BB81BA897B899A42E7D3FB7B30
:1029A00018461037BD4680BD4073002080B584B006
:1029B00000AF78600B467B800023FB810CE0FB8935
:1029C0007A6813441B780849184606F0BAFD034696
:1029D0007B73FB890133FB81FA897B889A42EED3B2
:1029E00000BF1037BD4680BD4C73002080B485B059
:1029F00000AFF860B9601346FB80FB6800221A80C4
:102A0000FB6800225A80FB68FA889A80FB68BA68E3
:102A10009A6000BF1437BD465DF8047B704780B4F0
:102A200083B000AF78607B681B6843F020027B684E
:102A30001A6000BF0C37BD465DF8047B704780B557
:102A400084B000AF786039603968786806F0B6FD08
:102A50000346FB73FB7B18461037BD4680BD80B52F
:102A600086B000AFF860B9607A60F868FDF7B8FB2F
:102A700003467B820123FB75BB681B883B820023D6
:102A8000BB821CE0BB8AFA6813441B78B9681846FD
:102A900006F057FD0346FB75FB7D032B03D1BB6896
:102AA0003A8A1A800FE0FB7D002B05D07B681B68FB
:102AB00043F080027B681A60BB8A0133BB82BA8A0A
:102AC0007B8A9A42DED3FB7D18461837BD4680BD0F
:102AD00080B586B000AFF860B9607A60FB68DB69EA
:102AE0009BB2BB82BB8A9BB203F02003002B09D0B0
:102AF000FB689B8C9BB2DBB2B968184606F021FDDF
:102B00000346FB75BB8A9BB203F08003002B1ED0EB
:102B1000FB68DB6923F08002FB68DA6107F11303CD
:102B20007968184606F04AFD0346FB75FB7D022BCB
:102B300006D1FB681B6823F08002FB681A6006E080
:102B4000FB7D002B03D0FB7C9AB2FB681A85BB8A05
:102B50009BB203F00803002B05D0FB681B6A43F00F
:102B60000802FB681A6200BF1837BD4680BD00002E
:102B700080B500AF114B01221A70104B5B680F48F3
:102B800098470E4B9B680D4898470D4B9B680C4827
:102B900098470C4B9B680B4898470B4B9B680A481F
:102BA00098470A4B9B6809489847094B9B68084817
:102BB0009847084B9B6807489847E2E7C4100020F5
:102BC0000C1100202411002054110020F4100020CA
:102BD000DC1000203C11002080B500AFFFF780FE24
:102BE000264806F001F8264BDB68002B04D0244B66
:102BF000DB68012122489847224BDB68002B04D078
:102C0000204BDB6801211F4898471F4BDB68002BD6
:102C100004D01D4BDB6801211B4898471B4BDB6828
:102C2000002B04D0194BDB68012118489847184B3A
:102C3000DB68002B04D0164BDB6801211448984751
:102C4000144B1B8801339AB2124B1A80114B1B880C
:102C5000632B02D90F4B00221A800F4B1B880133C4
:102C60009AB20D4B1A800C4B1B88B3F5FA7F02D336
:102C7000094B00221A8000BF80BD00BF0000002069
:102C8000F4100020DC1000200C1100205411002052
:102C90003C110020627500206475002080B586B06C
:102CA00000AF786007F10C0300221A605A6007F148
:102CB0000C030849184606F095FB78617B69002BE8
:102CC00004D07B681B6979697868984700BF18371A
:102CD000BD4680BDB410002080B582B000AF7860E2
:102CE0003960114B1B6939680F4898470F4B1B69B6
:102CF00039680E4898470E4B1B6939680C4898474D
:102D00000C4B1B6939680B4898470B4B1B6939689A
:102D100009489847094B1B6939680848984700BF1C
:102D20000837BD4680BD00BFF4100020DC10002035
:102D30000C11002054110020241100203C1100200F
:102D400080B582B000AF7860224B01221A70214B0F
:102D50005B68002B03D01F4B5B681E4898471E4BD7
:102D600001221A701C4B5B68002B03D01A4B5B6866
:102D700019489847194B01221A70184B5B68002BB1
:102D800003D0164B5B6815489847154B01221A7003
:102D9000134B5B68002B03D0114B5B6810489847BE
:102DA000104B01221A700F4B5B68002B03D00D4BA8
:102DB0005B680C4898470C4B01221A700A4B5B6801
:102DC000002B03D0084B5B680748984700BF0837C3
:102DD000BD4680BD54110020F4100020DC100020FE
:102DE0000C110020241100203C11002080B584B07B
:102DF00000AF786039600123FB73386806F08FFB01
:102E00000346002B06D00C49386806F0D2FA034678
:102E1000FB7305E00849386806F0B4FA0346FB7313
:102E2000FB7B012B03D0FB7B184600F007F800BFAB
:102E30001037BD4680BD00BFB410002080B483B001
:102E400000AF0346FB7100BF0C37BD465DF8047B45
:102E50007047000080B582B000AF78607B681A6868
:102E6000054BDB689A4202D1034805F037FF00BFEB
:102E70000837BD4680BD00BF0000002080B400AF11
:102E8000084B1B681B6903F00103012B04D1054BA0
:102E90001B686FF001021A6100BFBD465DF8047B3C
:102EA000704700BF9879002080B582B000AF03461C
:102EB000FB80FB88B3F5007F0FD14FF400714FF01A
:102EC000904000F0EDFA0346002B03D0054B0122A1
:102ED0001A7002E0034B00221A7000BF0837BD468B
:102EE00080BD00BF6075002080B582B000AF0023B8
:102EF000FB71032000F018F9002000F00DF80346E4
:102F0000002B02D00123FB7101E008F0ADF9FB7941
:102F100018460837BD4680BD80B584B000AF7860E4
:102F20000023FB730C4B1B680C4AA2FB03239B0979
:102F3000184600F02EF90346002B02D00123FB7344
:102F400005E0002279684FF0FF3000F0F8F8FB7BD5
:102F500018461037BD4680BD7C120020D34D62104C
:102F600080B400AF044B1B680133034A136000BFF9
:102F7000BD465DF8047B70479877002080B400AFB1
:102F8000034B1B681846BD465DF8047B704700BFC5
:102F90009877002080B485B000AF78607B6803F03C
:102FA0000703FB600C4BDB68BB60BA684FF6FF039E
:102FB0001340BB60FB681A02BB68134343F0BF6356
:102FC00043F40033BB60044ABB68D36000BF1437CE
:102FD000BD465DF8047B704700ED00E080B400AFB3
:102FE000044BDB681B0A03F007031846BD465DF877
:102FF000047B704700ED00E080B483B000AF03466F
:10300000FB71094997F907305B09FA7902F01F0251
:10301000012000FA02F241F8232000BF0C37BD4620
:103020005DF8047B704700BF00E100E080B483B02E
:1030300000AF03463960FB7197F90730002B0BDABC
:103040000D49FB7903F00F03043B3A68D2B2120139
:10305000D2B20B441A7609E0084997F907303A686A
:10306000D2B21201D2B20B4483F8002300BF0C3756
:10307000BD465DF8047B704700ED00E000E100E034
:1030800080B489B000AFF860B9607A60FB6803F083
:103090000703FB61FB69C3F10703042B28BF04236B
:1030A000BB61FB690433062B02D9FB69033B00E0DB
:1030B00000237B610122BB6902FA03F35A1EBB683D
:1030C0001A407B699A4001217B6901FA03F3591E7A
:1030D0007B680B40134318462437BD465DF8047BDC
:1030E0007047000080B582B000AF78607B68013B1C
:1030F000B3F1807F01D301230FE00A4A7B68013BD3
:1031000053600F214FF0FF30FFF790FF054B002277
:103110009A60044B07221A60002318460837BD4600
:1031200080BD00BF10E000E080B582B000AF7860E5
:103130007868FFF72FFF00BF0837BD4680BD80B518
:1031400086B000AF0346B9607A60FB7300237B61F1
:10315000FFF744FF78617A68B9687869FFF790FFF4
:10316000024697F90F3011461846FFF75FFF00BF80
:103170001837BD4680BD80B582B000AF0346FB71F5
:1031800097F907301846FFF737FF00BF0837BD46ED
:1031900080BD80B582B000AF78607868FFF7A2FF8D
:1031A000034618460837BD4680BD000080B487B08E
:1031B00000AF7860396000237B6154E13B681A6896
:1031C00001217B6901FA03F31340FB60FB68002BCC
:1031D00000F046813B685B68022B03D03B685B686C
:1031E000122B23D17B69DA087B68083253F822302E
:1031F0003B617B6903F007039B000F2202FA03F394
:10320000DB433A6913403B613B681A697B6903F011
:1032100007039B0002FA03F33A6913433B617B699E
:10322000DA087B680832396943F822107B681B682A
:103230003B617B695B00032202FA03F3DB433A69DB
:1032400013403B613B685B6803F003027B695B00F2
:1032500002FA03F33A6913433B617B683A691A60E7
:103260003B685B68012B0BD03B685B68022B07D087
:103270003B685B68112B03D03B685B68122B30D135
:103280007B689B683B617B695B00032202FA03F366
:10329000DB433A6913403B613B68DA687B695B005A
:1032A00002FA03F33A6913433B617B683A699A6017
:1032B0007B685B683B6101227B6902FA03F3DB43B5
:1032C0003A6913403B613B685B681B0903F00102EC
:1032D0007B6902FA03F33A6913433B617B683A69FD
:1032E0005A607B68DB683B617B695B00032202FA02
:1032F00003F3DB433A6913403B613B689A687B699F
:103300005B0002FA03F33A6913433B617B683A6955
:10331000DA603B685B6803F08053002B00F0A0800C
:10332000584A584B1B6E43F001031366554B1B6EF6
:1033300003F00103BB60BB68534A7B699B080233FF
:1033400052F823303B617B6903F003039B000F229B
:1033500002FA03F3DB433A6913403B617B68B3F144
:10336000904F19D07B68494A934213D07B68484AF2
:1033700093420DD07B68474A934207D07B68464A08
:10338000934201D1042308E0072306E0032304E06D
:10339000022302E0012300E000237A6902F0030225
:1033A000920093403A6913433B6137497B699B081C
:1033B00002333A6941F82320384B1B683B61FB68B4
:1033C000DB433A6913403B613B685B6803F480333D
:1033D000002B03D03A69FB6813433B612F4A3B69DA
:1033E00013602E4B5B683B61FB68DB433A6913401B
:1033F0003B613B685B6803F40033002B03D03A6900
:10340000FB6813433B61254A3B695360234B9B6830
:103410003B61FB68DB433A6913403B613B685B6897
:1034200003F48013002B03D03A69FB6813433B611C
:103430001A4A3B699360194BDB683B61FB68DB43CD
:103440003A6913403B613B685B6803F40013002B4F
:1034500003D03A69FB6813433B61104A3B69D36070
:103460007B6901337B613B681A687B6922FA03F34D
:10347000002B7FF4A3AE00BF1C37BD465DF8047B74
:10348000704700BF001002400000014000040048E7
:1034900000080048000C00480010004800040140EB
:1034A00080B485B000AF78600B467B807B681A697A
:1034B0007B881340002B02D00123FB7301E0002323
:1034C000FB73FB7B18461437BD465DF8047B7047E1
:1034D00080B483B000AF78600B467B8013467B706E
:1034E0007B78002B03D07A887B689A6102E07A8827
:1034F0007B689A6200BF0C37BD465DF8047B70475D
:1035000080B582B000AF0346FB80084B5A69FB8848
:103510001340002B06D0054AFB885361FB881846F0
:10352000FFF7C2FC00BF0837BD4680BD0004014064
:1035300080B582B000AF78607B68002B01D1012399
:1035400080E07B6893F84130DBB2002B06D17B68CA
:10355000002283F84020786807F0F6FC7B6824227C
:1035600083F841207B681B687A681268126822F031
:1035700001021A607B681B687A68526822F07062E8
:103580001A617B681B687A681268926822F40042AC
:103590009A607B68DB68012B07D17B681B687A68BF
:1035A000926842F400429A6006E07B681B687A6881
:1035B000926842F404429A607B68DB68022B04D173
:1035C0007B681B684FF400625A607B681A687B68EE
:1035D0001B685B6843F0007343F4004353607B68EF
:1035E0001B687A681268D26822F40042DA607B684D
:1035F0001B687A6811697A68526911437A6892691E
:1036000012020A43DA607B681B687A68D1697A68BB
:10361000126A0A431A607B681B687A68126812682B
:1036200042F001021A607B6800225A647B68202203
:1036300083F841207B6800221A637B68002283F8AC
:103640004220002318460837BD4680BD80B588B0AB
:1036500002AFF8607A601A460B467B8113463B81C5
:10366000FB6893F84130DBB2202B40F0DA80FB6836
:1036700093F84030012B01D10223D3E0FB680122F3
:1036800083F84020FFF77AFC78617B690093192367
:1036900001224FF40041F86800F0C6FB0346002BFE
:1036A00001D00123BEE0FB68212283F84120FB68A2
:1036B000102283F84220FB6800225A64FB687A6873
:1036C0005A62FB683A895A85FB6800225A63FB6894
:1036D0005B8D9BB2FF2B0ED9FB68FF221A85FB681E
:1036E0001B8DDAB27989514B00934FF08073F868E3
:1036F00000F0BCFC6CE0FB685B8D9AB2FB681A853D
:10370000FB681B8DDAB27989484B00934FF0007348
:10371000F86800F0ABFC5BE07A69396AF86800F0A1
:10372000C3FB0346002B01D001237BE0FB681B6831
:10373000FA68526A12789A62FB685B6A5A1CFB68E4
:103740005A62FB685B8D9BB2013B9AB2FB685A855B
:10375000FB681B8D013B9AB2FB681A85FB685B8D89
:103760009BB2002B34D0FB681B8D002B30D17B69C2
:1037700000933B6A00228021F86800F055FB034665
:10378000002B01D001234DE0FB685B8D9BB2FF2B2A
:103790000ED9FB68FF221A85FB681B8DDAB2798986
:1037A000002300934FF08073F86800F05FFC0FE097
:1037B000FB685B8D9AB2FB681A85FB681B8DDAB2D9
:1037C0007989002300934FF00073F86800F04EFCF5
:1037D000FB685B8D9BB2002B9ED17A69396AF868D1
:1037E00000F0A2FB0346002B01D001231AE0FB6886
:1037F0001B682022DA61FB681A68FB681B6859683D
:103800000B4B0B405360FB68202283F84120FB6880
:10381000002283F84220FB68002283F84020002326
:1038200000E0022318461837BD4680BD0020008006
:1038300000E800FE80B588B002AFF8600846114687
:103840001A4603467B810B463B811346FB80FB688F
:1038500093F84130DBB2202B40F0F9803B6A002B1B
:1038600002D0BB8C002B05D1FB684FF400725A6468
:103870000123EDE0FB6893F84030012B01D10223D6
:10388000E6E0FB68012283F84020FFF777FB7861D0
:103890007B690093192301224FF40041F86800F07E
:1038A000C3FA0346002B01D00123D1E0FB6821229B
:1038B00083F84120FB68402283F84220FB68002205
:1038C0005A64FB683A6A5A62FB68BA8C5A85FB688C
:1038D00000225A63F8883A8979897B690193BB6A27
:1038E00000930346F86800F0D3F90346002B05D097
:1038F000FB68002283F840200123A9E0FB685B8D70
:103900009BB2FF2B0ED9FB68FF221A85FB681B8D2B
:10391000DAB27989002300934FF08073F86800F0E1
:10392000A5FB0FE0FB685B8D9AB2FB681A85FB680C
:103930001B8DDAB27989002300934FF00073F86889
:1039400000F094FB7A69B96AF86800F0ADFA0346B2
:10395000002B01D001237BE0FB681B68FA68526AE8
:1039600012789A62FB685B6A5A1CFB685A62FB68B1
:103970005B8D9BB2013B9AB2FB685A85FB681B8D3D
:10398000013B9AB2FB681A85FB685B8D9BB2002BEA
:1039900034D0FB681B8D002B30D17B690093BB6A50
:1039A00000228021F86800F03FFA0346002B01D086
:1039B00001234DE0FB685B8D9BB2FF2B0ED9FB68AA
:1039C000FF221A85FB681B8DDAB2798900230093E8
:1039D0004FF08073F86800F049FB0FE0FB685B8DE7
:1039E0009AB2FB681A85FB681B8DDAB279890023CD
:1039F00000934FF00073F86800F038FBFB685B8DB4
:103A00009BB2002B9ED17A69B96AF86800F08CFAF3
:103A10000346002B01D001231AE0FB681B6820221B
:103A2000DA61FB681A68FB681B6859680A4B0B402F
:103A30005360FB68202283F84120FB68002283F852
:103A40004220FB68002283F84020002300E002238C
:103A500018461837BD4680BD00E800FE80B588B026
:103A600002AFF860084611461A4603467B810B46B2
:103A70003B811346FB80FB6893F84130DBB2202B7F
:103A800040F0FD803B6A002B02D0BB8C002B05D19F
:103A9000FB684FF400725A640123F1E0FB6893F86D
:103AA0004030012B01D10223EAE0FB68012283F8B8
:103AB0004020FFF763FA78617B69009319230122A4
:103AC0004FF40041F86800F0AFF90346002B01D035
:103AD0000123D5E0FB68222283F84120FB684022C5
:103AE00083F84220FB6800225A64FB683A6A5A62F3
:103AF000FB68BA8C5A85FB6800225A63F8883A89B9
:103B000079897B690193BB6A00930346F86800F0EA
:103B100013F90346002B05D0FB68002283F84020F0
:103B20000123ADE0FB685B8D9BB2FF2B0ED9FB68D8
:103B3000FF221A85FB681B8DDAB27989524B0093FC
:103B40004FF08073F86800F091FA0FE0FB685B8D2E
:103B50009AB2FB681A85FB681B8DDAB279894A4BE9
:103B600000934FF00073F86800F080FA7B690093CF
:103B7000BB6A00220421F86800F056F90346002BC6
:103B800001D001237CE0FB685B6AFA681268526A24
:103B9000D2B21A70FB685B6A5A1CFB685A62FB68F7
:103BA0001B8D013B9AB2FB681A85FB685B8D9BB24B
:103BB000013B9AB2FB685A85FB685B8D9BB2002B78
:103BC00034D0FB681B8D002B30D17B690093BB6A1E
:103BD00000228021F86800F027F90346002B01D06D
:103BE00001234DE0FB685B8D9BB2FF2B0ED9FB6878
:103BF000FF221A85FB681B8DDAB2798900230093B6
:103C00004FF08073F86800F031FA0FE0FB685B8DCD
:103C10009AB2FB681A85FB681B8DDAB2798900239A
:103C200000934FF00073F86800F020FAFB685B8D9A
:103C30009BB2002B9AD17A69B96AF86800F074F9DE
:103C40000346002B01D001231AE0FB681B682022E9
:103C5000DA61FB681A68FB681B6859680B4B0B40FC
:103C60005360FB68202283F84120FB68002283F820
:103C70004220FB68002283F84020002300E002235A
:103C800018461837BD4680BD0024008000E800FEBD
:103C900080B586B002AFF860084611461A46034662
:103CA0007B810B463B811346FB80FB88DAB2798926
:103CB000204B00934FF08073F86800F0D7F9FA6951
:103CC000B969F86800F0F0F80346002B01D0012331
:103CD0002CE0FB88012B05D1FB681B683A89D2B226
:103CE0009A6215E0FB681B683A89120A92B2D2B256
:103CF0009A62FA69B969F86800F0D6F80346002BB1
:103D000001D0012312E0FB681B683A89D2B29A62A3
:103D1000FB690093BB6900228021F86800F084F8F9
:103D20000346002B01D0012300E000231846103782
:103D3000BD4680BD0020008080B586B002AFF8602F
:103D4000084611461A4603467B810B463B811346C3
:103D5000FB80FB88DAB27989204B00930023F86856
:103D600000F084F9FA69B969F86800F09DF8034633
:103D7000002B01D001232CE0FB88012B05D1FB682F
:103D80001B683A89D2B29A6215E0FB681B683A89CF
:103D9000120A92B2D2B29A62FA69B969F86800F06E
:103DA00083F80346002B01D0012312E0FB681B6857
:103DB0003A89D2B29A62FB690093BB690022402122
:103DC000F86800F031F80346002B01D0012300E031
:103DD000002318461037BD4680BD00BF002000807C
:103DE00080B483B000AF78607B681B689B6903F088
:103DF0000203022B03D17B681B6800229A627B6856
:103E00001B689B6903F00103012B07D07B681B68CB
:103E10007A681268926942F001029A6100BF0C3719
:103E2000BD465DF8047B704780B584B000AFF86094
:103E3000B9603B601346FB7122E03B68B3F1FF3F82
:103E40001ED0FFF79BF80246BB69D21A3B689A4224
:103E500002D83B68002B13D1FB685B6C43F0200257
:103E6000FB685A64FB68202283F84120FB6800222B
:103E700083F84220FB68002283F8402001230FE0F2
:103E8000FB681B689A69BB681A40BB689A420CBF02
:103E900001230023DBB21A46FB799A42CDD00023DE
:103EA00018461037BD4680BD80B584B000AFF860BD
:103EB000B9607A602CE07A68B968F86800F070F848
:103EC0000346002B01D001232AE0BB68B3F1FF3F7A
:103ED0001ED0FFF753F802467B68D21ABB689A429D
:103EE00002D8BB68002B13D1FB685B6C43F0200247
:103EF000FB685A64FB68202283F84120FB6800229B
:103F000083F84220FB68002283F84020012307E069
:103F1000FB681B689B6903F00203022BCBD10023D3
:103F200018461037BD4680BD80B584B000AFF8603C
:103F3000B9607A6028E07A68B968F86800F030F80B
:103F40000346002B01D0012326E0FFF717F80246B5
:103F50007B68D21ABB689A4202D8BB68002B13D187
:103F6000FB685B6C43F02002FB685A64FB6820220C
:103F700083F84120FB68002283F84220FB6800227E
:103F800083F84020012307E0FB681B689B6903F06E
:103F90002003202BCFD1002318461037BD4680BD0B
:103FA00080B584B000AFF860B9607A60FB681B68C8
:103FB0009B6903F01003102B51D122E0BB68B3F1D1
:103FC000FF3F1ED0FEF7DAFF02467B68D21ABB68BD
:103FD0009A4202D8BB68002B13D1FB685B6C43F09C
:103FE0002002FB685A64FB68202283F84120FB68AA
:103FF000002283F84220FB68002283F8402001233E
:104000002EE0FB681B689B6903F02003202BD5D1B1
:10401000FB681B681022DA61FB681B682022DA61EA
:10402000F868FFF7DDFEFB681A68FB681B685968D3
:104030000D4B0B405360FB685B6C43F00402FB6864
:104040005A64FB68202283F84120FB68002283F831
:104050004220FB68002283F84020012300E0002377
:1040600018461037BD4680BD00E800FE80B485B01C
:1040700000AFF8607B600B467B8113467B72FB6868
:104080001A68FB681B685968BB695B0D03F48060A4
:104090000B4B0343DB4319407B89C3F309007B7A55
:1040A0001B0403F47F0318437B681843BB69034375
:1040B0000B43536000BF1437BD465DF8047B704767
:1040C000FF63FF0380B483B000AF786039607B6822
:1040D00093F84130DBB2202B38D17B6893F8403025
:1040E000012B01D1022332E07B68012283F84020BA
:1040F0007B68242283F841207B681B687A681268F9
:10410000126822F001021A607B681B687A681268E4
:10411000126822F480521A607B681B687A68126801
:1041200011683A680A431A607B681B687A681268EB
:10413000126842F001021A607B68202283F8412055
:104140007B68002283F84020002300E00223184609
:104150000C37BD465DF8047B704780B485B000AF76
:10416000786039607B6893F84130DBB2202B39D11D
:104170007B6893F84030012B01D1022333E07B6848
:10418000012283F840207B68242283F841207B6849
:104190001B687A681268126822F001021A607B6854
:1041A0001B681B68FB60FB6823F47063FB603B6863
:1041B0001B02FA681343FB607B681B68FA681A608D
:1041C0007B681B687A681268126842F001021A6004
:1041D0007B68202283F841207B68002283F84020FE
:1041E000002300E0022318461437BD465DF8047B27
:1041F0007047000080B584B000AF78600023FB609A
:104200007B68002B01D1012376E07B6893F8363080
:10421000DBB2002B06D17B68002283F8352078685A
:1042200006F02EFF7B68022283F836207B681B682D
:10423000DB68FB607B685B68012B03D1FB6823F0C4
:104240001E03FB607B685B694FF6FF72934205D0EB
:10425000FB6823F4604323F0C003FB60FA68284B3B
:104260001340FB607B685A687B689B681A437B68D5
:104270001B6A1A437B685B6A1A437B689B6A134319
:10428000FA681343FB607B685B68012B07D17B688E
:10429000DA687B681B691343FA681343FB607B6829
:1042A0005B694FF6FF7293420AD07B685A697B685C
:1042B0009B691A437B68DB691343FA681343FB600D
:1042C0007B681B68FA68DA607B681B680D4A93425A
:1042D00008D17B681B687A68D16A7A68126B0A43D6
:1042E0001A6204E07B681B687A68D26A1A627B688B
:1042F000012283F83620002318461037BD4680BDC2
:10430000FEF119FF007C004080B582B000AF7860FC
:104310007B681B681B6803F00103012B0DD17B68D0
:104320001B689B6803F00103012B06D17B681B68A7
:1043300001225A60786800F082F87B681B681B686D
:1043400003F00203022B0DD17B681B689B6803F00E
:104350000203022B06D17B681B6802225A60786830
:1043600000F077F87B681B681B6803F00403042BDC
:104370000DD17B681B689B6803F00403042B06D1F6
:104380007B681B6804225A60786800F06CF87B68D0
:104390001B681B6803F00803082B0DD17B681B68A2
:1043A0009B6803F00803082B06D17B681B68082272
:1043B0005A60786800F061F87B681B681B6803F03E
:1043C0001003102B0DD17B681B689B6803F0100352
:1043D000102B06D17B681B6810225A60786800F0A9
:1043E00056F87B681B681B6803F02003202B0DD157
:1043F0007B681B689B6803F02003202B06D17B6839
:104400001B6820225A60786800F04BF87B681B68B4
:104410001B6803F04003402B0DD17B681B689B6831
:1044200003F04003402B06D17B681B6840225A6092
:10443000786800F040F800BF0837BD4680BD80B402
:1044400083B000AF786000BF0C37BD465DF8047BD9
:10445000704780B483B000AF786000BF0C37BD46B2
:104460005DF8047B704780B483B000AF786000BF14
:104470000C37BD465DF8047B704780B483B000AF55
:10448000786000BF0C37BD465DF8047B704780B490
:1044900083B000AF786000BF0C37BD465DF8047B89
:1044A000704780B483B000AF786000BF0C37BD4662
:1044B0005DF8047B704780B483B000AF786000BFC4
:1044C0000C37BD465DF8047B7047F0B58BB006AF86
:1044D00078607B68002B01D10123CBE07B6893F8E7
:1044E0002934DBB2002B06D17B68002283F8282414
:1044F000786807F041FC7B68032283F829247B68F5
:104500001B68184603F0A6F97B681B683B607E6851
:104510006D4606F110040FCC0FC523682B60331DC8
:104520000ECB386803F06DF97B681B6800211846D4
:1045300003F0ADF90023FB7335E0FB7B7A685B0188
:104540001344293301221A70FB7B7A685B01134400
:104550002833FA7B1A70FB7BFA7B91B27A685B0195
:10456000134436330A461A80FB7B7A685B01134496
:104570002B3300221A70FB7B7A685B0113443833BB
:1045800000221A60FB7B7A685B0113443C330022F3
:104590001A60FB7B7A6802335B01134400221A60C5
:1045A000FB7B0133FB73FB7B0E2BC6D90023FB7314
:1045B00031E0FB7B7A685B01134403F2292300227C
:1045C0001A70FB7B7A685B01134403F50A73FA7B6C
:1045D0001A70FB7B7A685B01134403F22B230022E1
:1045E0001A70FB7B7A685B01134403F50E7300229B
:1045F0001A60FB7B7A685B01134403F50F7300229A
:104600001A60FB7B7A6812335B01134400221A6044
:10461000FB7B0133FB73FB7B0E2BCAD97B681B68CA
:104620003B607E686D4606F110040FCC0FC5236811
:104630002B60331D0ECB386803F036F97B680022FF
:1046400083F824207B68012283F829247B68DB69B6
:10465000012B02D1786800F05EFE7B681B6A012B9B
:1046600002D1786800F031FE7B681B68184604F0C0
:1046700066F9002318461437BD46F0BD80B582B0F8
:1046800000AF78607B6893F82834012B01D10223B6
:1046900012E07B68012283F828247B681B68184697
:1046A00004F036F97B681B68184603F0BBF87B689A
:1046B000002283F82824002318460837BD4680BD11
:1046C00080B582B000AF78607B681B68184604F044
:1046D0004BF9034603F40043B3F5004F02D1786869
:1046E00000F040FB7B681B68184604F03DF9034668
:1046F00003F48063B3F5806F12D17B681B687A681E
:104700001268B2F8442092B222F4806292B2A3F806
:104710004420786807F0B7FB0021786800F029F999
:104720007B681B68184604F01FF9034603F48043B6
:10473000B3F5804F0BD17B681B687A681268B2F8BA
:10474000442092B222F4804292B2A3F844207B68C3
:104750001B68184604F008F9034603F40053B3F548
:10476000005F0BD17B681B687A681268B2F844203E
:1047700092B222F4005292B2A3F844207B681B68E4
:10478000184604F0F1F8034603F48053B3F5805F54
:1047900033D17B681B687A681268B2F8402092B205
:1047A00022F0040292B2A3F840207B681B687A686A
:1047B0001268B2F8402092B222F0080292B2A3F836
:1047C00040207B6893F86034012B07D17B6800227E
:1047D00083F860240021786807F008FE786807F005
:1047E0008FFB7B681B687A681268B2F8442092B22B
:1047F00022F4805292B2A3F844207B681B681846CA
:1048000004F0B2F8034603F40063B3F5006F31D14E
:104810007B681B687A681268B2F8402092B242F056
:10482000080292B2A3F840207B681B687A6812687D
:10483000B2F8442092B222F4006292B2A3F844206B
:104840007B681B687A681268B2F8402092B242F026
:10485000040292B2A3F840207B681B68184604F05B
:1048600083F8034603F48053B3F5805F02D0786881
:1048700007F02CFB7B681B68184604F075F80346AC
:1048800003F08003802B3FD17B681B687A68126835
:10489000B2F8442092B222F0800292B2A3F84420EF
:1048A0007B6893F86034002B2BD17B681B687A6897
:1048B0001268B2F8402092B242F0040292B2A3F819
:1048C00040207B681B687A681268B2F8402092B278
:1048D00042F0080292B2A3F840207B68012283F8DC
:1048E00060247B681B68B3F854309BB29B0803F0CC
:1048F0003C027B68C3F864240121786807F076FDE8
:1049000002E0786807F0E2FA7B681B68184604F05A
:104910002BF8034603F40073B3F5007F0ED17B68D8
:104920001B687A681268B2F8442092B222F40072CE
:1049300092B2A3F84420786807F097FA7B681B6866
:10494000184604F011F8034603F48073B3F5807F32
:104950000BD17B681B687A681268B2F8442092B267
:1049600022F4807292B2A3F8442000BF0837BD46FB
:1049700080BD80B582B000AF78600B46FB707B686D
:1049800093F82834012B01D1022313E07B68012224
:1049900083F828247B68FA7883F824207B681B68D6
:1049A000FA781146184603F09FFF7B68002283F8CF
:1049B0002824002318460837BD4680BD80B584B042
:1049C00000AF7860084611461A460346FB700B4656
:1049D0003B801346BB700023FB7297F90330002B1A
:1049E0000BDAFB7803F00F035B0128337A6813447A
:1049F000FB60FB6801225A700BE0FB7803F00F03A9
:104A00005B0103F50A737A681344FB60FB680022BC
:104A10005A70FB7803F00F03DAB2FB681A703A8819
:104A2000FB681A61FB68BA78DA70FB685B78002B68
:104A300004D0FB681B789AB2FB68DA81BB78022B42
:104A400002D1FB6800221A717B6893F82834012B8D
:104A500001D102230EE07B68012283F828247B68C1
:104A60001B68F968184602F043FF7B68002283F850
:104A70002824FB7A18461037BD4680BD80B584B027
:104A800000AF78600B46FB7097F90330002B0BDA10
:104A9000FB7803F00F035B0128337A681344FB6053
:104AA000FB6801225A700BE0FB7803F00F035B01F7
:104AB00003F50A737A681344FB60FB6800225A709E
:104AC000FB7803F00F03DAB2FB681A707B6893F887
:104AD0002834012B01D102230EE07B68012283F8E8
:104AE00028247B681B68F968184603F0E3F97B68A3
:104AF000002283F82824002318461037BD4680BDC5
:104B000080B586B000AFF8607A603B600B46FB7200
:104B1000FB7A03F00F035B0103F50A73FA68134491
:104B20007B617B697A685A617B693A689A617B69C3
:104B30000022DA617B6900225A70FB7A03F00F03CE
:104B4000DAB27B691A70FB7A03F00F03002B06D1EF
:104B5000FB681B687969184603F042FB05E0FB68B7
:104B60001B687969184603F03BFB00231846183789
:104B7000BD4680BD80B483B000AF78600B46FB704B
:104B8000FB7803F00F037A6812335B01134404339C
:104B90001B689BB218460C37BD465DF8047B704716
:104BA00080B586B000AFF8607A603B600B46FB7260
:104BB000FB7A03F00F035B012833FA6813447B612F
:104BC0007B697A685A617B693A689A617B690022DD
:104BD000DA617B6901225A70FB7A03F00F03DAB2C3
:104BE0007B691A70FB7A03F00F03002B06D1FB6878
:104BF0001B687969184603F0F3FA05E0FB681B6847
:104C00007969184603F0ECFA002318461837BD46B8
:104C100080BD80B584B000AF78600B46FB70FB7838
:104C200003F00F027B685B689A4201D9012346E0DA
:104C300097F90330002B0BDAFB7803F00F035B01CD
:104C400028337A681344FB60FB6801225A7009E03C
:104C5000FB785B0103F50A737A681344FB60FB6819
:104C600000225A70FB6801229A70FB7803F00F0350
:104C7000DAB2FB681A707B6893F82834012B01D1F3
:104C800002231CE07B68012283F828247B681B68D0
:104C9000F968184603F058FDFB7803F00F03002B6A
:104CA00008D17B681A687B6803F58663194610464D
:104CB00003F06AFE7B68002283F82824002318464C
:104CC0001037BD4680BD80B584B000AF78600B461C
:104CD000FB70FB7803F00F027B685B689A4201D996
:104CE00001233AE097F90330002B0BDAFB7803F04D
:104CF0000F035B0128337A681344FB60FB680122D1
:104D00005A700BE0FB7803F00F035B0103F50A73A5
:104D10007A681344FB60FB6800225A70FB6800222B
:104D20009A70FB7803F00F03DAB2FB681A707B68A5
:104D300093F82834012B01D102230EE07B68012275
:104D400083F828247B681B68F968184603F03EFD49
:104D50007B68002283F82824002318461037BD46BC
:104D600080BD000090B589B000AF78605EE27B68DE
:104D70001B68B3F84430FB82FB8ADBB203F00F03FD
:104D80007B757B7D002B40F02C81FB8A03F01003A8
:104D9000002B4BD17B681B681B889BB223F4E1433B
:104DA00023F070039CB27B681B6822461A807B68E4
:104DB00028333B617B681B68B3F850309BB21A46BE
:104DC0003B691B78DB0013447A681268134403F2D2
:104DD00002431B88C3F309023B69DA613B695A69E4
:104DE0003B69DB691A443B695A610021786807F026
:104DF00025F87B6893F82430DBB2002B00F0168294
:104E00003B699B69002B40F011827B681B687A68C4
:104E100092F82420D2B262F07F02D2B292B2A3F80A
:104E20004C207B68002283F82420FFE17B6803F597
:104E30000A733B617B681B681B88FB81FB8903F459
:104E40000063002B2FD07B681B68B3F850309BB2F7
:104E50001A463B691B78DB0013447A6812681344D6
:104E600003F206431B88C3F309023B69DA617B68DE
:104E700018687B6803F586613B69DA883B69DB6902
:104E80009BB203F0CEFD7B681B681B889AB240F68C
:104E90008F7313409CB27B681B6822461A80786827
:104EA00006F0A2FFC2E1B7F90E30002B80F2BE81FE
:104EB0007B681B681B889AB240F68F7313409CB2C4
:104EC0007B681B6822461A807B681B68B3F85030E9
:104ED0009BB21A463B691B78DB0013447A68126860
:104EE000134403F206431B88C3F309023B69DA61EA
:104EF0003B69DB69002B11D07B6818683B695969F5
:104F00003B69DA883B69DB699BB203F08AFD3B6948
:104F10005A693B69DB691A443B695A610021786828
:104F200006F074FF7B681B681C467B681B68B3F83F
:104F300050309BB21C4404F20643BB603B691B69C2
:104F4000002B11D1BB681A8843F2FF3313409AB289
:104F5000BB681A80BB681B886FEA43436FEA534300
:104F60009AB2BB681A8026E03B691B693D2B13D8B7
:104F70003B691B695B08BB613B691B6903F001036B
:104F8000002B02D0BB690133BB61BB699BB29B02A2
:104F90009AB2BB681A800EE03B691B695B09BB6172
:104FA000BB699BB29B029BB26FEA43436FEA5343D8
:104FB0009AB2BB681A807B681B681B889BB223F47B
:104FC000804323F070039CB284F480539CB284F439
:104FD00000539CB27B681A689B4B23439BB213809F
:104FE00024E17B681B681A467B7D9B0013441B8869
:104FF000FB81B7F90E30002B80F2C9807B681B68FB
:105000001A467B7D9B0013441B889AB240F68F732F
:1050100013409CB27B681B681A467B7D9B0013443F
:1050200022461A807B7D5B0103F50A737A6813447C
:105030003B613B691B7B002B1FD17B681B68B3F86E
:1050400050309BB21A463B691B78DB0013447A68E8
:105050001268134403F206431B88C3F30903FB835E
:10506000FB8B002B6ED07B6818683B6959693B69E4
:10507000DA88FB8B03F0D5FC64E07B681B681A467A
:105080003B691B789B0013441B889BB203F480434D
:10509000002B1FD07B681B68B3F850309BB21A46B8
:1050A0003B691B78DB0013447A681268134403F2EF
:1050B00002431B88C3F30903FB83FB8B002B28D01F
:1050C0007B6818683B6959693B691A89FB8B03F057
:1050D000A8FC1EE07B681B68B3F850309BB21A46F0
:1050E0003B691B78DB0013447A681268134403F2AF
:1050F00006431B88C3F30903FB83FB8B002B08D0FB
:105100007B6818683B6959693B695A89FB8B03F0D6
:1051100088FC7B681B681A463B691B789B0013441C
:105120001B889BB223F4E04323F070039CB27B689E
:105130001B681A463B691B789B001A44434B234368
:105140009BB213803B69DA69FB8B1A443B69DA61D5
:105150003B695A69FB8B1A443B695A613B699B69FD
:10516000002B04D0FA8B3B691B699A4206D23B693B
:105170001B781946786806F049FE08E03B69197803
:105180003B695A693B699B697868FFF7B9FCFB8901
:1051900003F08003002B49D07B7D5B0128337A68C4
:1051A00013443B617B681B681A467B7D9B0013445C
:1051B0001B889BB223F4E14323F070039CB27B680D
:1051C0001B681A467B7D9B00134422461A807B682D
:1051D0001B68B3F850309BB21A463B691B78DB0062
:1051E00013447A681268134403F202431B88C3F322
:1051F00009023B69DA613B695A693B69DB691A4418
:105200003B695A613B699B69002B06D13B691B785E
:105210001946786806F012FE08E03B6919783B6988
:105220005A693B699B697868FFF7BAFC7B681B6821
:10523000B3F844309BB21BB2002BFFF698AD0023AD
:1052400018462437BD4690BD8080FFFFC080FFFF19
:1052500080B487B000AFF8607B600B467B8113465B
:105260003B817B8903F080039BB2002B08D07B89B4
:1052700003F00F035B012833FA6813447B6106E0F7
:105280007B895B0103F50A73FA6813447B613B89F0
:10529000002B07D17B6900221A737B689AB27B6965
:1052A000DA800BE07B6901221A737B689AB27B6912
:1052B0001A817B681B0C9AB27B695A8100231846BD
:1052C0001C37BD465DF8047B704780B485B000AFE5
:1052D00078607B681B68FB607B680122C3F86C24E4
:1052E000FB68B3F858309BB243F001039AB2FB68F5
:1052F000A3F85820FB68B3F858309BB243F0020380
:105300009AB2FB68A3F85820002318461437BD460C
:105310005DF8047B704780B485B000AF78607B682F
:105320001B68FB607B680122C3F868247B6800224D
:1053300083F86024FB68B3F854309BB243F0010358
:105340009AB2FB68A3F85420FB68B3F854309BB2C0
:1053500043F002039AB2FB68A3F8542000231846D6
:105360001437BD465DF8047B7047000080B400AF81
:10537000044B1B6803F4C0631846BD465DF8047B0C
:10538000704700BF0070004080B485B000AF786007
:105390007B68B3F5007F30D1234B1B6803F4C063F7
:1053A000B3F5007F38D0204A1F4B1B6823F4C0633D
:1053B00043F4007313601D4B1B68322202FB03F39E
:1053C0001B4AA2FB03239B0C0133FB6002E0FB683A
:1053D000013BFB60144B5B6903F48063B3F5806FA2
:1053E00002D1FB68002BF2D10F4B5B6903F48063A1
:1053F000B3F5806F10D103230FE00B4B1B6803F450
:10540000C063B3F5806F07D0074A074B1B6823F4CE
:10541000C06343F480631360002318461437BD460D
:105420005DF8047B704700BF007000407C120020D4
:1054300083DE1B4380B400AF054A054B5B6843F431
:105440008063536000BFBD465DF8047B704700BFBA
:105450000070004080B588B000AF78607B68002B9A
:1054600001D1012395E3A34B9B6803F00C03BB61BF
:10547000A04BDB6803F003037B617B681B6803F0D0
:105480001003002B00F0DF80BB69002B07D0BB6945
:105490000C2B40F086807B69012B40F08280954B7D
:1054A0001B6803F00203002B05D07B689B69002B6F
:1054B00001D101236DE37B681A6A8E4B1B6803F0F0
:1054C0000803002B04D08B4B1B6803F0F00305E0AE
:1054D000884BD3F894301B0903F0F0039A4223D988
:1054E0007B681B6A184600F00DFD0346002B01D0B7
:1054F00001234EE37F4A7F4B1B6843F00803136090
:105500007C497C4B1B6823F0F0027B681B6A1343C9
:105510000B607849774B5B6823F47F427B68DB69DB
:105520001B0213434B6022E0724A724B1B6843F02C
:10553000080313606F496F4B1B6823F0F0027B6810
:105540001B6A13430B606B496A4B5B6823F47F4211
:105550007B68DB691B0213434B607B681B6A184640
:1055600000F0D0FC0346002B01D0012311E300F032
:10557000F5FB01465F4B9B681B0903F00F035E4A76
:10558000D35C03F01F0321FA03F35C4A136000208D
:10559000FDF7C2FC0346FB73FB7B002B52D0FB7B69
:1055A000F7E27B689B69002B32D0524A514B1B6853
:1055B00043F001031360FDF7E1FC386108E0FDF7FB
:1055C000DDFC02463B69D31A022B01D90323E0E23A
:1055D000484B1B6803F00203002BF0D0454A454BB3
:1055E0001B6843F0080313604249424B1B6823F0D9
:1055F000F0027B681B6A13430B603E493D4B5B68BE
:1056000023F47F427B68DB691B0213434B601AE083
:10561000384A384B1B6823F001031360FDF7AEFCDA
:10562000386108E0FDF7AAFC02463B69D31A022B59
:1056300001D90323ADE22F4B1B6803F00203002BBB
:10564000F0D100E000BF7B681B6803F00103002B72
:1056500072D0BB69082B05D0BB690C2B0ED17B69BE
:10566000032B0BD1234B1B6803F40033002B62D0B8
:105670007B685B68002B5ED101238AE27B685B68F4
:10568000B3F5803F06D11B4A1A4B1B6843F48033A5
:1056900013601DE07B685B68B3F5A02F0CD1154A41
:1056A000144B1B6843F480231360124A114B1B6890
:1056B00043F4803313600BE00E4A0E4B1B6823F457
:1056C000803313600B4A0B4B1B6823F48023136059
:1056D0007B685B68002B1AD0FDF750FC38610FE047
:1056E000FDF74CFC02463B69D31A642B08D903230F
:1056F0004FE200BF00100240A4D100087C1200203D
:10570000AE4B1B6803F40033002BE9D014E0FDF727
:1057100035FC386108E0FDF731FC02463B69D31ADD
:10572000642B01D9032334E2A44B1B6803F4003338
:10573000002BF0D100E000BF7B681B6803F0020380
:10574000002B60D0BB69042B05D0BB690C2B19D191
:105750007B69022B16D1994B1B6803F48063002BE5
:1057600005D07B68DB68002B01D1012311E293494E
:10577000924B5B6823F0FE427B681B691B06134358
:105780004B6040E07B68DB68002B23D08B4A8B4B5F
:105790001B6843F480731360FDF7F0FB386108E089
:1057A000FDF7ECFB02463B69D31A022B01D9032318
:1057B000EFE1824B1B6803F48063002BF0D07F493C
:1057C0007E4B5B6823F0FE427B681B691B0613431C
:1057D0004B6018E0794A794B1B6823F4807313609F
:1057E000FDF7CCFB386108E0FDF7C8FB02463B69DA
:1057F000D31A022B01D90323CBE1704B1B6803F4AE
:105800008063002BF0D17B681B6803F00803002B3A
:105810003CD07B685B69002B1CD0684A674BD3F88F
:10582000943043F00103C2F89430FDF7A7FB3861D0
:1058300008E0FDF7A3FB02463B69D31A022B01D90E
:105840000323A6E15D4BD3F8943003F00203002B51
:10585000EFD01BE0594A594BD3F8943023F00103A1
:10586000C2F89430FDF78AFB386108E0FDF786FB4B
:1058700002463B69D31A022B01D9032389E14F4B1E
:10588000D3F8943003F00203002BEFD17B681B6840
:1058900003F00403002B00F0A5800023FB77474BA7
:1058A0009B6D03F08053002B0DD1444A434B9B6DFD
:1058B00043F080539365414B9B6D03F08053BB6075
:1058C000BB680123FB773E4B1B6803F48073002BFE
:1058D00018D13B4A3A4B1B6843F480731360FDF7C1
:1058E0004DFB386108E0FDF749FB02463B69D31ADE
:1058F000022B01D903234CE1314B1B6803F4807365
:10590000002BF0D07B689B68012B08D12B4A2B4BD6
:10591000D3F8903043F00103C2F8903024E07B6864
:105920009B68052B10D1254A244BD3F8903043F0C7
:105930000403C2F89030214A204BD3F8903043F052
:105940000103C2F890300FE01C4A1C4BD3F8903092
:1059500023F00103C2F89030184A184BD3F8903066
:1059600023F00403C2F890307B689B68002B16D0AC
:10597000FDF704FB38610AE0FDF700FB02463B69D6
:10598000D31A41F28832934201D9032301E10B4B30
:10599000D3F8903003F00203002BEDD019E0FDF7AF
:1059A000EDFA38610EE0FDF7E9FA02463B69D31AD9
:1059B00041F28832934205D90323EAE00010024005
:1059C00000700040754BD3F8903003F00203002BB9
:1059D000E9D1FB7F012B05D1704A704B9B6D23F001
:1059E000805393657B681B6803F02003002B3CD039
:1059F0007B685B6A002B1CD0684A684BD3F89830F0
:105A000043F00103C2F89830FDF7B8FA386108E0B6
:105A1000FDF7B4FA02463B69D31A022B01D90323DE
:105A2000B7E05E4BD3F8983003F00203002BEFD0C1
:105A30001BE05A4A594BD3F8983023F00103C2F8BF
:105A40009830FDF79BFA386108E0FDF797FA0246B7
:105A50003B69D31A022B01D903239AE04F4BD3F8A9
:105A6000983003F00203002BEFD17B689B6A002B78
:105A700000F08E80BB690C2B00F088807B689B6AED
:105A8000022B55D1454A454B1B6823F080731360A8
:105A9000FDF774FA386108E0FDF770FA02463B69D9
:105AA000D31A022B01D9032373E03C4B1B6803F08C
:105AB0000073002BF0D139497B681B6B013B1A0145
:105AC0007B685B6B1B021A437B68DB6A1A437B684B
:105AD000DB6B5B08013B5B051A437B681B6C5B0857
