:020000040800F2
:10000000008002203DBF0008F9A7000807A80008EB
:100010000DA8000813A8000819A800080000000097
:100020000000000000000000000000001FA8000801
:100030002DA80008000000003BA8000849A80008FF
:100040008DBF00088DBF00088DBF00088DBF000860
:100050008DBF00088DBF00088DBF00088DBF000850
:100060008DBF00088DBF00088DBF00088DBF000840
:100070008DBF00088DBF00088DBF00088DBF000830
:100080008DBF00088DBF00088DBF00088DBF000820
:100090008DBF00088DBF00088DBF000859A800085B
:1000A00069A80008291D000885A8000899A800086B
:1000B000ADA80008C1A80008000000008DBF00081E
:1000C0008DBF00088DBF00088DBF00088DBF0008E0
:1000D0008DBF0008050C0008190C00088DBF000832
:1000E0008DBF00088DBF0008000000000000000068
:1000F0000000000000000000000000000000000000
:10010000000000008DBF0008000000008DBF000847
:100110003916000800000000D5A800080000000003
:100120008DBF00088DBF00088DBF00088DBF00087F
:100130008DBF00088DBF00088DBF000800000000C3
:100140008DBF0008E9A80008FDA8000811A9000853
:100150008DBF00088DBF00088DBF00088DBF00084F
:100160008DBF00088DBF00088DBF00080000000093
:10017000000000008DBF000800000000000000002B
:100180008DBF00088DBF00088DBF00088DBF00081F
:040190008DBF000817
:1001940010B5054C237833B9044B13B10448AFF3BD
:1001A40000800123237010BD6009002000000000BE
:1001B40000C0000808B5034B1BB103490348AFF363
:1001C400008008BD000000006409002000C0000891
:1001D40053B94AB9002908BF00281CBF4FF0FF31AA
:1001E4004FF0FF3000F07AB9ADF1080C6DE904CEA0
:1001F40000F006F8DDF804E0DDE9022304B07047FE
:100204002DE9F0478C460D460446089E002B51D13B
:100214008A4217466DD9B2FA82FEBEF1000F0BD0A6
:10022400CEF1200C01FA0EF520FA0CFC02FA0EF7BE
:100234004CEA050C00FA0EF44FEA174A250CBCFBF5
:10024400FAF81FFA87F90AFB18CC45EA0C4508FBB3
:1002540009F3AB420AD9ED1908F1FF3280F023818A
:10026400AB4240F22081A8F102083D44ED1AA4B249
:10027400B5FBFAF00AFB105544EA054400FB09F902
:10028400A14509D9E41900F1FF3380F00A81A145A1
:1002940040F2078102383C44A4EB090440EA0840D8
:1002A4000021002E61D024FA0EF400233460736020
:1002B400BDE8F0878B4207D9002E54D0002186E890
:1002C40021000846BDE8F087B3FA83F1002940F025
:1002D4008E80AB4202D3824200F2FA80841A65EB2C
:1002E40003050120AC46002E3FD086E81010BDE87F
:1002F400F08712B90127B7FBF2F7B7FA87FEBEF110
:10030400000F34D1EB1B3A0C1FFA87FC0121B3FB1D
:10031400F2F8250C02FB183345EA03450CFB08F3FD
:10032400AB4207D9ED1908F1FF3002D2AB4200F21B
:10033400D1808046ED1AA3B2B5FBF2F002FB105552
:1003440043EA05440CFB00FCA44507D9E41900F179
:10035400FF3302D2A44500F2B8801846A4EB0C0483
:1003640040EA08409DE731463046BDE8F087CEF1CB
:10037400200405FA0EF307FA0EF720FA04F83A0CF3
:1003840025FA04F448EA0308B4FBF2F14FEA1845ED
:1003940002FB11441FFA87FC45EA044501FB0CF3F8
:1003A400AB4200FA0EF409D9ED1901F1FF3080F0E7
:1003B4008A80AB4240F2878002393D44EB1A1FFA2F
:1003C40088F5B3FBF2F002FB103345EA034500FB6A
:1003D4000CF3AB4207D9ED1900F1FF386FD2AB42F1
:1003E4006DD902383D44EB1A40EA01418FE7C1F16F
:1003F400200722FA07F88B4005FA01F448EA0303C0
:1004040020FA07FE4FEA134CFD404EEA040EB5FBFA
:10041400FCF94FEA1E440CFB19551FFA83F844EA11
:10042400054509FB08F4AC4202FA01F200FA01FAAC
:1004340008D9ED1809F1FF3043D2AC4241D9A9F1F2
:1004440002091D442D1B1FFA8EFEB5FBFCF00CFBAC
:1004540010554EEA054400FB08F8A04507D9E418F6
:1004640000F1FF3529D2A04527D902381C4440EABF
:100474000940A4EB0804A0FB02894C45C6464D463E
:1004840015D312D056B1BAEB0E0364EB050404FA8B
:1004940007F7CB401F43CC40376074600021BDE8B0
:1004A400F0871846F8E69046E0E6C245EAD2B8EB93
:1004B400020E69EB03050138E4E72846D7E7404616
:1004C40091E78146BEE7014678E702383C4445E7B8
:1004D400084608E7A8F102083D442BE7704700BF2F
:1004E40080B582B000AF7860052200210D480BF082
:1004F4007CFD052200210C480BF077FD0A22002127
:100504000A480BF072FD0A22002109480BF06DFD28
:100514000A22002107480BF068FD00BF0837BD46DA
:1005240080BD00BF7C090020840900208C090020C4
:1005340098090020A409002080B582B000AF78603B
:100544007B681B7883F00103DBB2002B11D10C4BC9
:100554001B78DBB283F00103DBB2002B0BD178688C
:1005640000F03EF8786800F0B9F8054B00221A70E4
:1005740002E000BF00E000BF0837BD4680BD00BFF9
:10058400AE09002080B483B000AF78600B46FB70E6
:100594000B4B01221A700B4B1B881BB2002B08DD7E
:1005A400084B1B881BB29BB2013B9BB21AB2054B92
:1005B4001A8000BF0C37BD465DF8047B704700BF4E
:1005C400AE090020B009002080B483B000AF786089
:1005D400396000BF0C37BD465DF8047B70470000EE
:1005E40080B582B000AF78604FF480614FF09040E6
:1005F40001F0ACFE0346002B07D1374B1B7843F0C8
:100604000103DAB2344B1A7006E0334B1B7823F043
:100614000103DAB2304B1A7010214FF0904001F010
:1006240095FE0346002B07D12B4B1B7843F00203A6
:10063400DAB2294B1A7006E0274B1B7823F0020329
:10064400DAB2254B1A7020214FF0904001F07EFE63
:100654000346002B07D1204B1B7843F00403DAB286
:100664001D4B1A7006E01C4B1B7823F00403DAB20E
:10067400194B1A7040214FF0904001F067FE034679
:10068400002B07D1144B1B7843F00803DAB2124B4A
:100694001A7006E0104B1B7823F00803DAB20E4BF5
:1006A4001A7080214FF0904001F050FE0346002B59
:1006B40007D1094B1B7843F01003DAB2064B1A70CA
:1006C40006E0054B1B7823F01003DAB2024B1A70D4
:1006D40000BF0837BD4680BD8409002080B58CB0BA
:1006E40000AF7860A34B1B781A46A34B9B5CFF2B8F
:1006F40000F02F819F4B1B781A469F4B9B5C03F0A5
:100704000F03012202FA03F3FB859A4B1B781A4666
:10071400994B9B5C1B0987F82D3097F82D30974A2D
:10072400D35C1A46FB8D1340002B5DD1914B1B7893
:100734001A46934B33F81230002B00F0A4808D4BF3
:100744001B788F4A32F81320013A91B28C4A22F86E
:100754001310884B1B781A46894B33F81230002B40
:1007640040F0918097F82D30864AD35C1A46FB8D71
:100774001340002B00F087807B685B69002B14D04A
:100784007C4B1B789BB2BB840023FB84422387F8F9
:100794002830002387F8293000237B857B685B6938
:1007A40007F1240211467868984797F82D3097F896
:1007B4002D2074498A5C51B2FA8D52B2D24352B29E
:1007C4000A4052B2D1B26F4AD1546A4B1B781A46CE
:1007D4006D4B002123F81210664B1B781A466B4BA5
:1007E400002123F812104EE0624B1B781A46644B2A
:1007F40033F81230032B46D85E4B1B78604A32F82C
:100804001320013291B25E4A22F81310594B1B781F
:100814001A465B4B33F81230032B34D97B685B697F
:10082400002B14D0534B1B789BB2BB830123FB8357
:10083400422387F82030002387F8213000237B846B
:100844007B685B6907F11C0211467868984797F842
:100854002D3097F82D204B49895CFA8DD2B20A438A
:10086400D1B2484AD154434B1B781A46464B4FF4F5
:10087400C87123F812103F4B1B781A46434B4FF4B0
:10088400487123F812103B4B1B781A463E4B33F940
:100894001230002B2ADD374B1B783B4A32F91320E8
:1008A40092B2013A92B211B2374A22F81310314B84
:1008B4001B781A46344B33F91230002B16D17B685F
:1008C4005B69002B12D02B4B1B789BB2BB8202239B
:1008D400FB8242233B7600237B7600237B837B6869
:1008E4005B6907F11402114678689847214B1B781D
:1008F4001A46264B33F91230002B2ADD1D4B1B7888
:10090400224A32F9132092B2013A92B211B21F4A2A
:1009140022F81310174B1B781A461C4B33F912306C
:10092400002B16D17B685B69002B12D0114B1B780E
:100934009BB2BB810323FB8142233B7400237B7462
:1009440000237B827B685B6907F10C02114678689F
:100954009847084B1B780133DAB2064B1A70054BE3
:100964001B78042B02D9034B00221A7000BF3037C6
:10097400BD4680BDB209002068C00008840900207B
:100984008C0900207C09002098090020A40900207B
:1009940080B582B000AF78601A4B00221A701A4BEF
:1009A40000221A7019491A4807F043F8184807F04A
:1009B4004FF8174807F022F91649174807F039F895
:1009C400104B1B78002B05D1134807F041F812484F
:1009D40007F026F900224FF48051104801F0CEFCB4
:1009E400012204210D4801F0C9FC4FF400720021DA
:1009F4000B480BF0FAFA0B4B00221A7000BF0837B1
:100A0400BD4680BDB90F0020BA0F0020C50B0008F9
:100A1400E0050020E90B00083C060020000800481F
:100A2400B80D0020B80F002080B582B000AF786008
:100A34007B681B7883F00103DBB2002B1ED1124BC1
:100A44001B78DBB283F00103DBB2002B18D10F4813
:100A540007F048F80E4B1B78002B02D10D4807F025
:100A640041F80D4B1B78002B04D000F04BF80A4BD7
:100A740000221A70044B00221A7002E000BF00E04A
:100A840000BF0837BD4680BDB40D0020E00500203E
:100A9400B90F00203C060020B80F002080B483B0BA
:100AA40000AF78600B46FB70044B01221A7000BF44
:100AB4000C37BD465DF8047B704700BFB40D0020C1
:100AC40080B584B000AF786039603B681B79442BF3
:100AD40011D1386807F0D0FB0346002B0BD03B68DC
:100AE4001B88C3F30E03FB81FB893A68B2F9022029
:100AF400D1B2034AD15400BF1037BD4680BD00BFF8
:100B0400B80D002080B582B000AF284B1B78002BB5
:100B14003FD100237B6034E0254BDA6C7B681344BF
:100B24001B78FB70234A7B6813441B78BB70224BF1
:100B34001B78002B11D1FA78BB789A4206D91F4B47
:100B4400DA6C7B681344FA781A7017E01B4BDA6C82
:100B54007B681344BA781A7010E0FA78BB789A422A
:100B640006D2164BDA6C7B681344FA781A7005E0E7
:100B7400124BDA6C7B681344BA781A707B680133C1
:100B84007B600E4BB3F848301A467B689A42C3DC4C
:100B940008E00A4BD86C094BB3F848301A460549AB
:100BA4000BF018FA00BF0837BD4680BDB90F00200E
:100BB4003C060020B80D0020BA0F0020E0050020FC
:100BC40080B485B000AF78600123FB73044B01222D
:100BD4001A70FB7B18461437BD465DF8047B7047DA
:100BE400B80F002080B485B000AF78600123FB7398
:100BF400FB7B18461437BD465DF8047B7047000044
:100C040080B500AF024807F0FFF800BF80BD00BF09
:100C14003C06002080B500AF024807F080F800BF12
:100C240080BD00BFE005002080B584B000AF7860CF
:100C34000023FB6061E0344AFB684FF4BC7101FBA4
:100C440003F31344043300221A602F4AFB684FF461
:100C5400BC7101FB03F3134400221A702A4AFB6897
:100C64004FF4BC7101FB03F31344083300221A60F0
:100C7400254AFB684FF4BC7101FB03F313440C33A6
:100C840000221A60FB684FF4BC7202FB03F303F505
:100C9400A8731D4A13442822002118460BF0A5F915
:100CA4000023BB6023E01849BA68FB6812014FF4C3
:100CB400BC7000FB03F313440B441D331B78002B5F
:100CC40012D0114AFB684FF4BC7101FB03F31344C7
:100CD4000C331B685A1C0C49FB684FF4BC7000FBB6
:100CE40003F30B440C331A60BB680133BB60BB686D
:100CF400132BD8DDFB680133FB60FB68032B9ADD03
:100D040000BF1037BD4680BD0000002090B585B0FF
:100D140000AF78607B681B7883F00103DBB2002BA3
:100D240040F0D9806F4B1B78DBB283F00103DBB258
:100D3400002B40F0D2800023FB60C4E06A4AFB68C9
:100D44004FF4BC7101FB03F313441B78002B00F038
:100D5400B780654AFB684FF4BC7101FB03F313448D
:100D640004331B685A1C6049FB684FF4BC7000FBD9
:100D740003F30B4404331A600023BB605EE05A495A
:100D8400BA68FB6812014FF4BC7000FB03F3134410
:100D94000B441D331B78002B4DD05349FB68BC22F8
:100DA40002FB03F2BB681344A8335B000B445B787B
:100DB400012B08D1FB68DBB2BA68D2B21946786855
:100DC40000F064F937E0484AFB684FF4BC7101FB5A
:100DD40003F3134404331A684348B968FB680901F0
:100DE4004FF4BC7404FB03F30B44034418331B6833
:100DF4009A4220D33C49FB68BC2202FB03F2BB6845
:100E04001344A8335B000B445B78002B13D13649A1
:100E1400FB68BC2202FB03F2BB681344A8335B00EB
:100E24000B4401225A70FB68DBB2BA68D2B219468D
:100E3400786800F02BF9BB680133BB60BB68132BE7
:100E44009DDD294AFB684FF4BC7101FB03F3134495
:100E540008331A682449FB684FF4BC7000FB03F3A1
:100E64000B440C331B689A422AD31F4AFB684FF485
:100E7400BC7101FB03F31344083300221A601A4ABD
:100E8400FB684FF4BC7101FB03F3134400221A7096
:100E9400154AFB684FF4BC7101FB03F3134404339C
:100EA40000221A60FB684FF4BC7202FB03F303F5E3
:100EB400A8730D4A13442822002118460BF095F814
:100EC400FB680133FB60FB68032B7FF737AF054BEF
:100ED40000221A7002E000BF00E000BF1437BD46D4
:100EE40090BD00BFBB0F00200000002080B483B081
:100EF40000AF78600B46FB70044B01221A7000BFF0
:100F04000C37BD465DF8047B704700BFBB0F002063
:100F140080B588B000AF786039603B681B79502B8E
:100F240040F0AD80386807F0A7F90346002B00F0C5
:100F3400A6803B681B88C3F30E03FB83FB8B042B47
:100F440000F29D803B68B3F9023047F6FF7293428A
:100F540051D1FB8B4C4A4FF4BC7101FB03F3134496
:100F64001B7883F00103DBB2002B44D0FB8B464A91
:100F74004FF4BC7101FB03F3134401221A70FB8B81
:100F8400414A4FF4BC7101FB03F3134404330022C0
:100F94001A60FB8B3C4A4FF4BC7101FB03F313440E
:100FA400083300221A60FB8B4FF4BC7202FB03F37C
:100FB40003F5A873344A13442822002118460BF081
:100FC40014F87B685B69002B59D0FB8BC3F30E03C9
:100FD4009BB2BB8247F6FF73FB8250233B76002310
:100FE4007B7600237B837B685B6907F114021146DF
:100FF4007868984743E0FB8B234A4FF4BC7101FBAC
:1010040003F3134400221A70FB8B1F4A4FF4BC7184
:1010140001FB03F31344043300221A60FB8B1A4AC6
:101024004FF4BC7101FB03F31344083300221A602C
:10103400FB8B4FF4BC7202FB03F303F5A873124A53
:1010440013442822002118460AF0CFFF7B685B690D
:10105400002B14D0FB8BC3F30E039BB2BB81002384
:10106400FB8150233B7400237B7400237B827B68C9
:101074005B6907F10C02114678689847FFE700BFE7
:101084002037BD4680BD00BF0000002090B58BB066
:1010940000AFF8600B46FB721346BB72FB7AA54A9D
:1010A4004FF4BC7101FB03F3134404331A68FB7A55
:1010B400B97AA04809014FF4BC7404FB03F30B4450
:1010C400034418331B68D31A07EE903AF8EE677A94
:1010D400C7ED087A0023FB84FB7ABA7A954901327A
:1010E40012014FF4BC7000FB03F313440B440433AC
:1010F4001B68002B2CD1FB7ABA7A8E49013212017B
:101104004FF4BC7000FB03F313440B4403331B780C
:10111400FB84FB7A87494FF4BC7202FB03F20A4456
:1011240008321268013283494FF4BC7000FB03F3A8
:101134000B4408331A60FA7ABB7A7E49BC2000FB60
:1011440002F21344A8335B000B4402225A7098E065
:10115400FB7ABA7A7749013212014FF4BC7000FB72
:1011640003F313440B4403331B7807EE903AB8EEB1
:10117400677AFB7ABA7A6F49013212014FF4BC7074
:1011840000FB03F313440B4402331B7807EE903A3D
:10119400F8EE677A77EE677AC7ED077AFB7ABA7A60
:1011A4006449013212014FF4BC7000FB03F3134491
:1011B4000B4404331B6807EE903AF8EE677AD7EDD8
:1011C400076A86EEA77AD7ED087A27EE277AFB7AA4
:1011D400BA7A5849013212014FF4BC7000FB03F390
:1011E40013440B4402331B7807EE903AF8EE677A07
:1011F40077EE277AC7ED067AD7ED067AFCEEE77A22
:10120400C7ED017ABB88FB84FB7ABA7A494901327B
:1012140012014FF4BC7000FB03F313440B4403337B
:101224001B789BB2FA8C9A422BD3FB7ABA7A414947
:10123400013212014FF4BC7000FB03F313440B445E
:1012440003331B78FB84FB7A3A494FF4BC7202FBEC
:1012540003F20A4408321268013236494FF4BC7072
:1012640000FB03F30B4408331A60FA7ABB7A314962
:10127400BC2000FB02F21344A8335B000B4402229F
:101284005A70FA7ABB7AF98CCCB22A49BC2000FB9A
:1012940002F21344A833224601F81320FB685B6969
:1012A400002B2AD0FB7ABA7A2249013212014FF478
:1012B400BC7000FB03F313440B441B886FEA4343E5
:1012C4006FEA53439BB23B82FA7ABB7A1949BC203A
:1012D40000FB02F21344A83311F813301BB27B82D3
:1012E40044233B7500237B750023FB82FB685B6909
:1012F40007F110021146F8689847FA7ABB7A0D494B
:10130400BC2000FB02F21344A8335B000B445B785F
:10131400022B0AD1FA7ABB7A0649BC2000FB02F2FE
:101324001344A833002201F8132000BF2C37BD4614
:1013340090BD00BF0000002080B483B000AF78608F
:10134400044B00221A7000BF0C37BD465DF8047BC5
:10135400704700BFBC0F002080B483B000AF78603A
:101364007B681B7883F00103DBB2002B0BD10A4BA3
:101374001B78DBB283F00103DBB2002B05D1064BF3
:1013840000221A7002E000BF00E000BF0C37BD4627
:101394005DF8047B704700BFBD0F002080B584B0AA
:1013A40000AF786039604C4B1B78002B40F08F8085
:1013B4003B681B79422B40F08B80386806F05CFF59
:1013C4000346002B40F084803B681B88FB81FA892C
:1013D40042491346DB0013445B000B441B78002B8B
:1013E40076D13B68B3F90230002B17D1FA893B4917
:1013F4001346DB0013445B000B4406331B78FF2BBE
:101404000CD0FA891346DB0013445B00334A1344BF
:1014140006331946786800F063F859E03B68B3F97D
:101424000230012B17D1FA892C491346DB001344EF
:101434005B000B4402331B78FF2B0CD0FA89134654
:10144400DB0013445B00254A1344023319467868D1
:1014540000F046F83CE03B68B3F90230022B18D1A7
:10146400FA891E491346DB0013445B000B440A331C
:101474001B78FF2B0DD0FA891346DB0013445B0065
:101484000833164A134402331946786800F028F8E2
:101494001EE03B68B3F90230032B19D1FA890F49D6
:1014A4001346DB0013445B000B440E331B78FF2B05
:1014B4000ED0FA891346DB0013445B000833074A55
:1014C400134406331946786800F00AF800E000BFB8
:1014D4001037BD4680BD00BFBC0F0020E4060020CD
:1014E40080B584B000AF786039607B685B69002B9D
:1014F4001AD03B681B789BB26FEA43436FEA5343AD
:101504009BB23B813B68B3F902307B8150233B7330
:1015140000237B730023FB817B685B6907F108026E
:1015240011467868984700E000BF1037BD4680BD7B
:1015340080B582B000AF786000F08EF84FF480611F
:101544000E4800F09DF84FF480610D4800F0B2F8A9
:101554004FF480620B490C4800F086F94FF4806226
:101564000A490B4800F080F90A4B1B68184600F042
:1015740094F900BF0837BD4680BD00BFC01B0020E2
:10158400C0170020C00F002040070020C013002017
:101594004C070020C826002080B582B000AF7860D8
:1015A4007B681B7883F00103DBB2002B05D100F0CC
:1015B40017F8044B00221A7000E000BF0837BD463C
:1015C40080BD00BFC01F002080B483B000AF78602E
:1015D400396000BF0C37BD465DF8047B70470000DE
:1015E40080B582B000AFFB1D184600F0E5F8034655
:1015F400012B06D1F8790C4B1B681A460B4900F0F5
:101604006CF9FB1D0A49184600F057F90346012BF3
:1016140003D1FB79184600F0F3F800F065F800BF39
:101624000837BD4680BD00BFC82600204007002003
:101634004C07002080B500AF044B1B68044A0549E1
:10164400184600F066F900BF80BD00BFC826002020
:10165400400700204C07002080B500AF054809F082
:10166400F5FF054B00221A70044B00221A6000BFDC
:1016740080BD00BF2D180008DC1F0020E01F0020E3
:1016840080B483B000AF78600B467B80084B0022A7
:101694001A80074B00225A80054A7B889380044AAB
:1016A4007B68936000BF0C37BD465DF8047B7047D0
:1016B400D01F002080B483B000AF78600B467B80DD
:1016C400084B00221A80074B00225A80054A7B8867
:1016D4009380044A7B68936000BF0C37BD465DF875
:1016E400047B7047C41F002080B586B000AF3B1D4B
:1016F40000221A605A609A60DA6000237B614FF41A
:1017040000714FF0904000F021FE0346002B03D0FF
:101714001E4B01221A7002E01C4B00221A70002397
:101724007B610FE0FB1C184600F058F80346012BC0
:101734000CD1F9783A1D7B6913440A461A707B6907
:1017440001337B617B690F2BECDD00E000BF7B691B
:10175400002B18DD0D4B1B78012B14D10C4B4FF4CF
:101764007A721A6009E07B699AB23B1D11461846E9
:1017740009F046FF0346002B04D0054B1B68002BE1
:10178400F1D100E000BF1837BD4680BDDC1F00204A
:10179400E01F002080B400AF064B1B68002B04DD63
:1017A400044B1B68013B034A136000BFBD465DF850
:1017B400047B7047E01F002080B584B000AF7860E0
:1017C4000549786806F0A7FD0346FB73FB7B1846C2
:1017D4001037BD4680BD00BFD01F002080B584B047
:1017E40000AF78600549786806F095FD0346FB7301
:1017F400FB7B18461037BD4680BD00BFC41F0020C8
:1018040080B584B000AF0346FB71FB7905491846E7
:1018140006F044FD0346FB73FB7B18461037BD46B8
:1018240080BD00BFC41F002080B584B000AF7860C5
:101834000B467B800023FB810CE0FB897A68134410
:101844001B780849184606F029FD03467B73FB897B
:101854000133FB81FA897B889A42EED300BF1037AB
:10186400BD4680BDD01F002080B485B000AFF860B5
:10187400B9601346FB80FB6800221A80FB680022D3
:101884005A80FB68FA889A80FB68BA689A6000BF3D
:101894001437BD465DF8047B704780B483B000AF55
:1018A40078607B681B6843F020027B681A6000BF85
:1018B4000C37BD465DF8047B704780B584B000AF3B
:1018C400786039603968786806F025FD0346FB7353
:1018D400FB7B18461037BD4680BD80B586B000AF8F
:1018E4000346B9607A60FB73FB7BB968184606F05F
:1018F400D5FC0346FB75FB7D002B05D07B681B687C
:1019040043F080027B681A60FB7D18461837BD4699
:1019140080BD80B586B000AFF860B9607A60FB68BE
:10192400DB699BB2BB82BB8A9BB203F02003002B12
:1019340009D0FB689B8C9BB2DBB2B968184606F0F1
:10194400ADFC0346FB75BB8A9BB203F08003002BFE
:101954001ED0FB68DB6923F08002FB68DA6107F1C3
:1019640013037968184606F0D6FC0346FB75FB7D25
:10197400022B06D1FB681B6823F08002FB681A6007
:1019840006E0FB7D002B03D0FB7C9AB2FB681A8532
:10199400BB8A9BB203F00803002B05D0FB681B6ACB
:1019A40043F00802FB681A6200BF1837BD4680BDC9
:1019B40080B500AF0F4B01221A700E4B5B680D48C7
:1019C40098470C4B9B680B4898470B4B9B680A48FD
:1019D40098470A4B9B6809489847094B9B680848F5
:1019E4009847084B9B6807489847074B9B680648ED
:1019F4009847E6E768070020B0070020C8070020E2
:101A04009807002080070020E007002080B500AF81
:101A1400FFF7C0FE1D4806F09FF81D4BDB68002B46
:101A240004D01B4BDB68012119489847194BDB682C
:101A3400002B04D0174BDB68012116489847164B3E
:101A4400DB68002B04D0144BDB6801211248984753
:101A5400124B1B8801339AB2104B1A800F4B1B8810
:101A6400632B02D90D4B00221A800D4B1B880133C6
:101A74009AB20B4B1A800A4B1B88B3F5FA7F02D338
:101A8400074B00221A8000BF80BD00BFE005002084
:101A94009807002080070020B0070020E6210020DE
:101AA400E821002080B586B000AF786007F10C0310
:101AB40000221A605A6007F10C030849184606F020
:101AC4003EFB78617B69002B04D07B681B697969D4
:101AD4007868984700BF1837BD4680BD5807002076
:101AE40080B582B000AF786039600E4B1B693968ED
:101AF4000C4898470C4B1B6939680B4898470B4BAB
:101B04001B69396809489847094B1B6939680848B3
:101B14009847084B1B6939680648984700BF08373F
:101B2400BD4680BD9807002080070020B007002034
:101B3400C8070020E007002080B582B000AF7860BD
:101B4400224806F03FFD2249224806F0D5F92148F3
:101B540006F0E0F9204B01221A701F4B5B68002B42
:101B640003D01D4B5B681C4898471C4B01221A701C
:101B74001A4B5B68002B03D0184B5B6817489847D7
:101B8400174B01221A70164B5B68002B03D0144BC1
:101B94005B6813489847134B01221A70114B5B681A
:101BA400002B03D00F4B5B680E4898470E4B012265
:101BB4001A700D4B5B68002B03D00B4B5B680A4813
:101BC400984700BF0837BD4680BD00BFBC06002053
:101BD400591C000898060020980700208007002060
:101BE400B0070020C8070020E007002080B584B0BB
:101BF40000AF786039600123FB73386806F03CFB62
:101C04000346002B06D00C49386806F07FFA0346D9
:101C1400FB7305E00849386806F061FA0346FB7374
:101C2400FB7B012B03D0FB7B184600F007F800BFB9
:101C34001037BD4680BD00BF5807002080B483B074
:101C440000AF0346FB7100BF0C37BD465DF8047B53
:101C54007047000080B586B002AF78600123FB7343
:101C64007B689B7A002B15D17B681B7819467B68AF
:101C74009B6918467B68DB697A6852690192009314
:101C8400022302461C4806F09DFD0346002B01D0AA
:101C94000023FB737B689B7A012B15D17B681B782F
:101CA40019467B689B6918467B681B6A7A68526987
:101CB40001920093022302460F4806F0B6FC034645
:101CC400002B01D00023FB737B689B7A042B0ED17D
:101CD4007B681B7819467B681A6A7B685B690648CF
:101CE40006F02BFD0346002B01D00023FB73FB7B86
:101CF40018461037BD4680BDBC06002080B582B0B2
:101D040000AF78607B681A68054BDB689A4202D1A1
:101D1400034805F09BFF00BF0837BD4680BD00BFE8
:101D2400E005002080B500AF084B1B681B6903F079
:101D34000103012B07D1054B1B686FF001021A61E7
:101D4400034806F05FFC00BF80BD00BF10260020E2
:101D5400BC06002080B582B000AF0346FB80FB8840
:101D6400B3F5007F0FD14FF400714FF0904000F0B5
:101D7400EDFA0346002B03D0054B01221A7002E052
:101D8400034B00221A7000BF0837BD4680BD00BF58
:101D9400E421002080B582B000AF0023FB71032052
:101DA40000F018F9002000F00DF80346002B02D0D3
:101DB4000123FB7101E008F0F9FCFB7918460837B0
:101DC400BD4680BD80B584B000AF78600023FB734E
:101DD4000C4B1B680C4AA2FB03239B09184600F01A
:101DE4002EF90346002B02D00123FB7305E00022E9
:101DF40079684FF0FF3000F0F8F8FB7B1846103795
:101E0400BD4680BD08090020D34D621080B400AFE8
:101E1400044B1B680133034A136000BFBD465DF8E1
:101E2400047B70471024002080B400AF034B1B6870
:101E34001846BD465DF8047B704700BF102400209F
:101E440080B485B000AF78607B6803F00703FB6063
:101E54000C4BDB68BB60BA684FF6FF031340BB60F2
:101E6400FB681A02BB68134343F0BF6343F40033B7
:101E7400BB60044ABB68D36000BF1437BD465DF83D
:101E8400047B704700ED00E080B400AF044BDB68D6
:101E94001B0A03F007031846BD465DF8047B704730
:101EA40000ED00E080B483B000AF0346FB71094944
:101EB40097F907305B09FA7902F01F02012000FA52
:101EC40002F241F8232000BF0C37BD465DF8047BC5
:101ED400704700BF00E100E080B483B000AF034668
:101EE4003960FB7197F90730002B0BDA0D49FB7948
:101EF40003F00F03043B3A68D2B21201D2B20B448E
:101F04001A7609E0084997F907303A68D2B2120103
:101F1400D2B20B4483F8002300BF0C37BD465DF8F2
:101F2400047B704700ED00E000E100E080B489B07C
:101F340000AFF860B9607A60FB6803F00703FB61E7
:101F4400FB69C3F10703042B28BF0423BB61FB69AE
:101F54000433062B02D9FB69033B00E000237B61B9
:101F64000122BB6902FA03F35A1EBB681A407B695B
:101F74009A4001217B6901FA03F3591E7B680B40E7
:101F8400134318462437BD465DF8047B70470000B0
:101F940080B582B000AF78607B68013BB3F1807F8D
:101FA40001D301230FE00A4A7B68013B53600F21F0
:101FB4004FF0FF30FFF790FF054B00229A60044B6F
:101FC40007221A60002318460837BD4680BD00BFAB
:101FD40010E000E080B582B000AF78607868FFF769
:101FE4002FFF00BF0837BD4680BD80B586B000AF67
:101FF4000346B9607A60FB7300237B61FFF744FFFB
:1020040078617A68B9687869FFF790FF024697F9B2
:102014000F3011461846FFF75FFF00BF1837BD4663
:1020240080BD80B582B000AF0346FB7197F90730DD
:102034001846FFF737FF00BF0837BD4680BD80B59F
:1020440082B000AF78607868FFF7A2FF03461846B5
:102054000837BD4680BD000080B487B000AF78600B
:10206400396000237B6154E13B681A6801217B6974
:1020740001FA03F31340FB60FB68002B00F0468178
:102084003B685B68022B03D03B685B68122B23D14F
:102094007B69DA087B68083253F822303B617B693C
:1020A40003F007039B000F2202FA03F3DB433A69B0
:1020B40013403B613B681A697B6903F007039B008B
:1020C40002FA03F33A6913433B617B69DA087B68DC
:1020D4000832396943F822107B681B683B617B69CD
:1020E4005B00032202FA03F3DB433A6913403B61CA
:1020F4003B685B6803F003027B695B0002FA03F34D
:102104003A6913433B617B683A691A603B685B68D0
:10211400012B0BD03B685B68022B07D03B685B68E4
:10212400112B03D03B685B68122B30D17B689B6812
:102134003B617B695B00032202FA03F3DB433A69E8
:1021440013403B613B68DA687B695B0002FA03F386
:102154003A6913433B617B683A699A607B685B68C0
:102164003B6101227B6902FA03F3DB433A691340C2
:102174003B613B685B681B0903F001027B6902FA5F
:1021840003F33A6913433B617B683A695A607B689D
:10219400DB683B617B695B00032202FA03F3DB43E8
:1021A4003A6913403B613B689A687B695B0002FAB9
:1021B40003F33A6913433B617B683A69DA603B682D
:1021C4005B6803F08053002B00F0A080584A584B02
:1021D4001B6E43F001031366554B1B6E03F00103A2
:1021E400BB60BB68534A7B699B08023352F82330B7
:1021F4003B617B6903F003039B000F2202FA03F3A4
:10220400DB433A6913403B617B68B3F1904F19D0CB
:102214007B68494A934213D07B68484A93420DD065
:102224007B68474A934207D07B68464A934201D170
:10223400042308E0072306E0032304E0022302E06A
:10224400012300E000237A6902F003029200934024
:102254003A6913433B6137497B699B0802333A6906
:1022640041F82320384B1B683B61FB68DB433A6928
:1022740013403B613B685B6803F48033002B03D05D
:102284003A69FB6813433B612F4A3B6913602E4B49
:102294005B683B61FB68DB433A6913403B613B6825
:1022A4005B6803F40033002B03D03A69FB681343E3
:1022B4003B61254A3B695360234B9B683B61FB6848
:1022C400DB433A6913403B613B685B6803F480136A
:1022D400002B03D03A69FB6813433B611A4A3B69FC
:1022E4009360194BDB683B61FB68DB433A6913403D
:1022F4003B613B685B6803F40013002B03D03A692D
:10230400FB6813433B61104A3B69D3607B6901332B
:102314007B613B681A687B6922FA03F3002B7FF424
:10232400A3AE00BF1C37BD465DF8047B704700BFF9
:10233400001002400000014000040048000800486A
:10234400000C0048001000480004014080B485B02F
:1023540000AF78600B467B807B681A697B881340EA
:10236400002B02D00123FB7301E00023FB73FB7BF2
:1023740018461437BD465DF8047B704780B483B0BB
:1023840000AF78600B467B8013467B707B78002B14
:1023940003D07A887B689A6102E07A887B689A62C3
:1023A40000BF0C37BD465DF8047B704780B582B032
:1023B40000AF0346FB80084B5A69FB881340002B8F
:1023C40006D0054AFB885361FB881846FFF7C2FC18
:1023D40000BF0837BD4680BD0004014080B582B00F
:1023E40000AF78607B68002B01D1012380E07B681B
:1023F40093F84130DBB2002B06D17B68002283F8CE
:102404004020786808F03EF87B68242283F8412055
:102414007B681B687A681268126822F001021A60ED
:102424007B681B687A68526822F070621A617B6864
:102434001B687A681268926822F400429A607B688A
:10244400DB68012B07D17B681B687A68926842F4C9
:1024540000429A6006E07B681B687A68926842F4DE
:1024640004429A607B68DB68022B04D17B681B689A
:102474004FF400625A607B681A687B681B685B686B
:1024840043F0007343F4004353607B681B687A682D
:102494001268D26822F40042DA607B681B687A68AA
:1024A40011697A68526911437A68926912020A437F
:1024B400DA607B681B687A68D1697A68126A0A43B1
:1024C4001A607B681B687A681268126842F001021D
:1024D4001A607B6800225A647B68202283F84120BA
:1024E4007B6800221A637B68002283F84220002361
:1024F40018460837BD4680BD80B483B000AF78600D
:1025040039607B6893F84130DBB2202B38D17B688B
:1025140093F84030012B01D1022332E07B68012281
:1025240083F840207B68242283F841207B681B6861
:102534007A681268126822F001021A607B681B68CC
:102544007A681268126822F480521A607B681B68E9
:102554007A68126811683A680A431A607B681B68D3
:102564007A681268126842F001021A607B682022BD
:1025740083F841207B68002283F84020002300E098
:10258400022318460C37BD465DF8047B704780B4BF
:1025940085B000AF786039607B6893F84130DBB276
:1025A400202B39D17B6893F84030012B01D10223D1
:1025B40033E07B68012283F840207B68242283F87F
:1025C40041207B681B687A681268126822F0010255
:1025D4001A607B681B681B68FB60FB6823F47063EC
:1025E400FB603B681B02FA681343FB607B681B6853
:1025F400FA681A607B681B687A681268126842F08D
:1026040001021A607B68202283F841207B68002243
:1026140083F84020002300E0022318461437BD4607
:102624005DF8047B7047000080B584B000AF78602B
:102634000023FB607B68002B01D1012376E07B68DB
:1026440093F83630DBB2002B06D17B68002283F886
:102654003520786807F0B2FF7B68022283F83620C1
:102664007B681B68DB68FB607B685B68012B03D1BC
:10267400FB6823F01E03FB607B685B694FF6FF7207
:10268400934205D0FB6823F4604323F0C003FB604E
:10269400FA68284B1340FB607B685A687B689B6828
:1026A4001A437B681B6A1A437B685B6A1A437B681C
:1026B4009B6A1343FA681343FB607B685B68012BD6
:1026C40007D17B68DA687B681B691343FA68134394
:1026D400FB607B685B694FF6FF7293420AD07B68AC
:1026E4005A697B689B691A437B68DB691343FA6800
:1026F4001343FB607B681B68FA68DA607B681B68BD
:102704000D4A934208D17B681B687A68D16A7A685B
:10271400126B0A431A6204E07B681B687A68D26A07
:102724001A627B68012283F836200023184610378A
:10273400BD4680BDFEF119FF007C004080B582B02B
:1027440000AF78607B681B681B6803F00103012BF2
:102754000DD17B681B689B6803F00103012B06D134
:102764007B681B6801225A60786800F082F87B68F5
:102774001B681B6803F00203022B0DD17B681B68E6
:102784009B6803F00203022B06D17B681B680222BC
:102794005A60786800F077F87B681B681B6803F060
:1027A4000403042B0DD17B681B689B6803F00403AE
:1027B400042B06D17B681B6804225A60786800F0F9
:1027C4006CF87B681B681B6803F00803082B0DD1A9
:1027D4007B681B689B6803F00803082B06D17B68A1
:1027E4001B6808225A60786800F061F87B681B68EF
:1027F4001B6803F01003102B0DD17B681B689B68CA
:1028040003F01003102B06D17B681B6810225A605A
:10281400786800F056F87B681B681B6803F0200397
:10282400202B0DD17B681B689B6803F02003202BB1
:1028340006D17B681B6820225A60786800F04BF848
:102844007B681B681B6803F04003402B0DD17B6839
:102854001B689B6803F04003402B06D17B681B6810
:1028640040225A60786800F040F800BF0837BD463F
:1028740080BD80B483B000AF786000BF0C37BD4624
:102884005DF8047B704780B483B000AF786000BF0C
:102894000C37BD465DF8047B704780B483B000AF4D
:1028A400786000BF0C37BD465DF8047B704780B488
:1028B40083B000AF786000BF0C37BD465DF8047B81
:1028C400704780B483B000AF786000BF0C37BD465A
:1028D4005DF8047B704780B483B000AF786000BFBC
:1028E4000C37BD465DF8047B704780B483B000AFFD
:1028F400786000BF0C37BD465DF8047B7047F0B5C7
:102904008BB006AF78607B68002B01D10123CBE04C
:102914007B6893F82934DBB2002B06D17B68002254
:1029240083F82824786808F0A1FE7B68032283F8E2
:1029340029247B681B68184603F044FF7B681B68E6
:102944003B607E686D4606F110040FCC0FC523680A
:102954002B60331D0ECB386803F00BFF7B681B68BC
:102964000021184603F04BFF0023FB7335E0FB7B8B
:102974007A685B011344293301221A70FB7B7A685D
:102984005B0113442833FA7B1A70FB7BFA7B91B208
:102994007A685B01134436330A461A80FB7B7A68F3
:1029A4005B0113442B3300221A70FB7B7A685B01B2
:1029B4001344383300221A60FB7B7A685B011344AA
:1029C4003C3300221A60FB7B7A6802335B011344B8
:1029D40000221A60FB7B0133FB73FB7B0E2BC6D9F1
:1029E4000023FB7331E0FB7B7A685B01134403F241
:1029F400292300221A70FB7B7A685B01134403F5D8
:102A04000A73FA7B1A70FB7B7A685B01134403F246
:102A14002B2300221A70FB7B7A685B01134403F5B5
:102A24000E7300221A60FB7B7A685B01134403F582
:102A34000F7300221A60FB7B7A6812335B01134424
:102A440000221A60FB7B0133FB73FB7B0E2BCAD97C
:102A54007B681B683B607E686D4606F110040FCCF2
:102A64000FC523682B60331D0ECB386803F0D4FEEA
:102A74007B68002283F824207B68012283F82924C0
:102A84007B68DB69012B02D1786800F05EFE7B680D
:102A94001B6A012B02D1786800F031FE7B681B6849
:102AA400184604F004FF002318461437BD46F0BD51
:102AB40080B582B000AF78607B6893F82834012B2E
:102AC40001D1022312E07B68012283F828247B6869
:102AD4001B68184604F0D4FE7B681B68184603F094
:102AE40059FE7B68002283F82824002318460837FF
:102AF400BD4680BD80B582B000AF78607B681B683E
:102B0400184604F0E9FE034603F40043B3F5004F0E
:102B140002D1786800F040FB7B681B68184604F01B
:102B2400DBFE034603F48063B3F5806F12D17B6848
:102B34001B687A681268B2F8442092B222F4806268
:102B440092B2A3F84420786808F017FE0021786850
:102B540000F029F97B681B68184604F0BDFE0346A3
:102B640003F48043B3F5804F0BD17B681B687A680C
:102B74001268B2F8442092B222F4804292B2A3F8CE
:102B840044207B681B68184604F0A6FE034603F441
:102B94000053B3F5005F0BD17B681B687A68126839
:102BA400B2F8442092B222F4005292B2A3F8442024
:102BB4007B681B68184604F08FFE034603F48053B9
:102BC400B3F5805F33D17B681B687A681268B2F80A
:102BD400402092B222F0040292B2A3F840207B6813
:102BE4001B687A681268B2F8402092B222F0080298
:102BF40092B2A3F840207B6893F86034012B07D18C
:102C04007B68002283F860240021786809F068F862
:102C1400786808F0EFFD7B681B687A681268B2F880
:102C2400442092B222F4805292B2A3F844207B68EA
:102C34001B68184604F050FE034603F40063B3F522
:102C4400006F31D17B681B687A681268B2F8402043
:102C540092B242F0080292B2A3F840207B681B684B
:102C64007A681268B2F8442092B222F4006292B2F6
:102C7400A3F844207B681B687A681268B2F8402085
:102C840092B242F0040292B2A3F840207B681B681F
:102C9400184604F021FE034603F48053B3F5805F25
:102CA40002D0786808F08CFD7B681B68184604F035
:102CB40013FE034603F08003802B3FD17B681B681F
:102CC4007A681268B2F8442092B222F0800292B27A
:102CD400A3F844207B6893F86034002B2BD17B68E5
:102CE4001B687A681268B2F8402092B242F004027B
:102CF40092B2A3F840207B681B687A681268B2F825
:102D0400402092B242F0080292B2A3F840207B68BD
:102D1400012283F860247B681B68B3F854309BB2AB
:102D24009B0803F03C027B68C3F8642401217868A3
:102D340008F0D6FF02E0786808F042FD7B681B6863
:102D4400184604F0C9FD034603F40073B3F5007F8D
:102D54000ED17B681B687A681268B2F8442092B27C
:102D640022F4007292B2A3F84420786808F0F7FCC9
:102D74007B681B68184604F0AFFD034603F48073B8
:102D8400B3F5807F0BD17B681B687A681268B2F850
:102D9400442092B222F4807292B2A3F8442000BF7D
:102DA4000837BD4680BD80B582B000AF78600B4661
:102DB400FB707B6893F82834012B01D1022313E0C4
:102DC4007B68012283F828247B68FA7883F824201E
:102DD4007B681B68FA781146184604F03DFD7B6851
:102DE400002283F82824002318460837BD4680BDF6
:102DF40080B584B000AF7860084611461A46034691
:102E0400FB700B463B801346BB700023FB7297F9A3
:102E14000330002B0BDAFB7803F00F035B0128333C
:102E24007A681344FB60FB6801225A700BE0FB785C
:102E340003F00F035B0103F50A737A681344FB6024
:102E4400FB6800225A70FB7803F00F03DAB2FB68C8
:102E54001A703A88FB681A61FB68BA78DA70FB6802
:102E64005B78002B04D0FB681B789AB2FB68DA818C
:102E7400BB78022B02D1FB6800221A717B6893F89D
:102E84002834012B01D102230EE07B68012283F850
:102E940028247B681B68F968184603F0E1FC7B680A
:102EA400002283F82824FB7A18461037BD4680BDDB
:102EB40080B584B000AF78600B46FB7097F903309F
:102EC400002B0BDAFB7803F00F035B0128337A68DD
:102ED4001344FB60FB6801225A700BE0FB7803F09B
:102EE4000F035B0103F50A737A681344FB60FB6804
:102EF40000225A70FB7803F00F03DAB2FB681A70F1
:102F04007B6893F82834012B01D102230EE07B68FF
:102F1400012283F828247B681B68F968184603F0AB
:102F240081FF7B68002283F8282400231846103789
:102F3400BD4680BD80B586B000AFF8607A603B6066
:102F44000B46FB72FB7A03F00F035B0103F50A7374
:102F5400FA6813447B617B697A685A617B693A68D1
:102F64009A617B690022DA617B6900225A70FB7ADC
:102F740003F00F03DAB27B691A70FB7A03F00F03D4
:102F8400002B06D1FB681B687969184604F0E0F849
:102F940005E0FB681B687969184604F0D9F800233A
:102FA40018461837BD4680BD80B483B000AF786042
:102FB4000B46FB70FB7803F00F037A6812335B0156
:102FC400134404331B689BB218460C37BD465DF8A6
:102FD400047B704780B586B000AFF8607A603B60D0
:102FE4000B46FB72FB7A03F00F035B012833FA688C
:102FF40013447B617B697A685A617B693A689A6198
:103004007B690022DA617B6901225A70FB7A03F042
:103014000F03DAB27B691A70FB7A03F00F03002BFB
:1030240006D1FB681B687969184604F091F805E03D
:10303400FB681B687969184604F08AF8002318466F
:103044001837BD4680BD80B584B000AF78600B46AC
:10305400FB70FB7803F00F027B685B689A4201D92E
:10306400012346E097F90330002B0BDAFB7803F0D9
:103074000F035B0128337A681344FB60FB68012269
:103084005A7009E0FB785B0103F50A737A6813440C
:10309400FB60FB6800225A70FB6801229A70FB787F
:1030A40003F00F03DAB2FB681A707B6893F82834D4
:1030B400012B01D102231CE07B68012283F8282420
:1030C4007B681B68F968184604F0F6FAFB7803F08D
:1030D4000F03002B08D17B681A687B6803F58663AD
:1030E4001946104604F008FC7B68002283F8282463
:1030F400002318461037BD4680BD80B584B000AFAC
:1031040078600B46FB70FB7803F00F027B685B680A
:103114009A4201D901233AE097F90330002B0BDAE4
:10312400FB7803F00F035B0128337A681344FB60D8
:10313400FB6801225A700BE0FB7803F00F035B017C
:1031440003F50A737A681344FB60FB6800225A7023
:10315400FB6800229A70FB7803F00F03DAB2FB6875
:103164001A707B6893F82834012B01D102230EE0F6
:103174007B68012283F828247B681B68F968184659
:1031840004F0DCFA7B68002283F828240023184624
:103194001037BD4680BD000090B589B000AF78609F
:1031A4005EE27B681B68B3F84430FB82FB8ADBB2C7
:1031B40003F00F037B757B7D002B40F02C81FB8A91
:1031C40003F01003002B4BD17B681B681B889BB258
:1031D40023F4E14323F070039CB27B681B6822460E
:1031E4001A807B6828333B617B681B68B3F85030D6
:1031F4009BB21A463B691B78DB0013447A68126859
:10320400134403F202431B88C3F309023B69DA61E6
:103214003B695A693B69DB691A443B695A6100217D
:10322400786808F085FA7B6893F82430DBB2002BC9
:1032340000F016823B699B69002B40F011827B6889
:103244001B687A6892F82420D2B262F07F02D2B26C
:1032540092B2A3F84C207B68002283F82420FFE17B
:103264007B6803F50A733B617B681B681B88FB81E1
:10327400FB8903F40063002B2FD07B681B68B3F831
:1032840050309BB21A463B691B78DB0013447A68C2
:103294001268134403F206431B88C3F309023B6913
:1032A400DA617B6818687B6803F586613B69DA88B4
:1032B4003B69DB699BB204F06CFB7B681B681B8871
:1032C4009AB240F68F7313409CB27B681B68224607
:1032D4001A80786808F002FAC2E1B7F90E30002BC0
:1032E40080F2BE817B681B681B889AB240F68F739C
:1032F40013409CB27B681B6822461A807B681B685B
:10330400B3F850309BB21A463B691B78DB00134478
:103314007A681268134403F206431B88C3F3090254
:103324003B69DA613B69DB69002B11D07B68186863
:103334003B6959693B69DA883B69DB699BB204F0F4
:1033440028FB3B695A693B69DB691A443B695A614A
:103354000021786808F0D4F97B681B681C467B68F8
:103364001B68B3F850309BB21C4404F20643BB60A4
:103374003B691B69002B11D1BB681A8843F2FF33E8
:1033840013409AB2BB681A80BB681B886FEA434338
:103394006FEA53439AB2BB681A8026E03B691B6903
:1033A4003D2B13D83B691B695B08BB613B691B69F7
:1033B40003F00103002B02D0BB690133BB61BB697D
:1033C4009BB29B029AB2BB681A800EE03B691B69F0
:1033D4005B09BB61BB699BB29B029BB26FEA43432F
:1033E4006FEA53439AB2BB681A807B681B681B88D8
:1033F4009BB223F4804323F070039CB284F4805383
:103404009CB284F400539CB27B681A689B4B2343A0
:103414009BB2138024E17B681B681A467B7D9B006A
:1034240013441B88FB81B7F90E30002B80F2C9804E
:103434007B681B681A467B7D9B0013441B889AB2E9
:1034440040F68F7313409CB27B681B681A467B7DE1
:103454009B00134422461A807B7D5B0103F50A73AB
:103464007A6813443B613B691B7B002B1FD17B684B
:103474001B68B3F850309BB21A463B691B78DB00DB
:1034840013447A681268134403F206431B88C3F397
:103494000903FB83FB8B002B6ED07B6818683B69A8
:1034A40059693B69DA88FB8B04F073FA64E07B6842
:1034B4001B681A463B691B789B0013441B889BB20C
:1034C40003F48043002B1FD07B681B68B3F8503093
:1034D4009BB21A463B691B78DB0013447A68126876
:1034E400134403F202431B88C3F30903FB83FB8BDE
:1034F400002B28D07B6818683B6959693B691A8995
:10350400FB8B04F046FA1EE07B681B68B3F850306E
:103514009BB21A463B691B78DB0013447A68126835
:10352400134403F206431B88C3F30903FB83FB8B99
:10353400002B08D07B6818683B6959693B695A8934
:10354400FB8B04F026FA7B681B681A463B691B78E0
:103554009B0013441B889BB223F4E04323F07003C5
:103564009CB27B681B681A463B691B789B001A4413
:10357400434B23439BB213803B69DA69FB8B1A44A8
:103584003B69DA613B695A69FB8B1A443B695A61AE
:103594003B699B69002B04D0FA8B3B691B699A42F7
:1035A40006D23B691B781946786808F0A9F808E048
:1035B4003B6919783B695A693B699B697868FFF7ED
:1035C400B9FCFB8903F08003002B49D07B7D5B01B0
:1035D40028337A6813443B617B681B681A467B7DF9
:1035E4009B0013441B889BB223F4E14323F0700334
:1035F4009CB27B681B681A467B7D9B001344224661
:103604001A807B681B68B3F850309BB21A463B693A
:103614001B78DB0013447A681268134403F20243F4
:103624001B88C3F309023B69DA613B695A693B6948
:10363400DB691A443B695A613B699B69002B06D1DB
:103644003B691B781946786808F072F808E03B6912
:1036540019783B695A693B699B697868FFF7BAFC3A
:103664007B681B68B3F844309BB21BB2002BFFF697
:1036740098AD002318462437BD4690BD8080FFFFD7
:10368400C080FFFF80B487B000AFF8607B600B465A
:103694007B8113463B817B8903F080039BB2002B23
:1036A40008D07B8903F00F035B012833FA681344C5
:1036B4007B6106E07B895B0103F50A73FA681344B6
:1036C4007B613B89002B07D17B6900221A737B68DD
:1036D4009AB27B69DA800BE07B6901221A737B68FA
:1036E4009AB27B691A817B681B0C9AB27B695A81F6
:1036F400002318461C37BD465DF8047B704780B430
:1037040085B000AF78607B681B68FB607B68012232
:10371400C3F86C24FB68B3F858309BB243F0010340
:103724009AB2FB68A3F85820FB68B3F858309BB2F0
:1037340043F002039AB2FB68A3F85820002318460A
:103744001437BD465DF8047B704780B485B000AF84
:1037540078607B681B68FB607B680122C3F868247F
:103764007B68002283F86024FB68B3F854309BB272
:1037740043F001039AB2FB68A3F85420FB68B3F842
:1037840054309BB243F002039AB2FB68A3F854206E
:10379400002318461437BD465DF8047B70470000CB
:1037A40080B400AF044B1B6803F4C0631846BD46E5
:1037B4005DF8047B704700BF0070004080B485B0A2
:1037C40000AF78607B68B3F5007F30D1234B1B6872
:1037D40003F4C063B3F5007F38D0204A1F4B1B6845
:1037E40023F4C06343F4007313601D4B1B6832223F
:1037F40002FB03F31B4AA2FB03239B0C0133FB6074
:1038040002E0FB68013BFB60144B5B6903F48063DB
:10381400B3F5806F02D1FB68002BF2D10F4B5B69CB
:1038240003F48063B3F5806F10D103230FE00B4BD7
:103834001B6803F4C063B3F5806F07D0074A074BD6
:103844001B6823F4C06343F48063136000231846A9
:103854001437BD465DF8047B704700BF007000401C
:103864000809002083DE1B4380B400AF054A054BE2
:103874005B6843F48063536000BFBD465DF8047B1E
:10388400704700BF0070004080B588B000AF78601A
:103894007B68002B01D1012395E3A34B9B6803F0C4
:1038A4000C03BB61A04BDB6803F003037B617B6803
:1038B4001B6803F01003002B00F0DF80BB69002BB2
:1038C40007D0BB690C2B40F086807B69012B40F04C
:1038D4008280954B1B6803F00203002B05D07B68A4
:1038E4009B69002B01D101236DE37B681A6A8E4B1F
:1038F4001B6803F00803002B04D08B4B1B6803F0F8
:10390400F00305E0884BD3F894301B0903F0F0036F
:103914009A4223D97B681B6A184600F00DFD0346C2
:10392400002B01D001234EE37F4A7F4B1B6843F0F9
:10393400080313607C497C4B1B6823F0F0027B680E
:103944001B6A13430B607849774B5B6823F47F420F
:103954007B68DB691B0213434B6022E0724A724BA3
:103964001B6843F0080313606F496F4B1B6823F017
:10397400F0027B681B6A13430B606B496A4B5B68FC
:1039840023F47F427B68DB691B0213434B607B6833
:103994001B6A184600F0D0FC0346002B01D001231B
:1039A40011E300F0F5FB01465F4B9B681B0903F034
:1039B4000F035E4AD35C03F01F0321FA03F35C4A4E
:1039C40013600020FEF7FEF90346FB73FB7B002B1C
:1039D40052D0FB7BF7E27B689B69002B32D0524AC2
:1039E400514B1B6843F001031360FEF71DFA386165
:1039F40008E0FEF719FA02463B69D31A022B01D9F3
:103A04000323E0E2484B1B6803F00203002BF0D0D1
:103A1400454A454B1B6843F0080313604249424B37
:103A24001B6823F0F0027B681B6A13430B603E495A
:103A34003D4B5B6823F47F427B68DB691B021343C5
:103A44004B601AE0384A384B1B6823F001031360BB
:103A5400FEF7EAF9386108E0FEF7E6F902463B6949
:103A6400D31A022B01D90323ADE22F4B1B6803F0B9
:103A74000203002BF0D100E000BF7B681B6803F059
:103A84000103002B72D0BB69082B05D0BB690C2B3A
:103A94000ED17B69032B0BD1234B1B6803F400333A
:103AA400002B62D07B685B68002B5ED101238AE225
:103AB4007B685B68B3F5803F06D11B4A1A4B1B68D1
:103AC40043F4803313601DE07B685B68B3F5A02F7B
:103AD4000CD1154A144B1B6843F480231360124A1B
:103AE400114B1B6843F4803313600BE00E4A0E4BFA
:103AF4001B6823F4803313600B4A0B4B1B6823F4BD
:103B0400802313607B685B68002B1AD0FEF78CF966
:103B140038610FE0FEF788F902463B69D31A642B3B
:103B240008D903234FE200BF0010024070C0000810
:103B340008090020AE4B1B6803F40033002BE9D0C6
:103B440014E0FEF771F9386108E0FEF76DF90246FA
:103B54003B69D31A642B01D9032334E2A44B1B68B9
:103B640003F40033002BF0D100E000BF7B681B6836
:103B740003F00203002B60D0BB69042B05D0BB69A2
:103B84000C2B19D17B69022B16D1994B1B6803F4BA
:103B94008063002B05D07B68DB68002B01D10123F7
:103BA40011E29349924B5B6823F0FE427B681B69E8
:103BB4001B0613434B6040E07B68DB68002B23D07B
:103BC4008B4A8B4B1B6843F480731360FEF72CF90C
:103BD400386108E0FEF728F902463B69D31A022B44
:103BE40001D90323EFE1824B1B6803F48063002BAC
:103BF400F0D07F497E4B5B6823F0FE427B681B69F3
:103C04001B0613434B6018E0794A794B1B6823F475
:103C140080731360FEF708F9386108E0FEF704F9D1
:103C240002463B69D31A022B01D90323CBE1704B23
:103C34001B6803F48063002BF0D17B681B6803F0DE
:103C44000803002B3CD07B685B69002B1CD0684ABE
:103C5400674BD3F8943043F00103C2F89430FEF775
:103C6400E3F8386108E0FEF7DFF802463B69D31A4F
:103C7400022B01D90323A6E15D4BD3F8943003F062
:103C84000203002BEFD01BE0594A594BD3F8943070
:103C940023F00103C2F89430FEF7C6F8386108E057
:103CA400FEF7C2F802463B69D31A022B01D903235B
:103CB40089E14F4BD3F8943003F00203002BEFD18A
:103CC4007B681B6803F00403002B00F0A58000232D
:103CD400FB77474B9B6D03F08053002B0DD1444A77
:103CE400434B9B6D43F080539365414B9B6D03F0B5
:103CF4008053BB60BB680123FB773E4B1B6803F416
:103D04008073002B18D13B4A3A4B1B6843F48073F1
:103D14001360FEF789F8386108E0FEF785F802467B
:103D24003B69D31A022B01D903234CE1314B1B68A5
:103D340003F48073002BF0D07B689B68012B08D1BF
:103D44002B4A2B4BD3F8903043F00103C2F8903048
:103D540024E07B689B68052B10D1254A244BD3F8BB
:103D6400903043F00403C2F89030214A204BD3F83A
:103D7400903043F00103C2F890300FE01C4A1C4B12
:103D8400D3F8903023F00103C2F89030184A184B4E
:103D9400D3F8903023F00403C2F890307B689B681A
:103DA400002B16D0FEF740F838610AE0FEF73CF825
:103DB40002463B69D31A41F28832934201D9032364
:103DC40001E10B4BD3F8903003F00203002BEDD04C
:103DD40019E0FEF729F838610EE0FEF725F80246EF
:103DE4003B69D31A41F28832934205D90323EAE0AE
:103DF4000010024000700040754BD3F8903003F07F
:103E04000203002BE9D1FB7F012B05D1704A704BD3
:103E14009B6D23F0805393657B681B6803F020033C
:103E2400002B3CD07B685B6A002B1CD0684A684B33
:103E3400D3F8983043F00103C2F89830FDF7F4FF4B
:103E4400386108E0FDF7F0FF02463B69D31A022B04
:103E540001D90323B7E05E4BD3F8983003F0020393
:103E6400002BEFD01BE05A4A594BD3F8983023F07B
:103E74000103C2F89830FDF7D7FF386108E0FDF779
:103E8400D3FF02463B69D31A022B01D903239AE0DC
:103E94004F4BD3F8983003F00203002BEFD17B682B
:103EA4009B6A002B00F08E80BB690C2B00F088808D
:103EB4007B689B6A022B55D1454A454B1B6823F00E
:103EC40080731360FDF7B0FF386108E0FDF7ACFFC5
:103ED40002463B69D31A022B01D9032373E03C4BFE
:103EE4001B6803F00073002BF0D139497B681B6B0E
:103EF400013B1A017B685B6B1B021A437B68DB6A1C
:103F04001A437B68DB6B5B08013B5B051A437B68E8
:103F14001B6C5B08013B5B061A437B689B6BDB06EF
:103F24001343CB602A4A2A4B1B6843F08073136007
:103F3400274A274BDB6843F08073D360FDF774FF97
:103F4400386108E0FDF770FF02463B69D31A022B83
:103F540001D9032337E01E4B1B6803F00073002BC9
:103F6400F0D02FE01A4A1A4B1B6823F080731360B9
:103F7400174B1B6803F00063002B05D1144A144B44
:103F8400DB6823F00303D360114A114BDB6823F091
:103F9400887323F48033D360FDF746FF386108E06B
:103FA400FDF742FF02463B69D31A022B01D90323D2
:103FB40009E0074B1B6803F00073002BF0D101E00C
:103FC400012300E0002318462037BD4680BD00BF12
:103FD4000010024080B584B000AF786039607B681F
:103FE400002B01D10123C6E0654B1B6803F00702D7
:103FF4003B689A4210D26249614B1B6823F0070266
:104004003B6813430B605E4B1B6803F007023B687D
:104014009A4201D00123AEE07B681B6803F00103E0
:10402400002B4CD07B685B68032B07D1554B1B6876
:1040340003F00073002B21D101239CE07B685B68B3
:10404400022B07D14F4B1B6803F40033002B15D10F
:10405400012390E07B685B68002B07D1494B1B6808
:1040640003F00203002B09D1012384E0454B1B68B4
:1040740003F48063002B01D101237CE04149414BCF
:104084009B6823F003027B685B6813438B60FDF736
:10409400CBFEF8600AE0FDF7C7FE0246FB68D31AC0
:1040A40041F28832934201D9032364E0354B9B6883
:1040B40003F00C027B685B689B009A42EBD17B683F
:1040C4001B6803F00203002B08D02E492D4B9B687C
:1040D40023F0F0027B689B6813438B60284B1B68BA
:1040E40003F007023B689A4210D92549244B1B6808
:1040F40023F007023B6813430B60214B1B6803F05A
:1041040007023B689A4201D0012334E07B681B68B4
:1041140003F00403002B08D01A491A4B9B6823F4BC
:10412400E0627B68DB6813438B607B681B6803F089
:104134000803002B09D01349124B9B6823F46052E7
:104144007B681B69DB0013438B6000F021F8014698
:104154000C4B9B681B0903F00F030B4AD35C03F061
:104164001F0321FA03F3094A13600020FDF72AFE16
:104174000346FB72FB7A18461037BD4680BD00BF6C
:10418400002002400010024070C00008080900200E
:1041940080B489B000AF0023FB610023BB61464BB0
:1041A4009B6803F00C033B61434BDB6803F00303A0
:1041B400FB603B69002B05D03B690C2B21D1FB68CC
:1041C400012B1ED13C4B1B6803F00803002B07D1C5
:1041D400394BD3F894301B0A03F00F03FB6105E05D
:1041E400354B1B681B0903F00F03FB61334AFB6962
:1041F40052F82330FB613B69002B0DD1FB69BB6195
:104204000AE03B69042B02D12D4BBB6104E03B69FE
:10421400082B01D12B4BBB613B690C2B45D1264BA1
:10422400DB6803F00303BB60234BDB681B0903F06B
:10423400070301337B60BB68022B02D0032B0DD034
:1042440019E01F4A7B68B2FBF3F31B4AD268120AD7
:1042540002F07F0202FB03F37B6119E0194A7B68D9
:10426400B2FBF3F3144AD268120A02F07F0202FB93
:1042740003F37B610CE0FA697B68B2FBF3F30E4A4B
:10428400D268120A02F07F0202FB03F37B6100BFD3
:10429400094BDB685B0E03F0030301335B003B60F7
:1042A4007A693B68B2FBF3F3BB61BB6918462437F8
:1042B400BD465DF8047B70470010024088C00008CA
:1042C4000024F40000127A0080B400AF034B1B6892
:1042D4001846BD465DF8047B704700BF08090020FE
:1042E40080B500AFFFF7F0FF0146064B9B681B0A41
:1042F40003F00703044AD35C03F01F0321FA03F31A
:10430400184680BD0010024080C0000880B500AF90
:10431400FFF7DAFF0146064B9B68DB0A03F007034D
:10432400044AD35C03F01F0321FA03F3184680BD4B
:104334000010024080C0000880B586B000AF7860ED
:1043440000233B612A4B9B6D03F08053002B03D069
:10435400FFF726FA786114E0254A254B9B6D43F05C
:1043640080539365224B9B6D03F08053FB60FB6885
:10437400FFF716FA78611E4A1D4B9B6D23F080539C
:1043840093657B69B3F5007F0BD17B68802B19D9CA
:104394007B68A02B02D902233B6113E001233B611C
:1043A40010E07B68802B02D903233B610AE07B6821
:1043B400802B02D102233B6104E07B68702B01D186
:1043C40001233B610B490B4B1B6823F007023B693C
:1043D40013430B60074B1B6803F007023B699A42C7
:1043E40001D0012300E0002318461837BD4680BDE4
:1043F400001002400020024080B586B000AF786013
:104404000023FB740023BB747B681B6803F4006304
:10441400002B2FD07B68DB6CB3F5000F05D0B3F510
:10442400400F15D0002B07D00FE05D4A5C4BDB68D2
:1044340043F48033D3600CE07B68043300211846D6
:1044440000F044FA0346FB7403E00123FB7400E02C
:1044540000BFFB7C002B0BD15149514BD3F8883062
:1044640023F440027B68DB6C1343C1F8883001E01D
:10447400FB7CBB747B681B6803F40033002B00F0E7
:104484009E8000237B74464B9B6D03F08053002B6E
:1044940001D1012300E00023002B0DD0404A404B02
:1044A4009B6D43F0805393653D4B9B6D03F08053AC
:1044B400BB60BB6801237B743A4A3A4B1B6843F4E4
:1044C40080731360FDF7B0FCF86009E0FDF7ACFC05
:1044D4000246FB68D31A022B02D90323FB7405E0BE
:1044E400304B1B6803F48073002BEFD0FB7C002B54
:1044F4005AD12B4BD3F8903003F440737B617B6922
:10450400002B1ED07B685A6E7B699A4219D0244BCB
:10451400D3F8903023F440737B61214A204BD3F8C5
:10452400903043F48033C2F890301D4A1C4BD3F8CA
:10453400903023F48033C2F89030194A7B69C2F872
:1045440090307B6903F00103002B16D0FDF76CFC5F
:10455400F8600BE0FDF768FC0246FB68D31A41F2F1
:104564008832934202D90323FB7406E00C4BD3F840
:10457400903003F00203002BECD0FB7C002B0BD11A
:104584000749074BD3F8903023F440727B685B6E85
:104594001343C1F8903009E0FB7CBB7406E000BF14
:1045A4000010024000700040FB7CBB747B7C012B3C
:1045B40005D19E4A9D4B9B6D23F0805393657B6888
:1045C4001B6803F00103002B0AD09849974BD3F8DA
:1045D400883023F003027B681B6A1343C1F88830D8
:1045E4007B681B6803F00203002B0AD08F498F4BB2
:1045F400D3F8883023F00C027B685B6A1343C1F85C
:1046040088307B681B6803F00403002B0AD08749B9
:10461400864BD3F8883023F030027B689B6A1343BF
:10462400C1F888307B681B6803F00803002B0AD0AC
:104634007E497E4BD3F8883023F0C0027B68DB6A66
:104644001343C1F888307B681B6803F02003002BF8
:104654000AD07649754BD3F8883023F440627B68DE
:104664001B6B1343C1F888307B681B6803F4007329
:10467400002B0AD06D496D4BD3F8883023F44022C7
:104684007B685B6C1343C1F888307B681B6803F458
:104694008063002B0AD06549644BD3F8883023F437
:1046A40040127B689B6C1343C1F888307B681B689D
:1046B40003F04003002B0AD05C495C4BD3F88830EC
:1046C40023F440527B685B6B1343C1F888307B68EA
:1046D4001B6803F08003002B0AD05449534BD3F8D2
:1046E400883023F440427B689B6B1343C1F88830C5
:1046F4007B681B6803F48073002B0AD04B494B4B37
:10470400D3F8883023F440327B68DB6B1343C1F861
:1047140088307B681B6803F48013002B0AD043495C
:10472400424BD3F89C3023F003027B681B6C134389
:10473400C1F89C307B681B6803F40053002B28D01D
:104744003A493A4BD3F8883023F040627B681B6DBA
:104754001343C1F888307B681B6DB3F1006F06D139
:10476400324A324BDB6843F48013D36011E07B6838
:104774001B6DB3F1806F0CD17B68043301211846A3
:1047840000F0A4F80346FB74FB7C002B01D0FB7CF7
:10479400BB747B681B6803F40023002B28D02349D7
:1047A400224BD3F8883023F040627B685B6D13435F
:1047B400C1F888307B685B6DB3F1006F06D11B4A8A
:1047C4001A4BDB6843F48013D36011E07B685B6DA4
:1047D400B3F1806F0CD17B6804330121184600F0DB
:1047E40075F80346FB74FB7C002B01D0FB7CBB7487
:1047F4007B681B6803F48023002B2BD00B490B4BE5
:10480400D3F8883023F040627B689B6D1343C1F872
:1048140088307B689B6DB3F1006F09D1034A034B69
:10482400DB6843F48013D36014E000BF001002403F
:104834007B689B6DB3F1806F0CD17B6804330121DD
:10484400184600F043F80346FB74FB7C002B01D0B0
:10485400FB7CBB747B681B6803F48043002B1CD077
:104864001949194BD3F8883023F040527B68DB6D2B
:104874001343C1F888307B68DB6DB3F1805F0CD1E2
:104884007B6804330221184600F020F80346FB74C9
:10489400FB7C002B01D0FB7CBB747B681B6803F49E
:1048A4008033002B0AD00849074BD3F8883023F013
:1048B40000427B681B6E1343C1F88830BB7C1846EA
:1048C4001837BD4680BD00BF0010024080B584B0DB
:1048D40000AF786039600023FB73734BDB6803F02F
:1048E4000303002B18D0704BDB6803F003027B68D2
:1048F4001B689A420DD17B681B68002B09D06A4B58
:10490400DB681B0903F007035A1C7B685B689A4247
:1049140044D00123FB7341E07B681B68022B0CD05D
:10492400032B13D0012B20D15F4B1B6803F0020330
:10493400002B1DD10123FB731AE05B4B1B6803F4AE
:104944008063002B16D10123FB7313E0564B1B68C5
:1049540003F40033002B0FD1534B1B6803F4802363
:10496400002B09D10123FB7306E00123FB7304E050
:1049740000BF02E000BF00E000BFFB7B002B0DD1B5
:104984004948494BDB6823F073027B6819687B68EC
:104994005B68013B1B010B431343C360FB7B002B90
:1049A4007CD1414A404B1B6823F080631360FDF7C0
:1049B4003BFAB86009E0FDF737FA0246BB68D31A40
:1049C400022B02D90323FB7305E0374B1B6803F06A
:1049D4000063002BEFD1FB7B002B5FD13B68002BE6
:1049E40010D13148304B1B6923F0784323F4FE4344
:1049F4007A68926811027A68D268D2060A4313432D
:104A0400036127E03B68012B12D12748264B1B6921
:104A140023F4C00323F4FE437A68926811027A688F
:104A240012695208013A52050A431343036111E023
:104A34001D481D4B1B6923F0C06323F4FE437A68B1
:104A4400926811027A6852695208013A52060A437E
:104A540013430361144A144B1B6843F080631360CF
:104A6400FDF7E2F9B86009E0FDF7DEF90246BB683C
:104A7400D31A022B02D90323FB7305E00A4B1B68EC
:104A840003F00063002BEFD0FB7B002B06D106491B
:104A9400054B1A697B689B6913430B61FB7B1846C2
:104AA4001037BD4680BD00BF0010024080B582B003
:104AB40000AF78607B68002B01D101231DE07B6887
:104AC40093F83D30DBB2002B06D17B68002283F8DB
:104AD4003C20786806F072FA7B68022283F83D2055
:104AE4007B681A687B6804331946104600F026FC7C
:104AF4007B68012283F83D20002318460837BD4611
:104B040080BD80B582B000AF78607B68002B01D196
:104B140001231DE07B6893F83D30DBB2002B06D106
:104B24007B68002283F83C20786806F087F97B686C
:104B3400022283F83D207B681A687B680433194697
:104B4400104600F0FBFB7B68012283F83D20002324
:104B540018460837BD4680BD80B582B000AF786086
:104B64007B68002B01D101231DE07B6893F83D3065
:104B7400DBB2002B06D17B68002283F83C207868E6
:104B840006F09AF97B68022283F83D207B681A6854
:104B94007B6804331946104600F0D0FB7B68012281
:104BA40083F83D20002318460837BD4680BD80B5F4
:104BB40082B000AF78607B681B681B6903F0020356
:104BC400022B22D17B681B68DB6803F00203022BF3
:104BD4001BD17B681B686FF002021A617B6801229B
:104BE4001A777B681B689B6903F00303002B03D0CF
:104BF400786800F084FB05E0786800F076FB78685C
:104C040000F087FB7B6800221A777B681B681B69AE
:104C140003F00403042B22D17B681B68DB6803F0D8
:104C24000403042B1BD17B681B686FF004021A6118
:104C34007B6802221A777B681B689B6903F44073C4
:104C4400002B03D0786800F05AFB05E0786800F088
:104C54004CFB786800F05DFB7B6800221A777B6868
:104C64001B681B6903F00803082B22D17B681B68AF
:104C7400DB6803F00803082B1BD17B681B686FF00B
:104C840008021A617B6804221A777B681B68DB6957
:104C940003F00303002B03D0786800F030FB05E039
:104CA400786800F022FB786800F033FB7B68002210
:104CB4001A777B681B681B6903F01003102B22D141
:104CC4007B681B68DB6803F01003102B1BD17B6827
:104CD4001B686FF010021A617B6808221A777B68E0
:104CE4001B68DB6903F44073002B03D0786800F081
:104CF40006FB05E0786800F0F8FA786800F009FB34
:104D04007B6800221A777B681B681B6903F0010328
:104D1400012B0ED17B681B68DB6803F00103012BB8
:104D240007D17B681B686FF001021A617868FCF791
:104D3400E5FF7B681B681B6903F08003802B0ED1A1
:104D44007B681B68DB6803F08003802B07D17B68DA
:104D54001B686FF080021A61786801F05FF87B6865
:104D64001B681B6903F48073B3F5807F0ED17B68E5
:104D74001B68DB6803F08003802B07D17B681B680A
:104D84006FF480721A61786801F052F87B681B68CE
:104D94001B6903F04003402B0ED17B681B68DB6862
:104DA40003F04003402B07D17B681B686FF040027F
:104DB4001A61786800F0B7FA7B681B681B6903F016
:104DC4002003202B0ED17B681B68DB6803F02003D3
:104DD400202B07D17B681B686FF020021A6178686A
:104DE40001F012F800BF0837BD4680BD80B584B01D
:104DF40000AFF860B9607A60FB6893F83C30012B2F
:104E040001D102238AE0FB68012283F83C20FB687D
:104E1400022283F83D207B68002B1BD1FB681868B5
:104E2400BB681968BB685A68BB68DB6800F072FD30
:104E3400FB681B68FA681268926922F00C029A6196
:104E4400FB681B68FA6812689169BA6892680A4339
:104E54009A615AE07B68042B1CD1FB681868BB6814
:104E64001968BB685A68BB68DB6800F0DEFDFB6844
:104E74001B68FA681268926922F440629A61FB68BE
:104E84001B68FA6812689169BA68926812020A4348
:104E94009A613AE07B68082B1BD1FB681868BB68F1
:104EA4001968BB685A68BB68DB6800F02BFEFB68B6
:104EB4001B68FA681268D26922F00C02DA61FB6896
:104EC4001B68FA681268D169BA6892680A43DA61A1
:104ED4001BE0FB681868BB681968BB685A68BB6844
:104EE400DB6800F04BFEFB681B68FA681268D26945
:104EF40022F44062DA61FB681B68FA681268D169BF
:104F0400BA68926812020A43DA61FB68012283F8E4
:104F14003D20FB68002283F83C200023184610370C
:104F2400BD4680BD80B584B000AFF860B9607A60DA
:104F3400FB6893F83C30012B01D1022305E1FB68A7
:104F4400012283F83C20FB68022283F83D207B6821
:104F5400142B00F2F08001A252F823F0B54F0008A0
:104F64003B5100083B5100083B510008F54F000835
:104F74003B5100083B5100083B51000837500008E2
:104F84003B5100083B5100083B5100087750000892
:104F94003B5100083B5100083B510008B950000840
:104FA4003B5100083B5100083B510008F9500008F0
:104FB400FB681B68B968184600F02EFAFB681B688A
:104FC400FA681268926942F008029A61FB681B68E9
:104FD400FA681268926922F004029A61FB681B68FD
:104FE400FA6812689169BA6812690A439A61A3E07F
:104FF400FB681B68B968184600F08AFAFB681B68EE
:10500400FA681268926942F400629A61FB681B684C
:10501400FA681268926922F480629A61FB681B68DC
:10502400FA6812689169BA68126912020A439A61AD
:1050340082E0FB681B68B968184600F0E3FAFB6875
:105044001B68FA681268D26942F00802DA61FB68E8
:105054001B68FA681268D26922F00402DA61FB68FC
:105064001B68FA681268D169BA6812690A43DA617E
:1050740062E0FB681B68B968184600F03BFBFB68FC
:105084001B68FA681268D26942F40062DA61FB684C
:105094001B68FA681268D26922F48062DA61FB68DC
:1050A4001B68FA681268D169BA68126912020A4365
:1050B400DA6141E0FB681B68B968184600F078FBC8
:1050C400FB681B68FA681268526D42F008025A6560
:1050D400FB681B68FA681268526D22F004025A6574
:1050E400FB681B68FA681268516DBA6812690A4352
:1050F4005A6521E0FB681B68B968184600F0B0FBEC
:10510400FB681B68FA681268526D42F400625A65C3
:10511400FB681B68FA681268526D22F480625A6553
:10512400FB681B68FA681268516DBA68126912024A
:105134000A435A6500E000BFFB68012283F83D2062
:10514400FB68002283F83C20002318461037BD4634
:1051540080BD00BF80B584B000AF786039607B68E3
:1051640093F83C30012B01D10223BAE07B68012281
:1051740083F83C207B68022283F83D207B681B680F
:105184009B68FB60FB6823F4803323F07703FB60A8
:10519400FB6823F47F43FB607B681B68FA689A60B2
:1051A4003B681B68402B7AD0402B0DD8102B00F0A5
:1051B4008680102B03D8002B00F0818088E0202B00
:1051C4007DD0302B7BD083E0702B18D0702B04D88B
:1051D400502B44D0602B52D07AE0B3F5805F03D0DB
:1051E400B3F5005F28D073E07B681A687B681B689E
:1051F4009B6823F4803323F00703936068E07B68A3
:1052040018683B6899683B685A683B68DB6800F03B
:105214000DFD7B681B689B68FB60FB6823F480338F
:1052240023F07703FB60FB6843F07703FB607B6844
:105234001B68FA689A604BE07B6818683B68996859
:105244003B685A683B68DB6800F0F0FC7B681B68CD
:105254007A681268926842F480429A6038E07B6807
:1052640018683B6859683B68DB681A4600F0AEFB77
:105274007B681B685021184600F0BDFC28E07B6861
:1052840018683B6859683B68DB681A4600F00AFCFA
:105294007B681B686021184600F0ADFC18E07B6851
:1052A40018683B6859683B68DB681A4600F08EFB57
:1052B4007B681B684021184600F09DFC08E07B6871
:1052C4001A683B681B681946104600F094FC00BF3E
:1052D4007B68012283F83D207B68002283F83C2010
:1052E400002318461037BD4680BD80B483B000AF9C
:1052F400786000BF0C37BD465DF8047B704780B40E
:1053040083B000AF786000BF0C37BD465DF8047B06
:10531400704780B483B000AF786000BF0C37BD46DF
:105324005DF8047B704780B483B000AF786000BF41
:105334000C37BD465DF8047B7047000080B485B02F
:1053440000AF786039607B681B68FB607B682E4A1D
:10535400934207D07B68B3F1804F03D07B682B4A1C
:10536400934208D1FB6823F07003FB603B685B68E1
:10537400FA681343FB607B68234A93420FD07B682F
:10538400B3F1804F0BD07B68204A934207D07B68EF
:105394001F4A934203D07B681E4A934208D1FB689C
:1053A40023F44073FB603B68DB68FA681343FB60DB
:1053B400FB6823F080023B685B691343FB607B68F6
:1053C400FA681A603B689A687B68DA623B681A6814
:1053D4007B689A627B680C4A934207D07B680C4ACC
:1053E400934203D07B680B4A934203D13B681A690A
:1053F4007B681A637B6801225A6100BF1437BD467B
:105404005DF8047B704700BF002C0140000400409D
:10541400004001400044014080B487B000AF786090
:1054240039607B681B6A23F001027B681A627B681F
:105434001B6A7B617B685B683B617B689B69FB6083
:10544400FB6823F4803323F07003FB60FB6823F0D4
:105454000303FB603B681B68FA681343FB607B69CA
:1054640023F002037B613B689B687A6913437B6189
:105474007B68244A934207D07B68234A934203D033
:105484007B68224A93420CD17B6923F008037B6139
:105494003B68DB687A6913437B617B6923F004030F
:1054A4007B617B68174A934207D07B68164A934214
:1054B40003D07B68154A934211D13B6923F480736E
:1054C4003B613B6923F400733B613B685B693A6968
:1054D40013433B613B689B693A6913433B617B68B7
:1054E4003A695A607B68FA689A613B685A687B68D3
:1054F4005A637B687A691A6200BF1C37BD465DF83F
:10550400047B7047002C01400040014000440140EE
:1055140080B487B000AF786039607B681B6A23F081
:1055240010027B681A627B681B6A7B617B685B681C
:105534003B617B689B69FB60FB6823F0807323F409
:10554400E043FB60FB6823F44073FB603B681B682B
:105554001B02FA681343FB607B6923F020037B6121
:105564003B689B681B017A6913437B617B68224A11
:1055740093420DD17B6923F080037B613B68DB6838
:105584001B017A6913437B617B6923F040037B61D0
:105594007B68194A934207D07B68184A934203D028
:1055A4007B68174A934213D13B6923F480633B61C0
:1055B4003B6923F400633B613B685B699B003A6988
:1055C40013433B613B689B699B003A6913433B610E
:1055D4007B683A695A607B68FA689A613B685A68E2
:1055E4007B689A637B687A691A6200BF1C37BD4680
:1055F4005DF8047B704700BF002C0140004001406F
:105604000044014080B487B000AF786039607B68A3
:105614001B6A23F480727B681A627B681B6A7B6155
:105624007B685B683B617B68DB69FB60FB6823F438
:10563400803323F07003FB60FB6823F00303FB60FB
:105644003B681B68FA681343FB607B6923F40073AF
:105654007B613B689B681B027A6913437B617B68AF
:10566400214A93420DD17B6923F400637B613B683B
:10567400DB681B027A6913437B617B6923F48063D3
:105684007B617B68184A934207D07B68174A934230
:1056940003D07B68164A934213D13B6923F48053A9
:1056A4003B613B6923F400533B613B685B691B012D
:1056B4003A6913433B613B689B691B013A69134395
:1056C4003B617B683A695A607B68FA68DA613B68D7
:1056D4005A687B68DA637B687A691A6200BF1C3790
:1056E400BD465DF8047B7047002C0140004001403A
:1056F4000044014080B487B000AF786039607B68B3
:105704001B6A23F480527B681A627B681B6A3B61C4
:105714007B685B687B617B68DB69FB60FB6823F00B
:10572400807323F4E043FB60FB6823F44073FB6065
:105734003B681B681B02FA681343FB603B6923F454
:1057440000533B613B689B681B033A6913433B610D
:105754007B68144A934207D07B68134A934203D070
:105764007B68124A934209D17B6923F480437B61AD
:105774003B685B699B017A6913437B617B687A6947
:105784005A607B68FA68DA613B685A687B681A6415
:105794007B683A691A6200BF1C37BD465DF8047B1A
:1057A400704700BF002C014000400140004401400C
:1057B40080B487B000AF786039607B681B6A23F4DB
:1057C40080327B681A627B681B6A3B617B685B681A
:1057D4007B617B685B6DFB60FB6823F4803323F0A3
:1057E4007003FB603B681B68FA681343FB603B690A
:1057F40023F400333B613B689B681B043A69134301
:105804003B617B68134A934207D07B68124A9342F8
:1058140003D07B68114A934209D17B6923F4803316
:105824007B613B685B691B027A6913437B617B681C
:105834007A695A607B68FA685A653B685A687B687B
:105844009A657B683A691A6200BF1C37BD465DF8E9
:10585400047B7047002C014000400140004401409B
:1058640080B487B000AF786039607B681B6A23F42A
:1058740080127B681A627B681B6A3B617B685B6889
:105884007B617B685B6DFB60FB6823F0807323F4B2
:10589400E043FB603B681B681B02FA681343FB6030
:1058A4003B6923F400133B613B689B681B053A6921
:1058B40013433B617B68144A934207D07B68134AC5
:1058C400934203D07B68124A934209D17B6923F443
:1058D40080237B613B685B699B027A6913437B612C
:1058E4007B687A695A607B68FA685A653B685A68CB
:1058F4007B68DA657B683A691A6200BF1C37BD466B
:105904005DF8047B704700BF002C0140004001405B
:105914000044014080B487B000AFF860B9607A6099
:105924003B60FB681B6A23F00102FB681A62FB6898
:105934009B697B61FB681B6A3B61FB68204A93425D
:105944000BD0FB68B3F1804F07D0FB681D4A93422C
:1059540003D0FB681C4A934201D1012300E00023D9
:10596400002B08D07B6923F003037B617A697B6891
:1059740013437B6103E07B6943F001037B617B6933
:1059840023F0F0037B613B681B01DBB27A691343AC
:105994007B613B6923F00A033B61BB6803F00A03A4
:1059A4003A6913433B61FB687A699A61FB683A6917
:1059B4001A6200BF1C37BD465DF8047B704700BF08
:1059C400002C0140000400400040014080B487B036
:1059D40000AFF860B9607A60FB681B6A7B61FB68A2
:1059E4001B6A23F00102FB681A62FB689B693B6136
:1059F4003B6923F0F0033B617B681B013A69134365
:105A04003B617B6923F00A037B617A69BB681343BA
:105A14007B61FB683A699A61FB687A691A6200BF24
:105A24001C37BD465DF8047B704780B487B000AF77
:105A3400F860B9607A603B60FB681B6A23F010026F
:105A4400FB681A62FB689B697B61FB681B6A3B61AC
:105A54007B6923F440737B617B681B027A6913437F
:105A64007B617B6923F470437B613B681B039BB2BE
:105A74007A6913437B613B6923F0A0033B61BB68F4
:105A84001B0103F0A0033A6913433B61FB687A6985
:105A94009A61FB683A691A6200BF1C37BD465DF81B
:105AA400047B704780B487B000AFF860B9607A6057
:105AB400FB681B6A23F01002FB681A62FB689B698F
:105AC4007B61FB681B6A3B617B6923F470437B61E8
